{
	"data": {
		"bytecode": {
			"linkReferences": {},
			"object": "6080604052620000126009600a62000e29565b62000022906301c9c38062000ee8565b620000309060001962000f42565b6200003e9060001962000f0a565b600455600f600555426006556007805460ff191660011790556064620000676009600a62000e29565b62000077906301c9c38062000ee8565b62000083919062000dc9565b6200009090600362000ee8565b60085560646008546050620000a6919062000ee8565b620000b2919062000dc9565b600955600a80546001600160a01b031990811661dead17909155600b805482167325542c1992351956855074051725275a20761224179055601580547405ff2b0db69458a0750badebc4f9e13add608c7f00610100600160a81b03199091161790556016805482167310ed43c718714eb63d5aa57b78b54704e256024e17905560178054909116739ac64cc6e4415144c455bd8e4837fea55603e5c31790556019805460ff60a81b1916600160a81b1790553480156200017157600080fd5b50600080546001600160a01b03191633908117825560405160029282917f8be0079c531659141344cd1fd0a4f28419497f9722a3daafe3b4186f6b6457e0908290a350600380546001600160a01b0319163390811790915560405181906000907f80f15e9dbc60884fdb59fb8ed4fc48a9a689e028f055e893ed45ca5be67c5c85908290a35062000201620003e0565b600454600e60006200021b6000546001600160a01b031690565b6001600160a01b03166001600160a01b0316815260200190815260200160002081905550600160116000620002556200045560201b60201c565b6001600160a01b0316815260208082019290925260409081016000908120805494151560ff199586161790553081526011909252902080549091166001179055620002b2620002ac6000546001600160a01b031690565b62000464565b620002bd3062000464565b600080546001600160a01b0316907fddf252ad1be2c89b69c2b068fc378daa952ba7f163c4a11628f55a4df523b3ef620002fa6009600a62000e29565b6200030a906301c9c38062000ee8565b60405190815260200160405180910390a36200037f816064620003306009600a62000e29565b62000340906301c9c38062000ee8565b6200034c919062000dc9565b6103e86200035d6009600a62000e29565b6200036d906301c9c38062000ee8565b62000379919062000dc9565b62000527565b60195462000396906001600160a01b031662000464565b600a54620003ad906001600160a01b031662000464565b50620003da620003c56000546001600160a01b031690565b6018546001600160a01b031660001962000614565b62000f85565b620003ef60036028306200074f565b600a80546200040a916001916001600160a01b03166200074f565b6200041960026028306200074f565b600b546200043690600590600a906001600160a01b03166200074f565b600b5462000453906000906032906001600160a01b03166200074f565b565b6000546001600160a01b031690565b6001600160a01b0381166000908152600e602052604090205415620004c1576001600160a01b0381166000908152600e6020526040902054620004a7906200084c565b6001600160a01b0382166000908152600f60205260409020555b6001600160a01b03166000818152601260205260408120805460ff191660019081179091556013805491820181559091527f66de8ffda797e3de9c05e8fc57b3bf0ec28a930d40b0d285d93c06501cf6a0900180546001600160a01b0319169091179055565b6015805484919060ff191660018360028111156200055557634e487b7160e01b600052602160045260246000fd5b0217905550600160155460ff1660028111156200058257634e487b7160e01b600052602160045260246000fd5b1415620005ab57601554620005a59061010090046001600160a01b0316620008e4565b62000608565b600260155460ff166002811115620005d357634e487b7160e01b600052602160045260246000fd5b1415620005f157601654620005a5906001600160a01b0316620008e4565b60175462000608906001600160a01b0316620008e4565b601a91909155601b5550565b6001600160a01b038316620006845760405162461bcd60e51b815260206004820152602b60248201527f42617365526669546f6b656e3a20617070726f76652066726f6d20746865207a60448201526a65726f206164647265737360a81b60648201526084015b60405180910390fd5b6001600160a01b038216620006ee5760405162461bcd60e51b815260206004820152602960248201527f42617365526669546f6b656e3a20617070726f766520746f20746865207a65726044820152686f206164647265737360b81b60648201526084016200067b565b6001600160a01b0383811660008181526010602090815260408083209487168084529482529182902085905590518481527f8c5be1e5ebec7d5bd14f71427d1e84f3dd0314c0f7b2291e5b200ac8c7c3b925910160405180910390a3505050565b600c60405180608001604052808560058111156200077d57634e487b7160e01b600052602160045260246000fd5b815260208082018690526001600160a01b03851660408301526000606090920182905283546001818101865594835291208251600490920201805492939092839160ff1990911690836005811115620007e657634e487b7160e01b600052602160045260246000fd5b02179055506020820151816001015560408201518160020160006101000a8154816001600160a01b0302191690836001600160a01b0316021790555060608201518160030155505081600d600082825462000842919062000dae565b9091555050505050565b6000600454821115620008b55760405162461bcd60e51b815260206004820152602a60248201527f416d6f756e74206d757374206265206c657373207468616e20746f74616c207260448201526965666c656374696f6e7360b01b60648201526084016200067b565b6000620008c162000ac3565b9050620008dd818462000af660201b6200155f1790919060201c565b9392505050565b6000819050806001600160a01b031663c45a01556040518163ffffffff1660e01b815260040160206040518083038186803b1580156200092357600080fd5b505afa15801562000938573d6000803e3d6000fd5b505050506040513d601f19601f820116820180604052508101906200095e919062000d85565b6001600160a01b031663c9c6539630836001600160a01b031663ad5c46486040518163ffffffff1660e01b815260040160206040518083038186803b158015620009a757600080fd5b505afa158015620009bc573d6000803e3d6000fd5b505050506040513d601f19601f82011682018060405250810190620009e2919062000d85565b6040516001600160e01b031960e085901b1681526001600160a01b03928316600482015291166024820152604401602060405180830381600087803b15801562000a2b57600080fd5b505af115801562000a40573d6000803e3d6000fd5b505050506040513d601f19601f8201168201806040525081019062000a66919062000d85565b601980546001600160a01b03199081166001600160a01b039384161790915560188054909116838316179055604051908316907fc6b438e6a8a59579ce6a4406cbd203b740e0d47b458aae6596339bcd40c40d1590600090a25050565b6000808062000ad162000b0d565b9150915062000aef818362000af660201b6200155f1790919060201c565b9250505090565b600062000b04828462000dc9565b90505b92915050565b60045460009081908162000b246009600a62000e29565b62000b34906301c9c38062000ee8565b905060005b60135481101562000cf75782600e60006013848154811062000b6b57634e487b7160e01b600052603260045260246000fd5b60009182526020808320909101546001600160a01b03168352820192909252604001902054118062000be6575081600f60006013848154811062000bbf57634e487b7160e01b600052603260045260246000fd5b60009182526020808320909101546001600160a01b03168352820192909252604001902054115b1562000c185760045462000bfd6009600a62000e29565b62000c0d906301c9c38062000ee8565b945094505050509091565b62000c7b600e60006013848154811062000c4257634e487b7160e01b600052603260045260246000fd5b60009182526020808320909101546001600160a01b0316835282810193909352604090910190205485916200157262000d77821b17901c565b925062000ce0600f60006013848154811062000ca757634e487b7160e01b600052603260045260246000fd5b60009182526020808320909101546001600160a01b0316835282810193909352604090910190205484916200157262000d77821b17901c565b91508062000cee8162000f24565b91505062000b39565b5080158062000d3d575062000d3a62000d136009600a62000e29565b62000d23906301c9c38062000ee8565b60045462000af660201b6200155f1790919060201c565b82105b1562000d6e5760045462000d546009600a62000e29565b62000d64906301c9c38062000ee8565b9350935050509091565b90939092509050565b600062000b04828462000f0a565b60006020828403121562000d97578081fd5b81516001600160a01b0381168114620008dd578182fd5b6000821982111562000dc45762000dc462000f59565b500190565b60008262000ddb5762000ddb62000f6f565b500490565b600181815b8085111562000e2157816000190482111562000e055762000e0562000f59565b8085161562000e1357918102915b93841c939080029062000de5565b509250929050565b600062000b0460ff84168360008262000e455750600162000b07565b8162000e545750600062000b07565b816001811462000e6d576002811462000e785762000e98565b600191505062000b07565b60ff84111562000e8c5762000e8c62000f59565b50506001821b62000b07565b5060208310610133831016604e8410600b841016171562000ebd575081810a62000b07565b62000ec9838362000de0565b806000190482111562000ee05762000ee062000f59565b029392505050565b600081600019048311821515161562000f055762000f0562000f59565b500290565b60008282101562000f1f5762000f1f62000f59565b500390565b600060001982141562000f3b5762000f3b62000f59565b5060010190565b60008262000f545762000f5462000f6f565b500690565b634e487b7160e01b600052601160045260246000fd5b634e487b7160e01b600052601260045260246000fd5b6133878062000f956000396000f3fe6080604052600436106102555760003560e01c80636612e66f11610139578063a5727e78116100b6578063d56332041161007a578063d5633204146106c9578063dd467064146106e9578063dd62ed3e14610709578063e4edf8521461074f578063e7bc1eed1461076f578063f2fde38b1461078457600080fd5b8063a5727e781461063f578063a69df4b514610654578063a9059cbb14610669578063b7671a0d14610689578063c49b9a80146106a957600080fd5b806379053441116100fd57806379053441146105a857806388f82020146105c85780638da5cb5b1461060157806395d89b4114610261578063a457c2d71461061f57600080fd5b80636612e66f1461051e57806370a082311461053e578063715018a61461055e578063737c0dd21461057357806374778cdc1461058857600080fd5b806339509351116101d2578063481c6a7511610196578063481c6a751461044957806351fc9f7a1461047b57806352390c02146104905780635342acb4146104b05780635b23748d146104e9578063602bc62b1461050957600080fd5b806339509351146103a95780633a9e00de146103c957806341cb87fc146103e957806342966c68146104095780634549b0391461042957600080fd5b806323b872dd1161021957806323b872dd14610313578063306d0ab314610333578063313ce5671461035557806331f0a03c146103715780633685d4191461038957600080fd5b806306fdde0314610261578063095ea7b3146102a05780630ddcfe8e146102d057806318160ddd146102fe5780632181432f146102d057600080fd5b3661025c57005b600080fd5b34801561026d57600080fd5b50604080518082018252600781526654525553544d4560c81b602082015290516102979190613005565b60405180910390f35b3480156102ac57600080fd5b506102c06102bb366004612f59565b6107a4565b6040519015158152602001610297565b3480156102dc57600080fd5b506102f06102eb366004612e75565b6107bb565b604051908152602001610297565b34801561030a57600080fd5b506102f06107d9565b34801561031f57600080fd5b506102c061032e366004612ee5565b6107fa565b34801561033f57600080fd5b5061035361034e366004612f84565b610863565b005b34801561036157600080fd5b5060405160098152602001610297565b34801561037d57600080fd5b5060075460ff166102c0565b34801561039557600080fd5b506103536103a4366004612e75565b6108a9565b3480156103b557600080fd5b506102c06103c4366004612f59565b610a98565b3480156103d557600080fd5b506103536103e4366004612f9e565b610ace565b3480156103f557600080fd5b50610353610404366004612e75565b610afd565b34801561041557600080fd5b50610353610424366004612f9e565b610b33565b34801561043557600080fd5b506102f0610444366004612fb6565b610d25565b34801561045557600080fd5b506003546001600160a01b03165b6040516001600160a01b039091168152602001610297565b34801561048757600080fd5b506009546102f0565b34801561049c57600080fd5b506103536104ab366004612e75565b610dd3565b3480156104bc57600080fd5b506102c06104cb366004612e75565b6001600160a01b031660009081526011602052604090205460ff1690565b3480156104f557600080fd5b50610353610504366004612f9e565b610e6f565b34801561051557600080fd5b506002546102f0565b34801561052a57600080fd5b50610353610539366004612f25565b610e9e565b34801561054a57600080fd5b506102f0610559366004612e75565b610ef3565b34801561056a57600080fd5b50610353610f52565b34801561057f57600080fd5b506005546102f0565b34801561059457600080fd5b506103536105a3366004612f84565b610fb4565b3480156105b457600080fd5b506103536105c3366004612f9e565b610ffc565b3480156105d457600080fd5b506102c06105e3366004612e75565b6001600160a01b031660009081526012602052604090205460ff1690565b34801561060d57600080fd5b506000546001600160a01b0316610463565b34801561062b57600080fd5b506102c061063a366004612f59565b61102b565b34801561064b57600080fd5b506008546102f0565b34801561066057600080fd5b5061035361107a565b34801561067557600080fd5b506102c0610684366004612f59565b611189565b34801561069557600080fd5b506103536106a4366004612e75565b611196565b3480156106b557600080fd5b506103536106c4366004612f84565b6112d9565b3480156106d557600080fd5b506102f06106e4366004612e75565b61135e565b3480156106f557600080fd5b50610353610704366004612f9e565b61137c565b34801561071557600080fd5b506102f0610724366004612ead565b6001600160a01b03918216600090815260106020908152604080832093909416825291909152205490565b34801561075b57600080fd5b5061035361076a366004612e75565b611401565b34801561077b57600080fd5b506006546102f0565b34801561079057600080fd5b5061035361079f366004612e75565b611487565b60006107b133848461157e565b5060015b92915050565b6001600160a01b0381166000908152601c60205260408120546107b5565b60006107e76009600a6131bd565b6107f5906301c9c380613268565b905090565b60006108078484846116b2565b6108598433610854856040518060600160405280602881526020016132e5602891396001600160a01b038a1660009081526010602090815260408083203384529091529020549190611be8565b61157e565b5060019392505050565b6003546001600160a01b031633146108965760405162461bcd60e51b815260040161088d9061308d565b60405180910390fd5b6007805460ff1916911515919091179055565b6000546001600160a01b031633146108d35760405162461bcd60e51b815260040161088d90613058565b6001600160a01b03811660009081526012602052604090205460ff1661093b5760405162461bcd60e51b815260206004820152601760248201527f4163636f756e74206973206e6f74206578636c75646564000000000000000000604482015260640161088d565b60005b601354811015610a9457816001600160a01b03166013828154811061097357634e487b7160e01b600052603260045260246000fd5b6000918252602090912001546001600160a01b03161415610a82576013805461099e90600190613287565b815481106109bc57634e487b7160e01b600052603260045260246000fd5b600091825260209091200154601380546001600160a01b0390921691839081106109f657634e487b7160e01b600052603260045260246000fd5b600091825260208083209190910180546001600160a01b0319166001600160a01b039485161790559184168152600f82526040808220829055601290925220805460ff191690556013805480610a5c57634e487b7160e01b600052603160045260246000fd5b600082815260209020810160001990810180546001600160a01b03191690550190555050565b80610a8c8161329e565b91505061093e565b5050565b3360008181526010602090815260408083206001600160a01b038716845290915281205490916107b19185906108549086611c14565b6003546001600160a01b03163314610af85760405162461bcd60e51b815260040161088d9061308d565b600855565b6003546001600160a01b03163314610b275760405162461bcd60e51b815260040161088d9061308d565b610b3081611c20565b50565b3380610b925760405162461bcd60e51b815260206004820152602860248201527f42617365526669546f6b656e3a206275726e2066726f6d20746865207a65726f604482015267206164647265737360c01b606482015260840161088d565b600a546001600160a01b0382811691161415610c015760405162461bcd60e51b815260206004820152602860248201527f42617365526669546f6b656e3a206275726e2066726f6d20746865206275726e604482015267206164647265737360c01b606482015260840161088d565b6000610c0c82610ef3565b905082811015610c705760405162461bcd60e51b815260206004820152602960248201527f42617365526669546f6b656e3a206275726e20616d6f756e7420657863656564604482015268732062616c616e636560b81b606482015260840161088d565b6000610c84610c7d611df3565b8590611e16565b6001600160a01b0384166000908152600e6020526040902054909150610caa9082611572565b6001600160a01b0384166000908152600e602090815260408083209390935560129052205460ff1615610d14576001600160a01b0383166000908152600f6020526040902054610cfa9085611572565b6001600160a01b0384166000908152600f60205260409020555b610d1f838583611e22565b50505050565b6000610d336009600a6131bd565b610d41906301c9c380613268565b831115610d905760405162461bcd60e51b815260206004820152601f60248201527f416d6f756e74206d757374206265206c657373207468616e20737570706c7900604482015260640161088d565b81610db0576000610da2846000611f04565b509294506107b59350505050565b6000610dc584610dc03387611f7a565b611f04565b509194506107b59350505050565b6000546001600160a01b03163314610dfd5760405162461bcd60e51b815260040161088d90613058565b6001600160a01b03811660009081526012602052604090205460ff1615610e665760405162461bcd60e51b815260206004820152601760248201527f4163636f756e74206973206e6f7420696e636c75646564000000000000000000604482015260640161088d565b610b3081611f8f565b6003546001600160a01b03163314610e995760405162461bcd60e51b815260040161088d9061308d565b600555565b6000546001600160a01b03163314610ec85760405162461bcd60e51b815260040161088d90613058565b6001600160a01b03919091166000908152601160205260409020805460ff1916911515919091179055565b6001600160a01b03811660009081526012602052604081205460ff1615610f3057506001600160a01b03166000908152600f602052604090205490565b6001600160a01b0382166000908152600e60205260409020546107b59061204f565b6000546001600160a01b03163314610f7c5760405162461bcd60e51b815260040161088d90613058565b600080546040516001600160a01b039091169060008051602061330d833981519152908390a3600080546001600160a01b0319169055565b6003546001600160a01b03163314610fde5760405162461bcd60e51b815260040161088d9061308d565b60038054911515600160a01b0260ff60a01b19909216919091179055565b6003546001600160a01b031633146110265760405162461bcd60e51b815260040161088d9061308d565b600955565b60006107b133846108548560405180606001604052806025815260200161332d602591393360009081526010602090815260408083206001600160a01b038d1684529091529020549190611be8565b6001546001600160a01b031633146110e95760405162461bcd60e51b815260206004820152602c60248201527f4f6e6c79207468652070726576696f7573206f776e65722063616e20756e6c6f60448201526b0636b206f6e776572736869760a41b606482015260840161088d565b600254421161113a5760405162461bcd60e51b815260206004820152601c60248201527f54686520636f6e7472616374206973207374696c6c206c6f636b656400000000604482015260640161088d565b600154600080546040516001600160a01b03938416939091169160008051602061330d83398151915291a3600154600080546001600160a01b0319166001600160a01b03909216919091179055565b60006107b13384846116b2565b6003546001600160a01b031633146111c05760405162461bcd60e51b815260040161088d9061308d565b6001600160a01b0381166112325760405162461bcd60e51b815260206004820152603360248201527f43616e6e6f7420776974686472617720746865204554482062616c616e636520604482015272746f20746865207a65726f206164647265737360681b606482015260840161088d565b6000601454116112935760405162461bcd60e51b815260206004820152602660248201527f546865204554482062616c616e6365206d75737420626520677265617465722060448201526507468616e20360d41b606482015260840161088d565b6014805460009182905560405190916001600160a01b0384169183156108fc0291849190818181858888f193505050501580156112d4573d6000803e3d6000fd5b505050565b6003546001600160a01b031633146113035760405162461bcd60e51b815260040161088d9061308d565b6019805460ff60a81b1916600160a81b8315158102919091179182905560405160ff9190920416151581527f53726dfcaf90650aa7eb35524f4d3220f07413c8d6cb404cc8c18bf5591bc1599060200160405180910390a150565b6001600160a01b0381166000908152601d60205260408120546107b5565b6000546001600160a01b031633146113a65760405162461bcd60e51b815260040161088d90613058565b60008054600180546001600160a01b03199081166001600160a01b038416179091551690556113d58142613142565b600255600080546040516001600160a01b039091169060008051602061330d833981519152908390a350565b6003546001600160a01b0316331461142b5760405162461bcd60e51b815260040161088d9061308d565b6003546040516001600160a01b038084169216907f80f15e9dbc60884fdb59fb8ed4fc48a9a689e028f055e893ed45ca5be67c5c8590600090a3600380546001600160a01b0319166001600160a01b0392909216919091179055565b6000546001600160a01b031633146114b15760405162461bcd60e51b815260040161088d90613058565b6001600160a01b0381166115165760405162461bcd60e51b815260206004820152602660248201527f4f776e61626c653a206e6577206f776e657220697320746865207a65726f206160448201526564647265737360d01b606482015260840161088d565b600080546040516001600160a01b038085169392169160008051602061330d83398151915291a3600080546001600160a01b0319166001600160a01b0392909216919091179055565b600061156b828461315a565b9392505050565b600061156b8284613287565b6001600160a01b0383166115e85760405162461bcd60e51b815260206004820152602b60248201527f42617365526669546f6b656e3a20617070726f76652066726f6d20746865207a60448201526a65726f206164647265737360a81b606482015260840161088d565b6001600160a01b0382166116505760405162461bcd60e51b815260206004820152602960248201527f42617365526669546f6b656e3a20617070726f766520746f20746865207a65726044820152686f206164647265737360b81b606482015260840161088d565b6001600160a01b0383811660008181526010602090815260408083209487168084529482529182902085905590518481527f8c5be1e5ebec7d5bd14f71427d1e84f3dd0314c0f7b2291e5b200ac8c7c3b92591015b60405180910390a3505050565b6001600160a01b03831661171d5760405162461bcd60e51b815260206004820152602c60248201527f42617365526669546f6b656e3a207472616e736665722066726f6d207468652060448201526b7a65726f206164647265737360a01b606482015260840161088d565b6001600160a01b0382166117865760405162461bcd60e51b815260206004820152602a60248201527f42617365526669546f6b656e3a207472616e7366657220746f20746865207a65604482015269726f206164647265737360b01b606482015260840161088d565b600a546001600160a01b03848116911614156117f95760405162461bcd60e51b815260206004820152602c60248201527f42617365526669546f6b656e3a207472616e736665722066726f6d207468652060448201526b6275726e206164647265737360a01b606482015260840161088d565b6000811161185b5760405162461bcd60e51b815260206004820152602960248201527f5472616e7366657220616d6f756e74206d7573742062652067726561746572206044820152687468616e207a65726f60b81b606482015260840161088d565b600354600190600160a01b900460ff161561187857506000611b88565b60646118866009600a6131bd565b611894906301c9c380613268565b61189e919061315a565b821180156118ba57506000546001600160a01b03858116911614155b80156118cc57506118ca836120cc565b155b1561192a5760405162461bcd60e51b815260206004820152602860248201527f5472616e7366657220616d6f756e74206578636565647320746865206d6178546044820152673c20b6b7bab73a1760c11b606482015260840161088d565b600060085411801561194a57506000546001600160a01b03858116911614155b801561195c575061195a836120cc565b155b801561197657506019546001600160a01b03848116911614155b156119fc57600061198684610ef3565b6008549091506119968483613142565b11156119fa5760405162461bcd60e51b815260206004820152602d60248201527f4e65772062616c616e636520776f756c642065786365656420746865206d617860448201526c57616c6c657442616c616e636560981b606482015260840161088d565b505b6000600554118015611a1c57506000546001600160a01b03858116911614155b8015611a2e5750611a2c836120cc565b155b8015611a4357506001600160a01b0384163014155b15611b8857326000908152601d60205260409020544311611ac45760405162461bcd60e51b815260206004820152603560248201527f596f752063616e742073656e64206d6f7265207468616e206f6e65207472616e60448201527439b0b1ba34b7b71034b71037b73290313637b1b59760591b606482015260840161088d565b326000908152601d60209081526040808320439055601c90915290205415611b7f57326000908152601c6020526040902054421015611b7f5760405162461bcd60e51b815260206004820152604b60248201527f596f75206e65656420746f20776169742054494d455f4c494d49545f5452414e60448201527f53414354494f4e206265666f726520706572666f726d20616e6f74686572207460648201526a3930b739b0b1ba34b7b71760a91b608482015260a40161088d565b611b88326120f9565b6001600160a01b03841660009081526011602052604090205460ff1680611bc757506001600160a01b03831660009081526011602052604090205460ff165b15611bd0575060005b611bdc84848484612122565b610d1f84848484612151565b60008184841115611c0c5760405162461bcd60e51b815260040161088d9190613005565b505050900390565b600061156b8284613142565b6000819050806001600160a01b031663c45a01556040518163ffffffff1660e01b815260040160206040518083038186803b158015611c5e57600080fd5b505afa158015611c72573d6000803e3d6000fd5b505050506040513d601f19601f82011682018060405250810190611c969190612e91565b6001600160a01b031663c9c6539630836001600160a01b031663ad5c46486040518163ffffffff1660e01b815260040160206040518083038186803b158015611cde57600080fd5b505afa158015611cf2573d6000803e3d6000fd5b505050506040513d601f19601f82011682018060405250810190611d169190612e91565b6040516001600160e01b031960e085901b1681526001600160a01b03928316600482015291166024820152604401602060405180830381600087803b158015611d5e57600080fd5b505af1158015611d72573d6000803e3d6000fd5b505050506040513d601f19601f82011682018060405250810190611d969190612e91565b601980546001600160a01b03199081166001600160a01b039384161790915560188054909116838316179055604051908316907fc6b438e6a8a59579ce6a4406cbd203b740e0d47b458aae6596339bcd40c40d1590600090a25050565b6000806000611e006123c4565b9092509050611e0f828261155f565b9250505090565b600061156b8284613268565b600a546001600160a01b03166000908152600e6020526040902054611e479082611c14565b600a80546001600160a01b039081166000908152600e6020908152604080832095909555925490911681526012909152205460ff1615611ec257600a546001600160a01b03166000908152600f6020526040902054611ea69083611c14565b600a546001600160a01b03166000908152600f60205260409020555b600a546040518381526001600160a01b03918216918516907fddf252ad1be2c89b69c2b068fc378daa952ba7f163c4a11628f55a4df523b3ef906020016116a5565b60008080808080611f216103e8611f1b8a8a611e16565b9061155f565b90506000611f2f8983611572565b90506000611f3b611df3565b90506000611f498b83611e16565b90506000611f578584611e16565b90506000611f658383611572565b929d929c9b5093995091975095505050505050565b600061156b611f8884610ef3565b50600d5490565b6001600160a01b0381166000908152600e602052604090205415611fe9576001600160a01b0381166000908152600e6020526040902054611fcf9061204f565b6001600160a01b0382166000908152600f60205260409020555b6001600160a01b03166000818152601260205260408120805460ff191660019081179091556013805491820181559091527f66de8ffda797e3de9c05e8fc57b3bf0ec28a930d40b0d285d93c06501cf6a0900180546001600160a01b0319169091179055565b60006004548211156120b65760405162461bcd60e51b815260206004820152602a60248201527f416d6f756e74206d757374206265206c657373207468616e20746f74616c207260448201526965666c656374696f6e7360b01b606482015260840161088d565b60006120c0611df3565b905061156b838261155f565b600080546001600160a01b03838116911614806107b5575050600a546001600160a01b0390811691161490565b6005546121069042613142565b6001600160a01b039091166000908152601c6020526040902055565b600354600160a01b900460ff16610d1f57600061213e30610ef3565b905061214a81866125e7565b5050505050565b600061215d8584611f7a565b600954909150600190156121a35760095461217787610ef3565b108061218c575060095461218a86610ef3565b105b156121a35761219c603283613287565b9150600090505b60016121bd866019546001600160a01b0391821691161490565b156121d9576121ca612651565b90506121d68382611e16565b92505b836121e357600092505b60008060008060006121f58a89611f04565b9450945094509450945061223785600e60008f6001600160a01b03166001600160a01b031681526020019081526020016000205461157290919063ffffffff16565b6001600160a01b03808e166000908152600e602052604080822093909355908d16815220546122669085611c14565b6001600160a01b03808d166000908152600e6020908152604080832094909455918f1681526012909152205460ff16156122d7576001600160a01b038c166000908152600f60205260409020546122bd9084611572565b6001600160a01b038d166000908152600f60205260409020555b6001600160a01b038b1660009081526012602052604090205460ff1615612335576001600160a01b038b166000908152600f602052604090205461231b9083611c14565b6001600160a01b038c166000908152600f60205260409020555b6009546001600160a01b038d166000908152600e602052604090205461235a9061204f565b50506123698a828a8a8a61265b565b8a6001600160a01b03168c6001600160a01b03167fddf252ad1be2c89b69c2b068fc378daa952ba7f163c4a11628f55a4df523b3ef846040516123ae91815260200190565b60405180910390a3505050505050505050505050565b6004546000908190816123d96009600a6131bd565b6123e7906301c9c380613268565b905060005b6013548110156125805782600e60006013848154811061241c57634e487b7160e01b600052603260045260246000fd5b60009182526020808320909101546001600160a01b031683528201929092526040019020541180612495575081600f60006013848154811061246e57634e487b7160e01b600052603260045260246000fd5b60009182526020808320909101546001600160a01b03168352820192909252604001902054115b156124c2576004546124a96009600a6131bd565b6124b7906301c9c380613268565b945094505050509091565b612516600e6000601384815481106124ea57634e487b7160e01b600052603260045260246000fd5b60009182526020808320909101546001600160a01b031683528201929092526040019020548490611572565b925061256c600f60006013848154811061254057634e487b7160e01b600052603260045260246000fd5b60009182526020808320909101546001600160a01b031683528201929092526040019020548390611572565b9150806125788161329e565b9150506123ec565b508015806125b257506125af6125986009600a6131bd565b6125a6906301c9c380613268565b6004549061155f565b82105b156125de576004546125c66009600a6131bd565b6125d4906301c9c380613268565b9350935050509091565b90939092509050565b601a5482106125f657601a5491505b601b54821080159081906126135750601954600160a81b900460ff165b80156126295750601954600160a01b900460ff16155b801561264357506019546001600160a01b03838116911614155b156112d4576112d483612686565b60006107f561272d565b6000831180156126755750600354600160a01b900460ff16155b1561214a5761214a85858484612762565b6019805460ff60a01b1916600160a01b17905560006126a682600261155f565b905060006126b48383611572565b9050476126c0836128e3565b60006126cc4783611572565b90506126d88382612a60565b60408051858152602081018390529081018490527f17bbfb9a6069321b6ded73bd96327c9e6b7212a5cd51ff219cd61370acafb5619060600160405180910390a150506019805460ff60a01b19169055505050565b60075460009060019060ff16151581141561275d576006546127529062015180613142565b42101561275d575060025b919050565b600354600160a01b900460ff161561277957610d1f565b6000612784600c5490565b905060005b818110156128db57600080600061279f84612b97565b5092509250925081600014156127b7575050506128c9565b60038360058111156127d957634e487b7160e01b600052602160045260246000fd5b14156127f9576127f46127ec8a88611e16565b898487612c4e565b6128c5565b600183600581111561281b57634e487b7160e01b600052602160045260246000fd5b1415612836576127f461282e8a88611e16565b898487612c8b565b600083600581111561285857634e487b7160e01b600052602160045260246000fd5b141561287a5786156127f4576127f46128718a88611e16565b89848488612cc2565b600583600581111561289c57634e487b7160e01b600052602160045260246000fd5b14156128af576127f46128718a88611e16565b6128c56128bc8a88611e16565b89848488612ccb565b5050505b806128d38161329e565b915050612789565b505050505050565b604080516002808252606082018352600092602083019080368337019050509050308160008151811061292657634e487b7160e01b600052603260045260246000fd5b6001600160a01b03928316602091820292909201810191909152601854604080516315ab88c960e31b81529051919093169263ad5c4648926004808301939192829003018186803b15801561297a57600080fd5b505afa15801561298e573d6000803e3d6000fd5b505050506040513d601f19601f820116820180604052508101906129b29190612e91565b816001815181106129d357634e487b7160e01b600052603260045260246000fd5b6001600160a01b0392831660209182029290920101526018546129f99130911684612d8e565b60185460405163791ac94760e01b81526001600160a01b039091169063791ac94790612a329085906000908690309042906004016130d2565b600060405180830381600087803b158015612a4c57600080fd5b505af11580156128db573d6000803e3d6000fd5b601854612a789030906001600160a01b031684612d8e565b601854600090819081906001600160a01b031663f305d7198530888580612aa76000546001600160a01b031690565b60405160e088901b6001600160e01b03191681526001600160a01b03958616600482015260248101949094526044840192909252606483015290911660848201524260a482015260c4016060604051808303818588803b158015612b0a57600080fd5b505af1158015612b1e573d6000803e3d6000fd5b50505050506040513d601f19601f82011682018060405250810190612b439190612fd8565b47601455604080518481526020810184905290810182905292955090935091507fd7f28048575eead8851d024ead087913957dfb4fd1a02b4d1573f5352a5a2be39060600160405180910390a15050505050565b6000806000806000612ba886612d99565b60408051608081019091528154909190829060ff166005811115612bdc57634e487b7160e01b600052602160045260246000fd5b6005811115612bfb57634e487b7160e01b600052602160045260246000fd5b8152600182015460208083019190915260028301546001600160a01b0316604080840191909152600390930154606092830152835190840151928401519390910151909991985091965090945092505050565b6000612c606103e8611f1b8786611e16565b90506000612c6e8286611e16565b600454909150612c7e9082611572565b6004556128db8383612e3e565b6000612c9d6103e8611f1b8786611e16565b90506000612cab8286611e16565b9050612cb8308383611e22565b6128db8383612e3e565b61214a85858585855b6000612cdd6103e8611f1b8887611e16565b90506000612ceb8287611e16565b6001600160a01b0385166000908152600e6020526040902054909150612d119082611c14565b6001600160a01b0385166000908152600e602090815260408083209390935560129052205460ff1615612d7b576001600160a01b0384166000908152600f6020526040902054612d619083611c14565b6001600160a01b0385166000908152600f60205260409020555b612d858383612e3e565b50505050505050565b6112d483838361157e565b6000600c548210612e085760405162461bcd60e51b815260206004820152603360248201527f4665657353657474696e67732e5f6765744665655374727563743a2046656520604482015272696e646578206f7574206f6620626f756e647360681b606482015260840161088d565b600c8281548110612e2957634e487b7160e01b600052603260045260246000fd5b90600052602060002090600402019050919050565b6000612e4983612d99565b6003810154909150612e5b9083611c14565b6003909101555050565b8035801515811461275d57600080fd5b600060208284031215612e86578081fd5b813561156b816132cf565b600060208284031215612ea2578081fd5b815161156b816132cf565b60008060408385031215612ebf578081fd5b8235612eca816132cf565b91506020830135612eda816132cf565b809150509250929050565b600080600060608486031215612ef9578081fd5b8335612f04816132cf565b92506020840135612f14816132cf565b929592945050506040919091013590565b60008060408385031215612f37578182fd5b8235612f42816132cf565b9150612f5060208401612e65565b90509250929050565b60008060408385031215612f6b578182fd5b8235612f76816132cf565b946020939093013593505050565b600060208284031215612f95578081fd5b61156b82612e65565b600060208284031215612faf578081fd5b5035919050565b60008060408385031215612fc8578182fd5b82359150612f5060208401612e65565b600080600060608486031215612fec578283fd5b8351925060208401519150604084015190509250925092565b6000602080835283518082850152825b8181101561303157858101830151858201604001528201613015565b818111156130425783604083870101525b50601f01601f1916929092016040019392505050565b6020808252818101527f4f776e61626c653a2063616c6c6572206973206e6f7420746865206f776e6572604082015260600190565b60208082526025908201527f4d616e61676561626c653a2063616c6c6572206973206e6f7420746865206d616040820152643730b3b2b960d91b606082015260800190565b600060a082018783526020878185015260a0604085015281875180845260c0860191508289019350845b818110156131215784516001600160a01b0316835293830193918301916001016130fc565b50506001600160a01b03969096166060850152505050608001529392505050565b60008219821115613155576131556132b9565b500190565b60008261317557634e487b7160e01b81526012600452602481fd5b500490565b600181815b808511156131b557816000190482111561319b5761319b6132b9565b808516156131a857918102915b93841c939080029061317f565b509250929050565b600061156b60ff8416836000826131d6575060016107b5565b816131e3575060006107b5565b81600181146131f957600281146132035761321f565b60019150506107b5565b60ff841115613214576132146132b9565b50506001821b6107b5565b5060208310610133831016604e8410600b8410161715613242575081810a6107b5565b61324c838361317a565b8060001904821115613260576132606132b9565b029392505050565b6000816000190483118215151615613282576132826132b9565b500290565b600082821015613299576132996132b9565b500390565b60006000198214156132b2576132b26132b9565b5060010190565b634e487b7160e01b600052601160045260246000fd5b6001600160a01b0381168114610b3057600080fdfe45524332303a207472616e7366657220616d6f756e74206578636565647320616c6c6f77616e63658be0079c531659141344cd1fd0a4f28419497f9722a3daafe3b4186f6b6457e045524332303a2064656372656173656420616c6c6f77616e63652062656c6f77207a65726fa26469706673582212205abafc1b6f023044c01c9cf6a511981c590c8d02e214ebb86d3e6c49517caabd64736f6c63430008040033",
			"opcodes": "PUSH1 0x80 PUSH1 0x40 MSTORE PUSH3 0x12 PUSH1 0x9 PUSH1 0xA PUSH3 0xE29 JUMP JUMPDEST PUSH3 0x22 SWAP1 PUSH4 0x1C9C380 PUSH3 0xEE8 JUMP JUMPDEST PUSH3 0x30 SWAP1 PUSH1 0x0 NOT PUSH3 0xF42 JUMP JUMPDEST PUSH3 0x3E SWAP1 PUSH1 0x0 NOT PUSH3 0xF0A JUMP JUMPDEST PUSH1 0x4 SSTORE PUSH1 0xF PUSH1 0x5 SSTORE TIMESTAMP PUSH1 0x6 SSTORE PUSH1 0x7 DUP1 SLOAD PUSH1 0xFF NOT AND PUSH1 0x1 OR SWAP1 SSTORE PUSH1 0x64 PUSH3 0x67 PUSH1 0x9 PUSH1 0xA PUSH3 0xE29 JUMP JUMPDEST PUSH3 0x77 SWAP1 PUSH4 0x1C9C380 PUSH3 0xEE8 JUMP JUMPDEST PUSH3 0x83 SWAP2 SWAP1 PUSH3 0xDC9 JUMP JUMPDEST PUSH3 0x90 SWAP1 PUSH1 0x3 PUSH3 0xEE8 JUMP JUMPDEST PUSH1 0x8 SSTORE PUSH1 0x64 PUSH1 0x8 SLOAD PUSH1 0x50 PUSH3 0xA6 SWAP2 SWAP1 PUSH3 0xEE8 JUMP JUMPDEST PUSH3 0xB2 SWAP2 SWAP1 PUSH3 0xDC9 JUMP JUMPDEST PUSH1 0x9 SSTORE PUSH1 0xA DUP1 SLOAD PUSH1 0x1 PUSH1 0x1 PUSH1 0xA0 SHL SUB NOT SWAP1 DUP2 AND PUSH2 0xDEAD OR SWAP1 SWAP2 SSTORE PUSH1 0xB DUP1 SLOAD DUP3 AND PUSH20 0x25542C1992351956855074051725275A20761224 OR SWAP1 SSTORE PUSH1 0x15 DUP1 SLOAD PUSH21 0x5FF2B0DB69458A0750BADEBC4F9E13ADD608C7F00 PUSH2 0x100 PUSH1 0x1 PUSH1 0xA8 SHL SUB NOT SWAP1 SWAP2 AND OR SWAP1 SSTORE PUSH1 0x16 DUP1 SLOAD DUP3 AND PUSH20 0x10ED43C718714EB63D5AA57B78B54704E256024E OR SWAP1 SSTORE PUSH1 0x17 DUP1 SLOAD SWAP1 SWAP2 AND PUSH20 0x9AC64CC6E4415144C455BD8E4837FEA55603E5C3 OR SWAP1 SSTORE PUSH1 0x19 DUP1 SLOAD PUSH1 0xFF PUSH1 0xA8 SHL NOT AND PUSH1 0x1 PUSH1 0xA8 SHL OR SWAP1 SSTORE CALLVALUE DUP1 ISZERO PUSH3 0x171 JUMPI PUSH1 0x0 DUP1 REVERT JUMPDEST POP PUSH1 0x0 DUP1 SLOAD PUSH1 0x1 PUSH1 0x1 PUSH1 0xA0 SHL SUB NOT AND CALLER SWAP1 DUP2 OR DUP3 SSTORE PUSH1 0x40 MLOAD PUSH1 0x2 SWAP3 DUP3 SWAP2 PUSH32 0x8BE0079C531659141344CD1FD0A4F28419497F9722A3DAAFE3B4186F6B6457E0 SWAP1 DUP3 SWAP1 LOG3 POP PUSH1 0x3 DUP1 SLOAD PUSH1 0x1 PUSH1 0x1 PUSH1 0xA0 SHL SUB NOT AND CALLER SWAP1 DUP2 OR SWAP1 SWAP2 SSTORE PUSH1 0x40 MLOAD DUP2 SWAP1 PUSH1 0x0 SWAP1 PUSH32 0x80F15E9DBC60884FDB59FB8ED4FC48A9A689E028F055E893ED45CA5BE67C5C85 SWAP1 DUP3 SWAP1 LOG3 POP PUSH3 0x201 PUSH3 0x3E0 JUMP JUMPDEST PUSH1 0x4 SLOAD PUSH1 0xE PUSH1 0x0 PUSH3 0x21B PUSH1 0x0 SLOAD PUSH1 0x1 PUSH1 0x1 PUSH1 0xA0 SHL SUB AND SWAP1 JUMP JUMPDEST PUSH1 0x1 PUSH1 0x1 PUSH1 0xA0 SHL SUB AND PUSH1 0x1 PUSH1 0x1 PUSH1 0xA0 SHL SUB AND DUP2 MSTORE PUSH1 0x20 ADD SWAP1 DUP2 MSTORE PUSH1 0x20 ADD PUSH1 0x0 KECCAK256 DUP2 SWAP1 SSTORE POP PUSH1 0x1 PUSH1 0x11 PUSH1 0x0 PUSH3 0x255 PUSH3 0x455 PUSH1 0x20 SHL PUSH1 0x20 SHR JUMP JUMPDEST PUSH1 0x1 PUSH1 0x1 PUSH1 0xA0 SHL SUB AND DUP2 MSTORE PUSH1 0x20 DUP1 DUP3 ADD SWAP3 SWAP1 SWAP3 MSTORE PUSH1 0x40 SWAP1 DUP2 ADD PUSH1 0x0 SWAP1 DUP2 KECCAK256 DUP1 SLOAD SWAP5 ISZERO ISZERO PUSH1 0xFF NOT SWAP6 DUP7 AND OR SWAP1 SSTORE ADDRESS DUP2 MSTORE PUSH1 0x11 SWAP1 SWAP3 MSTORE SWAP1 KECCAK256 DUP1 SLOAD SWAP1 SWAP2 AND PUSH1 0x1 OR SWAP1 SSTORE PUSH3 0x2B2 PUSH3 0x2AC PUSH1 0x0 SLOAD PUSH1 0x1 PUSH1 0x1 PUSH1 0xA0 SHL SUB AND SWAP1 JUMP JUMPDEST PUSH3 0x464 JUMP JUMPDEST PUSH3 0x2BD ADDRESS PUSH3 0x464 JUMP JUMPDEST PUSH1 0x0 DUP1 SLOAD PUSH1 0x1 PUSH1 0x1 PUSH1 0xA0 SHL SUB AND SWAP1 PUSH32 0xDDF252AD1BE2C89B69C2B068FC378DAA952BA7F163C4A11628F55A4DF523B3EF PUSH3 0x2FA PUSH1 0x9 PUSH1 0xA PUSH3 0xE29 JUMP JUMPDEST PUSH3 0x30A SWAP1 PUSH4 0x1C9C380 PUSH3 0xEE8 JUMP JUMPDEST PUSH1 0x40 MLOAD SWAP1 DUP2 MSTORE PUSH1 0x20 ADD PUSH1 0x40 MLOAD DUP1 SWAP2 SUB SWAP1 LOG3 PUSH3 0x37F DUP2 PUSH1 0x64 PUSH3 0x330 PUSH1 0x9 PUSH1 0xA PUSH3 0xE29 JUMP JUMPDEST PUSH3 0x340 SWAP1 PUSH4 0x1C9C380 PUSH3 0xEE8 JUMP JUMPDEST PUSH3 0x34C SWAP2 SWAP1 PUSH3 0xDC9 JUMP JUMPDEST PUSH2 0x3E8 PUSH3 0x35D PUSH1 0x9 PUSH1 0xA PUSH3 0xE29 JUMP JUMPDEST PUSH3 0x36D SWAP1 PUSH4 0x1C9C380 PUSH3 0xEE8 JUMP JUMPDEST PUSH3 0x379 SWAP2 SWAP1 PUSH3 0xDC9 JUMP JUMPDEST PUSH3 0x527 JUMP JUMPDEST PUSH1 0x19 SLOAD PUSH3 0x396 SWAP1 PUSH1 0x1 PUSH1 0x1 PUSH1 0xA0 SHL SUB AND PUSH3 0x464 JUMP JUMPDEST PUSH1 0xA SLOAD PUSH3 0x3AD SWAP1 PUSH1 0x1 PUSH1 0x1 PUSH1 0xA0 SHL SUB AND PUSH3 0x464 JUMP JUMPDEST POP PUSH3 0x3DA PUSH3 0x3C5 PUSH1 0x0 SLOAD PUSH1 0x1 PUSH1 0x1 PUSH1 0xA0 SHL SUB AND SWAP1 JUMP JUMPDEST PUSH1 0x18 SLOAD PUSH1 0x1 PUSH1 0x1 PUSH1 0xA0 SHL SUB AND PUSH1 0x0 NOT PUSH3 0x614 JUMP JUMPDEST PUSH3 0xF85 JUMP JUMPDEST PUSH3 0x3EF PUSH1 0x3 PUSH1 0x28 ADDRESS PUSH3 0x74F JUMP JUMPDEST PUSH1 0xA DUP1 SLOAD PUSH3 0x40A SWAP2 PUSH1 0x1 SWAP2 PUSH1 0x1 PUSH1 0x1 PUSH1 0xA0 SHL SUB AND PUSH3 0x74F JUMP JUMPDEST PUSH3 0x419 PUSH1 0x2 PUSH1 0x28 ADDRESS PUSH3 0x74F JUMP JUMPDEST PUSH1 0xB SLOAD PUSH3 0x436 SWAP1 PUSH1 0x5 SWAP1 PUSH1 0xA SWAP1 PUSH1 0x1 PUSH1 0x1 PUSH1 0xA0 SHL SUB AND PUSH3 0x74F JUMP JUMPDEST PUSH1 0xB SLOAD PUSH3 0x453 SWAP1 PUSH1 0x0 SWAP1 PUSH1 0x32 SWAP1 PUSH1 0x1 PUSH1 0x1 PUSH1 0xA0 SHL SUB AND PUSH3 0x74F JUMP JUMPDEST JUMP JUMPDEST PUSH1 0x0 SLOAD PUSH1 0x1 PUSH1 0x1 PUSH1 0xA0 SHL SUB AND SWAP1 JUMP JUMPDEST PUSH1 0x1 PUSH1 0x1 PUSH1 0xA0 SHL SUB DUP2 AND PUSH1 0x0 SWAP1 DUP2 MSTORE PUSH1 0xE PUSH1 0x20 MSTORE PUSH1 0x40 SWAP1 KECCAK256 SLOAD ISZERO PUSH3 0x4C1 JUMPI PUSH1 0x1 PUSH1 0x1 PUSH1 0xA0 SHL SUB DUP2 AND PUSH1 0x0 SWAP1 DUP2 MSTORE PUSH1 0xE PUSH1 0x20 MSTORE PUSH1 0x40 SWAP1 KECCAK256 SLOAD PUSH3 0x4A7 SWAP1 PUSH3 0x84C JUMP JUMPDEST PUSH1 0x1 PUSH1 0x1 PUSH1 0xA0 SHL SUB DUP3 AND PUSH1 0x0 SWAP1 DUP2 MSTORE PUSH1 0xF PUSH1 0x20 MSTORE PUSH1 0x40 SWAP1 KECCAK256 SSTORE JUMPDEST PUSH1 0x1 PUSH1 0x1 PUSH1 0xA0 SHL SUB AND PUSH1 0x0 DUP2 DUP2 MSTORE PUSH1 0x12 PUSH1 0x20 MSTORE PUSH1 0x40 DUP2 KECCAK256 DUP1 SLOAD PUSH1 0xFF NOT AND PUSH1 0x1 SWAP1 DUP2 OR SWAP1 SWAP2 SSTORE PUSH1 0x13 DUP1 SLOAD SWAP2 DUP3 ADD DUP2 SSTORE SWAP1 SWAP2 MSTORE PUSH32 0x66DE8FFDA797E3DE9C05E8FC57B3BF0EC28A930D40B0D285D93C06501CF6A090 ADD DUP1 SLOAD PUSH1 0x1 PUSH1 0x1 PUSH1 0xA0 SHL SUB NOT AND SWAP1 SWAP2 OR SWAP1 SSTORE JUMP JUMPDEST PUSH1 0x15 DUP1 SLOAD DUP5 SWAP2 SWAP1 PUSH1 0xFF NOT AND PUSH1 0x1 DUP4 PUSH1 0x2 DUP2 GT ISZERO PUSH3 0x555 JUMPI PUSH4 0x4E487B71 PUSH1 0xE0 SHL PUSH1 0x0 MSTORE PUSH1 0x21 PUSH1 0x4 MSTORE PUSH1 0x24 PUSH1 0x0 REVERT JUMPDEST MUL OR SWAP1 SSTORE POP PUSH1 0x1 PUSH1 0x15 SLOAD PUSH1 0xFF AND PUSH1 0x2 DUP2 GT ISZERO PUSH3 0x582 JUMPI PUSH4 0x4E487B71 PUSH1 0xE0 SHL PUSH1 0x0 MSTORE PUSH1 0x21 PUSH1 0x4 MSTORE PUSH1 0x24 PUSH1 0x0 REVERT JUMPDEST EQ ISZERO PUSH3 0x5AB JUMPI PUSH1 0x15 SLOAD PUSH3 0x5A5 SWAP1 PUSH2 0x100 SWAP1 DIV PUSH1 0x1 PUSH1 0x1 PUSH1 0xA0 SHL SUB AND PUSH3 0x8E4 JUMP JUMPDEST PUSH3 0x608 JUMP JUMPDEST PUSH1 0x2 PUSH1 0x15 SLOAD PUSH1 0xFF AND PUSH1 0x2 DUP2 GT ISZERO PUSH3 0x5D3 JUMPI PUSH4 0x4E487B71 PUSH1 0xE0 SHL PUSH1 0x0 MSTORE PUSH1 0x21 PUSH1 0x4 MSTORE PUSH1 0x24 PUSH1 0x0 REVERT JUMPDEST EQ ISZERO PUSH3 0x5F1 JUMPI PUSH1 0x16 SLOAD PUSH3 0x5A5 SWAP1 PUSH1 0x1 PUSH1 0x1 PUSH1 0xA0 SHL SUB AND PUSH3 0x8E4 JUMP JUMPDEST PUSH1 0x17 SLOAD PUSH3 0x608 SWAP1 PUSH1 0x1 PUSH1 0x1 PUSH1 0xA0 SHL SUB AND PUSH3 0x8E4 JUMP JUMPDEST PUSH1 0x1A SWAP2 SWAP1 SWAP2 SSTORE PUSH1 0x1B SSTORE POP JUMP JUMPDEST PUSH1 0x1 PUSH1 0x1 PUSH1 0xA0 SHL SUB DUP4 AND PUSH3 0x684 JUMPI PUSH1 0x40 MLOAD PUSH3 0x461BCD PUSH1 0xE5 SHL DUP2 MSTORE PUSH1 0x20 PUSH1 0x4 DUP3 ADD MSTORE PUSH1 0x2B PUSH1 0x24 DUP3 ADD MSTORE PUSH32 0x42617365526669546F6B656E3A20617070726F76652066726F6D20746865207A PUSH1 0x44 DUP3 ADD MSTORE PUSH11 0x65726F2061646472657373 PUSH1 0xA8 SHL PUSH1 0x64 DUP3 ADD MSTORE PUSH1 0x84 ADD JUMPDEST PUSH1 0x40 MLOAD DUP1 SWAP2 SUB SWAP1 REVERT JUMPDEST PUSH1 0x1 PUSH1 0x1 PUSH1 0xA0 SHL SUB DUP3 AND PUSH3 0x6EE JUMPI PUSH1 0x40 MLOAD PUSH3 0x461BCD PUSH1 0xE5 SHL DUP2 MSTORE PUSH1 0x20 PUSH1 0x4 DUP3 ADD MSTORE PUSH1 0x29 PUSH1 0x24 DUP3 ADD MSTORE PUSH32 0x42617365526669546F6B656E3A20617070726F766520746F20746865207A6572 PUSH1 0x44 DUP3 ADD MSTORE PUSH9 0x6F2061646472657373 PUSH1 0xB8 SHL PUSH1 0x64 DUP3 ADD MSTORE PUSH1 0x84 ADD PUSH3 0x67B JUMP JUMPDEST PUSH1 0x1 PUSH1 0x1 PUSH1 0xA0 SHL SUB DUP4 DUP2 AND PUSH1 0x0 DUP2 DUP2 MSTORE PUSH1 0x10 PUSH1 0x20 SWAP1 DUP2 MSTORE PUSH1 0x40 DUP1 DUP4 KECCAK256 SWAP5 DUP8 AND DUP1 DUP5 MSTORE SWAP5 DUP3 MSTORE SWAP2 DUP3 SWAP1 KECCAK256 DUP6 SWAP1 SSTORE SWAP1 MLOAD DUP5 DUP2 MSTORE PUSH32 0x8C5BE1E5EBEC7D5BD14F71427D1E84F3DD0314C0F7B2291E5B200AC8C7C3B925 SWAP2 ADD PUSH1 0x40 MLOAD DUP1 SWAP2 SUB SWAP1 LOG3 POP POP POP JUMP JUMPDEST PUSH1 0xC PUSH1 0x40 MLOAD DUP1 PUSH1 0x80 ADD PUSH1 0x40 MSTORE DUP1 DUP6 PUSH1 0x5 DUP2 GT ISZERO PUSH3 0x77D JUMPI PUSH4 0x4E487B71 PUSH1 0xE0 SHL PUSH1 0x0 MSTORE PUSH1 0x21 PUSH1 0x4 MSTORE PUSH1 0x24 PUSH1 0x0 REVERT JUMPDEST DUP2 MSTORE PUSH1 0x20 DUP1 DUP3 ADD DUP7 SWAP1 MSTORE PUSH1 0x1 PUSH1 0x1 PUSH1 0xA0 SHL SUB DUP6 AND PUSH1 0x40 DUP4 ADD MSTORE PUSH1 0x0 PUSH1 0x60 SWAP1 SWAP3 ADD DUP3 SWAP1 MSTORE DUP4 SLOAD PUSH1 0x1 DUP2 DUP2 ADD DUP7 SSTORE SWAP5 DUP4 MSTORE SWAP2 KECCAK256 DUP3 MLOAD PUSH1 0x4 SWAP1 SWAP3 MUL ADD DUP1 SLOAD SWAP3 SWAP4 SWAP1 SWAP3 DUP4 SWAP2 PUSH1 0xFF NOT SWAP1 SWAP2 AND SWAP1 DUP4 PUSH1 0x5 DUP2 GT ISZERO PUSH3 0x7E6 JUMPI PUSH4 0x4E487B71 PUSH1 0xE0 SHL PUSH1 0x0 MSTORE PUSH1 0x21 PUSH1 0x4 MSTORE PUSH1 0x24 PUSH1 0x0 REVERT JUMPDEST MUL OR SWAP1 SSTORE POP PUSH1 0x20 DUP3 ADD MLOAD DUP2 PUSH1 0x1 ADD SSTORE PUSH1 0x40 DUP3 ADD MLOAD DUP2 PUSH1 0x2 ADD PUSH1 0x0 PUSH2 0x100 EXP DUP2 SLOAD DUP2 PUSH1 0x1 PUSH1 0x1 PUSH1 0xA0 SHL SUB MUL NOT AND SWAP1 DUP4 PUSH1 0x1 PUSH1 0x1 PUSH1 0xA0 SHL SUB AND MUL OR SWAP1 SSTORE POP PUSH1 0x60 DUP3 ADD MLOAD DUP2 PUSH1 0x3 ADD SSTORE POP POP DUP2 PUSH1 0xD PUSH1 0x0 DUP3 DUP3 SLOAD PUSH3 0x842 SWAP2 SWAP1 PUSH3 0xDAE JUMP JUMPDEST SWAP1 SWAP2 SSTORE POP POP POP POP POP JUMP JUMPDEST PUSH1 0x0 PUSH1 0x4 SLOAD DUP3 GT ISZERO PUSH3 0x8B5 JUMPI PUSH1 0x40 MLOAD PUSH3 0x461BCD PUSH1 0xE5 SHL DUP2 MSTORE PUSH1 0x20 PUSH1 0x4 DUP3 ADD MSTORE PUSH1 0x2A PUSH1 0x24 DUP3 ADD MSTORE PUSH32 0x416D6F756E74206D757374206265206C657373207468616E20746F74616C2072 PUSH1 0x44 DUP3 ADD MSTORE PUSH10 0x65666C656374696F6E73 PUSH1 0xB0 SHL PUSH1 0x64 DUP3 ADD MSTORE PUSH1 0x84 ADD PUSH3 0x67B JUMP JUMPDEST PUSH1 0x0 PUSH3 0x8C1 PUSH3 0xAC3 JUMP JUMPDEST SWAP1 POP PUSH3 0x8DD DUP2 DUP5 PUSH3 0xAF6 PUSH1 0x20 SHL PUSH3 0x155F OR SWAP1 SWAP2 SWAP1 PUSH1 0x20 SHR JUMP JUMPDEST SWAP4 SWAP3 POP POP POP JUMP JUMPDEST PUSH1 0x0 DUP2 SWAP1 POP DUP1 PUSH1 0x1 PUSH1 0x1 PUSH1 0xA0 SHL SUB AND PUSH4 0xC45A0155 PUSH1 0x40 MLOAD DUP2 PUSH4 0xFFFFFFFF AND PUSH1 0xE0 SHL DUP2 MSTORE PUSH1 0x4 ADD PUSH1 0x20 PUSH1 0x40 MLOAD DUP1 DUP4 SUB DUP2 DUP7 DUP1 EXTCODESIZE ISZERO DUP1 ISZERO PUSH3 0x923 JUMPI PUSH1 0x0 DUP1 REVERT JUMPDEST POP GAS STATICCALL ISZERO DUP1 ISZERO PUSH3 0x938 JUMPI RETURNDATASIZE PUSH1 0x0 DUP1 RETURNDATACOPY RETURNDATASIZE PUSH1 0x0 REVERT JUMPDEST POP POP POP POP PUSH1 0x40 MLOAD RETURNDATASIZE PUSH1 0x1F NOT PUSH1 0x1F DUP3 ADD AND DUP3 ADD DUP1 PUSH1 0x40 MSTORE POP DUP2 ADD SWAP1 PUSH3 0x95E SWAP2 SWAP1 PUSH3 0xD85 JUMP JUMPDEST PUSH1 0x1 PUSH1 0x1 PUSH1 0xA0 SHL SUB AND PUSH4 0xC9C65396 ADDRESS DUP4 PUSH1 0x1 PUSH1 0x1 PUSH1 0xA0 SHL SUB AND PUSH4 0xAD5C4648 PUSH1 0x40 MLOAD DUP2 PUSH4 0xFFFFFFFF AND PUSH1 0xE0 SHL DUP2 MSTORE PUSH1 0x4 ADD PUSH1 0x20 PUSH1 0x40 MLOAD DUP1 DUP4 SUB DUP2 DUP7 DUP1 EXTCODESIZE ISZERO DUP1 ISZERO PUSH3 0x9A7 JUMPI PUSH1 0x0 DUP1 REVERT JUMPDEST POP GAS STATICCALL ISZERO DUP1 ISZERO PUSH3 0x9BC JUMPI RETURNDATASIZE PUSH1 0x0 DUP1 RETURNDATACOPY RETURNDATASIZE PUSH1 0x0 REVERT JUMPDEST POP POP POP POP PUSH1 0x40 MLOAD RETURNDATASIZE PUSH1 0x1F NOT PUSH1 0x1F DUP3 ADD AND DUP3 ADD DUP1 PUSH1 0x40 MSTORE POP DUP2 ADD SWAP1 PUSH3 0x9E2 SWAP2 SWAP1 PUSH3 0xD85 JUMP JUMPDEST PUSH1 0x40 MLOAD PUSH1 0x1 PUSH1 0x1 PUSH1 0xE0 SHL SUB NOT PUSH1 0xE0 DUP6 SWAP1 SHL AND DUP2 MSTORE PUSH1 0x1 PUSH1 0x1 PUSH1 0xA0 SHL SUB SWAP3 DUP4 AND PUSH1 0x4 DUP3 ADD MSTORE SWAP2 AND PUSH1 0x24 DUP3 ADD MSTORE PUSH1 0x44 ADD PUSH1 0x20 PUSH1 0x40 MLOAD DUP1 DUP4 SUB DUP2 PUSH1 0x0 DUP8 DUP1 EXTCODESIZE ISZERO DUP1 ISZERO PUSH3 0xA2B JUMPI PUSH1 0x0 DUP1 REVERT JUMPDEST POP GAS CALL ISZERO DUP1 ISZERO PUSH3 0xA40 JUMPI RETURNDATASIZE PUSH1 0x0 DUP1 RETURNDATACOPY RETURNDATASIZE PUSH1 0x0 REVERT JUMPDEST POP POP POP POP PUSH1 0x40 MLOAD RETURNDATASIZE PUSH1 0x1F NOT PUSH1 0x1F DUP3 ADD AND DUP3 ADD DUP1 PUSH1 0x40 MSTORE POP DUP2 ADD SWAP1 PUSH3 0xA66 SWAP2 SWAP1 PUSH3 0xD85 JUMP JUMPDEST PUSH1 0x19 DUP1 SLOAD PUSH1 0x1 PUSH1 0x1 PUSH1 0xA0 SHL SUB NOT SWAP1 DUP2 AND PUSH1 0x1 PUSH1 0x1 PUSH1 0xA0 SHL SUB SWAP4 DUP5 AND OR SWAP1 SWAP2 SSTORE PUSH1 0x18 DUP1 SLOAD SWAP1 SWAP2 AND DUP4 DUP4 AND OR SWAP1 SSTORE PUSH1 0x40 MLOAD SWAP1 DUP4 AND SWAP1 PUSH32 0xC6B438E6A8A59579CE6A4406CBD203B740E0D47B458AAE6596339BCD40C40D15 SWAP1 PUSH1 0x0 SWAP1 LOG2 POP POP JUMP JUMPDEST PUSH1 0x0 DUP1 DUP1 PUSH3 0xAD1 PUSH3 0xB0D JUMP JUMPDEST SWAP2 POP SWAP2 POP PUSH3 0xAEF DUP2 DUP4 PUSH3 0xAF6 PUSH1 0x20 SHL PUSH3 0x155F OR SWAP1 SWAP2 SWAP1 PUSH1 0x20 SHR JUMP JUMPDEST SWAP3 POP POP POP SWAP1 JUMP JUMPDEST PUSH1 0x0 PUSH3 0xB04 DUP3 DUP5 PUSH3 0xDC9 JUMP JUMPDEST SWAP1 POP JUMPDEST SWAP3 SWAP2 POP POP JUMP JUMPDEST PUSH1 0x4 SLOAD PUSH1 0x0 SWAP1 DUP2 SWAP1 DUP2 PUSH3 0xB24 PUSH1 0x9 PUSH1 0xA PUSH3 0xE29 JUMP JUMPDEST PUSH3 0xB34 SWAP1 PUSH4 0x1C9C380 PUSH3 0xEE8 JUMP JUMPDEST SWAP1 POP PUSH1 0x0 JUMPDEST PUSH1 0x13 SLOAD DUP2 LT ISZERO PUSH3 0xCF7 JUMPI DUP3 PUSH1 0xE PUSH1 0x0 PUSH1 0x13 DUP5 DUP2 SLOAD DUP2 LT PUSH3 0xB6B JUMPI PUSH4 0x4E487B71 PUSH1 0xE0 SHL PUSH1 0x0 MSTORE PUSH1 0x32 PUSH1 0x4 MSTORE PUSH1 0x24 PUSH1 0x0 REVERT JUMPDEST PUSH1 0x0 SWAP2 DUP3 MSTORE PUSH1 0x20 DUP1 DUP4 KECCAK256 SWAP1 SWAP2 ADD SLOAD PUSH1 0x1 PUSH1 0x1 PUSH1 0xA0 SHL SUB AND DUP4 MSTORE DUP3 ADD SWAP3 SWAP1 SWAP3 MSTORE PUSH1 0x40 ADD SWAP1 KECCAK256 SLOAD GT DUP1 PUSH3 0xBE6 JUMPI POP DUP2 PUSH1 0xF PUSH1 0x0 PUSH1 0x13 DUP5 DUP2 SLOAD DUP2 LT PUSH3 0xBBF JUMPI PUSH4 0x4E487B71 PUSH1 0xE0 SHL PUSH1 0x0 MSTORE PUSH1 0x32 PUSH1 0x4 MSTORE PUSH1 0x24 PUSH1 0x0 REVERT JUMPDEST PUSH1 0x0 SWAP2 DUP3 MSTORE PUSH1 0x20 DUP1 DUP4 KECCAK256 SWAP1 SWAP2 ADD SLOAD PUSH1 0x1 PUSH1 0x1 PUSH1 0xA0 SHL SUB AND DUP4 MSTORE DUP3 ADD SWAP3 SWAP1 SWAP3 MSTORE PUSH1 0x40 ADD SWAP1 KECCAK256 SLOAD GT JUMPDEST ISZERO PUSH3 0xC18 JUMPI PUSH1 0x4 SLOAD PUSH3 0xBFD PUSH1 0x9 PUSH1 0xA PUSH3 0xE29 JUMP JUMPDEST PUSH3 0xC0D SWAP1 PUSH4 0x1C9C380 PUSH3 0xEE8 JUMP JUMPDEST SWAP5 POP SWAP5 POP POP POP POP SWAP1 SWAP2 JUMP JUMPDEST PUSH3 0xC7B PUSH1 0xE PUSH1 0x0 PUSH1 0x13 DUP5 DUP2 SLOAD DUP2 LT PUSH3 0xC42 JUMPI PUSH4 0x4E487B71 PUSH1 0xE0 SHL PUSH1 0x0 MSTORE PUSH1 0x32 PUSH1 0x4 MSTORE PUSH1 0x24 PUSH1 0x0 REVERT JUMPDEST PUSH1 0x0 SWAP2 DUP3 MSTORE PUSH1 0x20 DUP1 DUP4 KECCAK256 SWAP1 SWAP2 ADD SLOAD PUSH1 0x1 PUSH1 0x1 PUSH1 0xA0 SHL SUB AND DUP4 MSTORE DUP3 DUP2 ADD SWAP4 SWAP1 SWAP4 MSTORE PUSH1 0x40 SWAP1 SWAP2 ADD SWAP1 KECCAK256 SLOAD DUP6 SWAP2 PUSH3 0x1572 PUSH3 0xD77 DUP3 SHL OR SWAP1 SHR JUMP JUMPDEST SWAP3 POP PUSH3 0xCE0 PUSH1 0xF PUSH1 0x0 PUSH1 0x13 DUP5 DUP2 SLOAD DUP2 LT PUSH3 0xCA7 JUMPI PUSH4 0x4E487B71 PUSH1 0xE0 SHL PUSH1 0x0 MSTORE PUSH1 0x32 PUSH1 0x4 MSTORE PUSH1 0x24 PUSH1 0x0 REVERT JUMPDEST PUSH1 0x0 SWAP2 DUP3 MSTORE PUSH1 0x20 DUP1 DUP4 KECCAK256 SWAP1 SWAP2 ADD SLOAD PUSH1 0x1 PUSH1 0x1 PUSH1 0xA0 SHL SUB AND DUP4 MSTORE DUP3 DUP2 ADD SWAP4 SWAP1 SWAP4 MSTORE PUSH1 0x40 SWAP1 SWAP2 ADD SWAP1 KECCAK256 SLOAD DUP5 SWAP2 PUSH3 0x1572 PUSH3 0xD77 DUP3 SHL OR SWAP1 SHR JUMP JUMPDEST SWAP2 POP DUP1 PUSH3 0xCEE DUP2 PUSH3 0xF24 JUMP JUMPDEST SWAP2 POP POP PUSH3 0xB39 JUMP JUMPDEST POP DUP1 ISZERO DUP1 PUSH3 0xD3D JUMPI POP PUSH3 0xD3A PUSH3 0xD13 PUSH1 0x9 PUSH1 0xA PUSH3 0xE29 JUMP JUMPDEST PUSH3 0xD23 SWAP1 PUSH4 0x1C9C380 PUSH3 0xEE8 JUMP JUMPDEST PUSH1 0x4 SLOAD PUSH3 0xAF6 PUSH1 0x20 SHL PUSH3 0x155F OR SWAP1 SWAP2 SWAP1 PUSH1 0x20 SHR JUMP JUMPDEST DUP3 LT JUMPDEST ISZERO PUSH3 0xD6E JUMPI PUSH1 0x4 SLOAD PUSH3 0xD54 PUSH1 0x9 PUSH1 0xA PUSH3 0xE29 JUMP JUMPDEST PUSH3 0xD64 SWAP1 PUSH4 0x1C9C380 PUSH3 0xEE8 JUMP JUMPDEST SWAP4 POP SWAP4 POP POP POP SWAP1 SWAP2 JUMP JUMPDEST SWAP1 SWAP4 SWAP1 SWAP3 POP SWAP1 POP JUMP JUMPDEST PUSH1 0x0 PUSH3 0xB04 DUP3 DUP5 PUSH3 0xF0A JUMP JUMPDEST PUSH1 0x0 PUSH1 0x20 DUP3 DUP5 SUB SLT ISZERO PUSH3 0xD97 JUMPI DUP1 DUP2 REVERT JUMPDEST DUP2 MLOAD PUSH1 0x1 PUSH1 0x1 PUSH1 0xA0 SHL SUB DUP2 AND DUP2 EQ PUSH3 0x8DD JUMPI DUP2 DUP3 REVERT JUMPDEST PUSH1 0x0 DUP3 NOT DUP3 GT ISZERO PUSH3 0xDC4 JUMPI PUSH3 0xDC4 PUSH3 0xF59 JUMP JUMPDEST POP ADD SWAP1 JUMP JUMPDEST PUSH1 0x0 DUP3 PUSH3 0xDDB JUMPI PUSH3 0xDDB PUSH3 0xF6F JUMP JUMPDEST POP DIV SWAP1 JUMP JUMPDEST PUSH1 0x1 DUP2 DUP2 JUMPDEST DUP1 DUP6 GT ISZERO PUSH3 0xE21 JUMPI DUP2 PUSH1 0x0 NOT DIV DUP3 GT ISZERO PUSH3 0xE05 JUMPI PUSH3 0xE05 PUSH3 0xF59 JUMP JUMPDEST DUP1 DUP6 AND ISZERO PUSH3 0xE13 JUMPI SWAP2 DUP2 MUL SWAP2 JUMPDEST SWAP4 DUP5 SHR SWAP4 SWAP1 DUP1 MUL SWAP1 PUSH3 0xDE5 JUMP JUMPDEST POP SWAP3 POP SWAP3 SWAP1 POP JUMP JUMPDEST PUSH1 0x0 PUSH3 0xB04 PUSH1 0xFF DUP5 AND DUP4 PUSH1 0x0 DUP3 PUSH3 0xE45 JUMPI POP PUSH1 0x1 PUSH3 0xB07 JUMP JUMPDEST DUP2 PUSH3 0xE54 JUMPI POP PUSH1 0x0 PUSH3 0xB07 JUMP JUMPDEST DUP2 PUSH1 0x1 DUP2 EQ PUSH3 0xE6D JUMPI PUSH1 0x2 DUP2 EQ PUSH3 0xE78 JUMPI PUSH3 0xE98 JUMP JUMPDEST PUSH1 0x1 SWAP2 POP POP PUSH3 0xB07 JUMP JUMPDEST PUSH1 0xFF DUP5 GT ISZERO PUSH3 0xE8C JUMPI PUSH3 0xE8C PUSH3 0xF59 JUMP JUMPDEST POP POP PUSH1 0x1 DUP3 SHL PUSH3 0xB07 JUMP JUMPDEST POP PUSH1 0x20 DUP4 LT PUSH2 0x133 DUP4 LT AND PUSH1 0x4E DUP5 LT PUSH1 0xB DUP5 LT AND OR ISZERO PUSH3 0xEBD JUMPI POP DUP2 DUP2 EXP PUSH3 0xB07 JUMP JUMPDEST PUSH3 0xEC9 DUP4 DUP4 PUSH3 0xDE0 JUMP JUMPDEST DUP1 PUSH1 0x0 NOT DIV DUP3 GT ISZERO PUSH3 0xEE0 JUMPI PUSH3 0xEE0 PUSH3 0xF59 JUMP JUMPDEST MUL SWAP4 SWAP3 POP POP POP JUMP JUMPDEST PUSH1 0x0 DUP2 PUSH1 0x0 NOT DIV DUP4 GT DUP3 ISZERO ISZERO AND ISZERO PUSH3 0xF05 JUMPI PUSH3 0xF05 PUSH3 0xF59 JUMP JUMPDEST POP MUL SWAP1 JUMP JUMPDEST PUSH1 0x0 DUP3 DUP3 LT ISZERO PUSH3 0xF1F JUMPI PUSH3 0xF1F PUSH3 0xF59 JUMP JUMPDEST POP SUB SWAP1 JUMP JUMPDEST PUSH1 0x0 PUSH1 0x0 NOT DUP3 EQ ISZERO PUSH3 0xF3B JUMPI PUSH3 0xF3B PUSH3 0xF59 JUMP JUMPDEST POP PUSH1 0x1 ADD SWAP1 JUMP JUMPDEST PUSH1 0x0 DUP3 PUSH3 0xF54 JUMPI PUSH3 0xF54 PUSH3 0xF6F JUMP JUMPDEST POP MOD SWAP1 JUMP JUMPDEST PUSH4 0x4E487B71 PUSH1 0xE0 SHL PUSH1 0x0 MSTORE PUSH1 0x11 PUSH1 0x4 MSTORE PUSH1 0x24 PUSH1 0x0 REVERT JUMPDEST PUSH4 0x4E487B71 PUSH1 0xE0 SHL PUSH1 0x0 MSTORE PUSH1 0x12 PUSH1 0x4 MSTORE PUSH1 0x24 PUSH1 0x0 REVERT JUMPDEST PUSH2 0x3387 DUP1 PUSH3 0xF95 PUSH1 0x0 CODECOPY PUSH1 0x0 RETURN INVALID PUSH1 0x80 PUSH1 0x40 MSTORE PUSH1 0x4 CALLDATASIZE LT PUSH2 0x255 JUMPI PUSH1 0x0 CALLDATALOAD PUSH1 0xE0 SHR DUP1 PUSH4 0x6612E66F GT PUSH2 0x139 JUMPI DUP1 PUSH4 0xA5727E78 GT PUSH2 0xB6 JUMPI DUP1 PUSH4 0xD5633204 GT PUSH2 0x7A JUMPI DUP1 PUSH4 0xD5633204 EQ PUSH2 0x6C9 JUMPI DUP1 PUSH4 0xDD467064 EQ PUSH2 0x6E9 JUMPI DUP1 PUSH4 0xDD62ED3E EQ PUSH2 0x709 JUMPI DUP1 PUSH4 0xE4EDF852 EQ PUSH2 0x74F JUMPI DUP1 PUSH4 0xE7BC1EED EQ PUSH2 0x76F JUMPI DUP1 PUSH4 0xF2FDE38B EQ PUSH2 0x784 JUMPI PUSH1 0x0 DUP1 REVERT JUMPDEST DUP1 PUSH4 0xA5727E78 EQ PUSH2 0x63F JUMPI DUP1 PUSH4 0xA69DF4B5 EQ PUSH2 0x654 JUMPI DUP1 PUSH4 0xA9059CBB EQ PUSH2 0x669 JUMPI DUP1 PUSH4 0xB7671A0D EQ PUSH2 0x689 JUMPI DUP1 PUSH4 0xC49B9A80 EQ PUSH2 0x6A9 JUMPI PUSH1 0x0 DUP1 REVERT JUMPDEST DUP1 PUSH4 0x79053441 GT PUSH2 0xFD JUMPI DUP1 PUSH4 0x79053441 EQ PUSH2 0x5A8 JUMPI DUP1 PUSH4 0x88F82020 EQ PUSH2 0x5C8 JUMPI DUP1 PUSH4 0x8DA5CB5B EQ PUSH2 0x601 JUMPI DUP1 PUSH4 0x95D89B41 EQ PUSH2 0x261 JUMPI DUP1 PUSH4 0xA457C2D7 EQ PUSH2 0x61F JUMPI PUSH1 0x0 DUP1 REVERT JUMPDEST DUP1 PUSH4 0x6612E66F EQ PUSH2 0x51E JUMPI DUP1 PUSH4 0x70A08231 EQ PUSH2 0x53E JUMPI DUP1 PUSH4 0x715018A6 EQ PUSH2 0x55E JUMPI DUP1 PUSH4 0x737C0DD2 EQ PUSH2 0x573 JUMPI DUP1 PUSH4 0x74778CDC EQ PUSH2 0x588 JUMPI PUSH1 0x0 DUP1 REVERT JUMPDEST DUP1 PUSH4 0x39509351 GT PUSH2 0x1D2 JUMPI DUP1 PUSH4 0x481C6A75 GT PUSH2 0x196 JUMPI DUP1 PUSH4 0x481C6A75 EQ PUSH2 0x449 JUMPI DUP1 PUSH4 0x51FC9F7A EQ PUSH2 0x47B JUMPI DUP1 PUSH4 0x52390C02 EQ PUSH2 0x490 JUMPI DUP1 PUSH4 0x5342ACB4 EQ PUSH2 0x4B0 JUMPI DUP1 PUSH4 0x5B23748D EQ PUSH2 0x4E9 JUMPI DUP1 PUSH4 0x602BC62B EQ PUSH2 0x509 JUMPI PUSH1 0x0 DUP1 REVERT JUMPDEST DUP1 PUSH4 0x39509351 EQ PUSH2 0x3A9 JUMPI DUP1 PUSH4 0x3A9E00DE EQ PUSH2 0x3C9 JUMPI DUP1 PUSH4 0x41CB87FC EQ PUSH2 0x3E9 JUMPI DUP1 PUSH4 0x42966C68 EQ PUSH2 0x409 JUMPI DUP1 PUSH4 0x4549B039 EQ PUSH2 0x429 JUMPI PUSH1 0x0 DUP1 REVERT JUMPDEST DUP1 PUSH4 0x23B872DD GT PUSH2 0x219 JUMPI DUP1 PUSH4 0x23B872DD EQ PUSH2 0x313 JUMPI DUP1 PUSH4 0x306D0AB3 EQ PUSH2 0x333 JUMPI DUP1 PUSH4 0x313CE567 EQ PUSH2 0x355 JUMPI DUP1 PUSH4 0x31F0A03C EQ PUSH2 0x371 JUMPI DUP1 PUSH4 0x3685D419 EQ PUSH2 0x389 JUMPI PUSH1 0x0 DUP1 REVERT JUMPDEST DUP1 PUSH4 0x6FDDE03 EQ PUSH2 0x261 JUMPI DUP1 PUSH4 0x95EA7B3 EQ PUSH2 0x2A0 JUMPI DUP1 PUSH4 0xDDCFE8E EQ PUSH2 0x2D0 JUMPI DUP1 PUSH4 0x18160DDD EQ PUSH2 0x2FE JUMPI DUP1 PUSH4 0x2181432F EQ PUSH2 0x2D0 JUMPI PUSH1 0x0 DUP1 REVERT JUMPDEST CALLDATASIZE PUSH2 0x25C JUMPI STOP JUMPDEST PUSH1 0x0 DUP1 REVERT JUMPDEST CALLVALUE DUP1 ISZERO PUSH2 0x26D JUMPI PUSH1 0x0 DUP1 REVERT JUMPDEST POP PUSH1 0x40 DUP1 MLOAD DUP1 DUP3 ADD DUP3 MSTORE PUSH1 0x7 DUP2 MSTORE PUSH7 0x54525553544D45 PUSH1 0xC8 SHL PUSH1 0x20 DUP3 ADD MSTORE SWAP1 MLOAD PUSH2 0x297 SWAP2 SWAP1 PUSH2 0x3005 JUMP JUMPDEST PUSH1 0x40 MLOAD DUP1 SWAP2 SUB SWAP1 RETURN JUMPDEST CALLVALUE DUP1 ISZERO PUSH2 0x2AC JUMPI PUSH1 0x0 DUP1 REVERT JUMPDEST POP PUSH2 0x2C0 PUSH2 0x2BB CALLDATASIZE PUSH1 0x4 PUSH2 0x2F59 JUMP JUMPDEST PUSH2 0x7A4 JUMP JUMPDEST PUSH1 0x40 MLOAD SWAP1 ISZERO ISZERO DUP2 MSTORE PUSH1 0x20 ADD PUSH2 0x297 JUMP JUMPDEST CALLVALUE DUP1 ISZERO PUSH2 0x2DC JUMPI PUSH1 0x0 DUP1 REVERT JUMPDEST POP PUSH2 0x2F0 PUSH2 0x2EB CALLDATASIZE PUSH1 0x4 PUSH2 0x2E75 JUMP JUMPDEST PUSH2 0x7BB JUMP JUMPDEST PUSH1 0x40 MLOAD SWAP1 DUP2 MSTORE PUSH1 0x20 ADD PUSH2 0x297 JUMP JUMPDEST CALLVALUE DUP1 ISZERO PUSH2 0x30A JUMPI PUSH1 0x0 DUP1 REVERT JUMPDEST POP PUSH2 0x2F0 PUSH2 0x7D9 JUMP JUMPDEST CALLVALUE DUP1 ISZERO PUSH2 0x31F JUMPI PUSH1 0x0 DUP1 REVERT JUMPDEST POP PUSH2 0x2C0 PUSH2 0x32E CALLDATASIZE PUSH1 0x4 PUSH2 0x2EE5 JUMP JUMPDEST PUSH2 0x7FA JUMP JUMPDEST CALLVALUE DUP1 ISZERO PUSH2 0x33F JUMPI PUSH1 0x0 DUP1 REVERT JUMPDEST POP PUSH2 0x353 PUSH2 0x34E CALLDATASIZE PUSH1 0x4 PUSH2 0x2F84 JUMP JUMPDEST PUSH2 0x863 JUMP JUMPDEST STOP JUMPDEST CALLVALUE DUP1 ISZERO PUSH2 0x361 JUMPI PUSH1 0x0 DUP1 REVERT JUMPDEST POP PUSH1 0x40 MLOAD PUSH1 0x9 DUP2 MSTORE PUSH1 0x20 ADD PUSH2 0x297 JUMP JUMPDEST CALLVALUE DUP1 ISZERO PUSH2 0x37D JUMPI PUSH1 0x0 DUP1 REVERT JUMPDEST POP PUSH1 0x7 SLOAD PUSH1 0xFF AND PUSH2 0x2C0 JUMP JUMPDEST CALLVALUE DUP1 ISZERO PUSH2 0x395 JUMPI PUSH1 0x0 DUP1 REVERT JUMPDEST POP PUSH2 0x353 PUSH2 0x3A4 CALLDATASIZE PUSH1 0x4 PUSH2 0x2E75 JUMP JUMPDEST PUSH2 0x8A9 JUMP JUMPDEST CALLVALUE DUP1 ISZERO PUSH2 0x3B5 JUMPI PUSH1 0x0 DUP1 REVERT JUMPDEST POP PUSH2 0x2C0 PUSH2 0x3C4 CALLDATASIZE PUSH1 0x4 PUSH2 0x2F59 JUMP JUMPDEST PUSH2 0xA98 JUMP JUMPDEST CALLVALUE DUP1 ISZERO PUSH2 0x3D5 JUMPI PUSH1 0x0 DUP1 REVERT JUMPDEST POP PUSH2 0x353 PUSH2 0x3E4 CALLDATASIZE PUSH1 0x4 PUSH2 0x2F9E JUMP JUMPDEST PUSH2 0xACE JUMP JUMPDEST CALLVALUE DUP1 ISZERO PUSH2 0x3F5 JUMPI PUSH1 0x0 DUP1 REVERT JUMPDEST POP PUSH2 0x353 PUSH2 0x404 CALLDATASIZE PUSH1 0x4 PUSH2 0x2E75 JUMP JUMPDEST PUSH2 0xAFD JUMP JUMPDEST CALLVALUE DUP1 ISZERO PUSH2 0x415 JUMPI PUSH1 0x0 DUP1 REVERT JUMPDEST POP PUSH2 0x353 PUSH2 0x424 CALLDATASIZE PUSH1 0x4 PUSH2 0x2F9E JUMP JUMPDEST PUSH2 0xB33 JUMP JUMPDEST CALLVALUE DUP1 ISZERO PUSH2 0x435 JUMPI PUSH1 0x0 DUP1 REVERT JUMPDEST POP PUSH2 0x2F0 PUSH2 0x444 CALLDATASIZE PUSH1 0x4 PUSH2 0x2FB6 JUMP JUMPDEST PUSH2 0xD25 JUMP JUMPDEST CALLVALUE DUP1 ISZERO PUSH2 0x455 JUMPI PUSH1 0x0 DUP1 REVERT JUMPDEST POP PUSH1 0x3 SLOAD PUSH1 0x1 PUSH1 0x1 PUSH1 0xA0 SHL SUB AND JUMPDEST PUSH1 0x40 MLOAD PUSH1 0x1 PUSH1 0x1 PUSH1 0xA0 SHL SUB SWAP1 SWAP2 AND DUP2 MSTORE PUSH1 0x20 ADD PUSH2 0x297 JUMP JUMPDEST CALLVALUE DUP1 ISZERO PUSH2 0x487 JUMPI PUSH1 0x0 DUP1 REVERT JUMPDEST POP PUSH1 0x9 SLOAD PUSH2 0x2F0 JUMP JUMPDEST CALLVALUE DUP1 ISZERO PUSH2 0x49C JUMPI PUSH1 0x0 DUP1 REVERT JUMPDEST POP PUSH2 0x353 PUSH2 0x4AB CALLDATASIZE PUSH1 0x4 PUSH2 0x2E75 JUMP JUMPDEST PUSH2 0xDD3 JUMP JUMPDEST CALLVALUE DUP1 ISZERO PUSH2 0x4BC JUMPI PUSH1 0x0 DUP1 REVERT JUMPDEST POP PUSH2 0x2C0 PUSH2 0x4CB CALLDATASIZE PUSH1 0x4 PUSH2 0x2E75 JUMP JUMPDEST PUSH1 0x1 PUSH1 0x1 PUSH1 0xA0 SHL SUB AND PUSH1 0x0 SWAP1 DUP2 MSTORE PUSH1 0x11 PUSH1 0x20 MSTORE PUSH1 0x40 SWAP1 KECCAK256 SLOAD PUSH1 0xFF AND SWAP1 JUMP JUMPDEST CALLVALUE DUP1 ISZERO PUSH2 0x4F5 JUMPI PUSH1 0x0 DUP1 REVERT JUMPDEST POP PUSH2 0x353 PUSH2 0x504 CALLDATASIZE PUSH1 0x4 PUSH2 0x2F9E JUMP JUMPDEST PUSH2 0xE6F JUMP JUMPDEST CALLVALUE DUP1 ISZERO PUSH2 0x515 JUMPI PUSH1 0x0 DUP1 REVERT JUMPDEST POP PUSH1 0x2 SLOAD PUSH2 0x2F0 JUMP JUMPDEST CALLVALUE DUP1 ISZERO PUSH2 0x52A JUMPI PUSH1 0x0 DUP1 REVERT JUMPDEST POP PUSH2 0x353 PUSH2 0x539 CALLDATASIZE PUSH1 0x4 PUSH2 0x2F25 JUMP JUMPDEST PUSH2 0xE9E JUMP JUMPDEST CALLVALUE DUP1 ISZERO PUSH2 0x54A JUMPI PUSH1 0x0 DUP1 REVERT JUMPDEST POP PUSH2 0x2F0 PUSH2 0x559 CALLDATASIZE PUSH1 0x4 PUSH2 0x2E75 JUMP JUMPDEST PUSH2 0xEF3 JUMP JUMPDEST CALLVALUE DUP1 ISZERO PUSH2 0x56A JUMPI PUSH1 0x0 DUP1 REVERT JUMPDEST POP PUSH2 0x353 PUSH2 0xF52 JUMP JUMPDEST CALLVALUE DUP1 ISZERO PUSH2 0x57F JUMPI PUSH1 0x0 DUP1 REVERT JUMPDEST POP PUSH1 0x5 SLOAD PUSH2 0x2F0 JUMP JUMPDEST CALLVALUE DUP1 ISZERO PUSH2 0x594 JUMPI PUSH1 0x0 DUP1 REVERT JUMPDEST POP PUSH2 0x353 PUSH2 0x5A3 CALLDATASIZE PUSH1 0x4 PUSH2 0x2F84 JUMP JUMPDEST PUSH2 0xFB4 JUMP JUMPDEST CALLVALUE DUP1 ISZERO PUSH2 0x5B4 JUMPI PUSH1 0x0 DUP1 REVERT JUMPDEST POP PUSH2 0x353 PUSH2 0x5C3 CALLDATASIZE PUSH1 0x4 PUSH2 0x2F9E JUMP JUMPDEST PUSH2 0xFFC JUMP JUMPDEST CALLVALUE DUP1 ISZERO PUSH2 0x5D4 JUMPI PUSH1 0x0 DUP1 REVERT JUMPDEST POP PUSH2 0x2C0 PUSH2 0x5E3 CALLDATASIZE PUSH1 0x4 PUSH2 0x2E75 JUMP JUMPDEST PUSH1 0x1 PUSH1 0x1 PUSH1 0xA0 SHL SUB AND PUSH1 0x0 SWAP1 DUP2 MSTORE PUSH1 0x12 PUSH1 0x20 MSTORE PUSH1 0x40 SWAP1 KECCAK256 SLOAD PUSH1 0xFF AND SWAP1 JUMP JUMPDEST CALLVALUE DUP1 ISZERO PUSH2 0x60D JUMPI PUSH1 0x0 DUP1 REVERT JUMPDEST POP PUSH1 0x0 SLOAD PUSH1 0x1 PUSH1 0x1 PUSH1 0xA0 SHL SUB AND PUSH2 0x463 JUMP JUMPDEST CALLVALUE DUP1 ISZERO PUSH2 0x62B JUMPI PUSH1 0x0 DUP1 REVERT JUMPDEST POP PUSH2 0x2C0 PUSH2 0x63A CALLDATASIZE PUSH1 0x4 PUSH2 0x2F59 JUMP JUMPDEST PUSH2 0x102B JUMP JUMPDEST CALLVALUE DUP1 ISZERO PUSH2 0x64B JUMPI PUSH1 0x0 DUP1 REVERT JUMPDEST POP PUSH1 0x8 SLOAD PUSH2 0x2F0 JUMP JUMPDEST CALLVALUE DUP1 ISZERO PUSH2 0x660 JUMPI PUSH1 0x0 DUP1 REVERT JUMPDEST POP PUSH2 0x353 PUSH2 0x107A JUMP JUMPDEST CALLVALUE DUP1 ISZERO PUSH2 0x675 JUMPI PUSH1 0x0 DUP1 REVERT JUMPDEST POP PUSH2 0x2C0 PUSH2 0x684 CALLDATASIZE PUSH1 0x4 PUSH2 0x2F59 JUMP JUMPDEST PUSH2 0x1189 JUMP JUMPDEST CALLVALUE DUP1 ISZERO PUSH2 0x695 JUMPI PUSH1 0x0 DUP1 REVERT JUMPDEST POP PUSH2 0x353 PUSH2 0x6A4 CALLDATASIZE PUSH1 0x4 PUSH2 0x2E75 JUMP JUMPDEST PUSH2 0x1196 JUMP JUMPDEST CALLVALUE DUP1 ISZERO PUSH2 0x6B5 JUMPI PUSH1 0x0 DUP1 REVERT JUMPDEST POP PUSH2 0x353 PUSH2 0x6C4 CALLDATASIZE PUSH1 0x4 PUSH2 0x2F84 JUMP JUMPDEST PUSH2 0x12D9 JUMP JUMPDEST CALLVALUE DUP1 ISZERO PUSH2 0x6D5 JUMPI PUSH1 0x0 DUP1 REVERT JUMPDEST POP PUSH2 0x2F0 PUSH2 0x6E4 CALLDATASIZE PUSH1 0x4 PUSH2 0x2E75 JUMP JUMPDEST PUSH2 0x135E JUMP JUMPDEST CALLVALUE DUP1 ISZERO PUSH2 0x6F5 JUMPI PUSH1 0x0 DUP1 REVERT JUMPDEST POP PUSH2 0x353 PUSH2 0x704 CALLDATASIZE PUSH1 0x4 PUSH2 0x2F9E JUMP JUMPDEST PUSH2 0x137C JUMP JUMPDEST CALLVALUE DUP1 ISZERO PUSH2 0x715 JUMPI PUSH1 0x0 DUP1 REVERT JUMPDEST POP PUSH2 0x2F0 PUSH2 0x724 CALLDATASIZE PUSH1 0x4 PUSH2 0x2EAD JUMP JUMPDEST PUSH1 0x1 PUSH1 0x1 PUSH1 0xA0 SHL SUB SWAP2 DUP3 AND PUSH1 0x0 SWAP1 DUP2 MSTORE PUSH1 0x10 PUSH1 0x20 SWAP1 DUP2 MSTORE PUSH1 0x40 DUP1 DUP4 KECCAK256 SWAP4 SWAP1 SWAP5 AND DUP3 MSTORE SWAP2 SWAP1 SWAP2 MSTORE KECCAK256 SLOAD SWAP1 JUMP JUMPDEST CALLVALUE DUP1 ISZERO PUSH2 0x75B JUMPI PUSH1 0x0 DUP1 REVERT JUMPDEST POP PUSH2 0x353 PUSH2 0x76A CALLDATASIZE PUSH1 0x4 PUSH2 0x2E75 JUMP JUMPDEST PUSH2 0x1401 JUMP JUMPDEST CALLVALUE DUP1 ISZERO PUSH2 0x77B JUMPI PUSH1 0x0 DUP1 REVERT JUMPDEST POP PUSH1 0x6 SLOAD PUSH2 0x2F0 JUMP JUMPDEST CALLVALUE DUP1 ISZERO PUSH2 0x790 JUMPI PUSH1 0x0 DUP1 REVERT JUMPDEST POP PUSH2 0x353 PUSH2 0x79F CALLDATASIZE PUSH1 0x4 PUSH2 0x2E75 JUMP JUMPDEST PUSH2 0x1487 JUMP JUMPDEST PUSH1 0x0 PUSH2 0x7B1 CALLER DUP5 DUP5 PUSH2 0x157E JUMP JUMPDEST POP PUSH1 0x1 JUMPDEST SWAP3 SWAP2 POP POP JUMP JUMPDEST PUSH1 0x1 PUSH1 0x1 PUSH1 0xA0 SHL SUB DUP2 AND PUSH1 0x0 SWAP1 DUP2 MSTORE PUSH1 0x1C PUSH1 0x20 MSTORE PUSH1 0x40 DUP2 KECCAK256 SLOAD PUSH2 0x7B5 JUMP JUMPDEST PUSH1 0x0 PUSH2 0x7E7 PUSH1 0x9 PUSH1 0xA PUSH2 0x31BD JUMP JUMPDEST PUSH2 0x7F5 SWAP1 PUSH4 0x1C9C380 PUSH2 0x3268 JUMP JUMPDEST SWAP1 POP SWAP1 JUMP JUMPDEST PUSH1 0x0 PUSH2 0x807 DUP5 DUP5 DUP5 PUSH2 0x16B2 JUMP JUMPDEST PUSH2 0x859 DUP5 CALLER PUSH2 0x854 DUP6 PUSH1 0x40 MLOAD DUP1 PUSH1 0x60 ADD PUSH1 0x40 MSTORE DUP1 PUSH1 0x28 DUP2 MSTORE PUSH1 0x20 ADD PUSH2 0x32E5 PUSH1 0x28 SWAP2 CODECOPY PUSH1 0x1 PUSH1 0x1 PUSH1 0xA0 SHL SUB DUP11 AND PUSH1 0x0 SWAP1 DUP2 MSTORE PUSH1 0x10 PUSH1 0x20 SWAP1 DUP2 MSTORE PUSH1 0x40 DUP1 DUP4 KECCAK256 CALLER DUP5 MSTORE SWAP1 SWAP2 MSTORE SWAP1 KECCAK256 SLOAD SWAP2 SWAP1 PUSH2 0x1BE8 JUMP JUMPDEST PUSH2 0x157E JUMP JUMPDEST POP PUSH1 0x1 SWAP4 SWAP3 POP POP POP JUMP JUMPDEST PUSH1 0x3 SLOAD PUSH1 0x1 PUSH1 0x1 PUSH1 0xA0 SHL SUB AND CALLER EQ PUSH2 0x896 JUMPI PUSH1 0x40 MLOAD PUSH3 0x461BCD PUSH1 0xE5 SHL DUP2 MSTORE PUSH1 0x4 ADD PUSH2 0x88D SWAP1 PUSH2 0x308D JUMP JUMPDEST PUSH1 0x40 MLOAD DUP1 SWAP2 SUB SWAP1 REVERT JUMPDEST PUSH1 0x7 DUP1 SLOAD PUSH1 0xFF NOT AND SWAP2 ISZERO ISZERO SWAP2 SWAP1 SWAP2 OR SWAP1 SSTORE JUMP JUMPDEST PUSH1 0x0 SLOAD PUSH1 0x1 PUSH1 0x1 PUSH1 0xA0 SHL SUB AND CALLER EQ PUSH2 0x8D3 JUMPI PUSH1 0x40 MLOAD PUSH3 0x461BCD PUSH1 0xE5 SHL DUP2 MSTORE PUSH1 0x4 ADD PUSH2 0x88D SWAP1 PUSH2 0x3058 JUMP JUMPDEST PUSH1 0x1 PUSH1 0x1 PUSH1 0xA0 SHL SUB DUP2 AND PUSH1 0x0 SWAP1 DUP2 MSTORE PUSH1 0x12 PUSH1 0x20 MSTORE PUSH1 0x40 SWAP1 KECCAK256 SLOAD PUSH1 0xFF AND PUSH2 0x93B JUMPI PUSH1 0x40 MLOAD PUSH3 0x461BCD PUSH1 0xE5 SHL DUP2 MSTORE PUSH1 0x20 PUSH1 0x4 DUP3 ADD MSTORE PUSH1 0x17 PUSH1 0x24 DUP3 ADD MSTORE PUSH32 0x4163636F756E74206973206E6F74206578636C75646564000000000000000000 PUSH1 0x44 DUP3 ADD MSTORE PUSH1 0x64 ADD PUSH2 0x88D JUMP JUMPDEST PUSH1 0x0 JUMPDEST PUSH1 0x13 SLOAD DUP2 LT ISZERO PUSH2 0xA94 JUMPI DUP2 PUSH1 0x1 PUSH1 0x1 PUSH1 0xA0 SHL SUB AND PUSH1 0x13 DUP3 DUP2 SLOAD DUP2 LT PUSH2 0x973 JUMPI PUSH4 0x4E487B71 PUSH1 0xE0 SHL PUSH1 0x0 MSTORE PUSH1 0x32 PUSH1 0x4 MSTORE PUSH1 0x24 PUSH1 0x0 REVERT JUMPDEST PUSH1 0x0 SWAP2 DUP3 MSTORE PUSH1 0x20 SWAP1 SWAP2 KECCAK256 ADD SLOAD PUSH1 0x1 PUSH1 0x1 PUSH1 0xA0 SHL SUB AND EQ ISZERO PUSH2 0xA82 JUMPI PUSH1 0x13 DUP1 SLOAD PUSH2 0x99E SWAP1 PUSH1 0x1 SWAP1 PUSH2 0x3287 JUMP JUMPDEST DUP2 SLOAD DUP2 LT PUSH2 0x9BC JUMPI PUSH4 0x4E487B71 PUSH1 0xE0 SHL PUSH1 0x0 MSTORE PUSH1 0x32 PUSH1 0x4 MSTORE PUSH1 0x24 PUSH1 0x0 REVERT JUMPDEST PUSH1 0x0 SWAP2 DUP3 MSTORE PUSH1 0x20 SWAP1 SWAP2 KECCAK256 ADD SLOAD PUSH1 0x13 DUP1 SLOAD PUSH1 0x1 PUSH1 0x1 PUSH1 0xA0 SHL SUB SWAP1 SWAP3 AND SWAP2 DUP4 SWAP1 DUP2 LT PUSH2 0x9F6 JUMPI PUSH4 0x4E487B71 PUSH1 0xE0 SHL PUSH1 0x0 MSTORE PUSH1 0x32 PUSH1 0x4 MSTORE PUSH1 0x24 PUSH1 0x0 REVERT JUMPDEST PUSH1 0x0 SWAP2 DUP3 MSTORE PUSH1 0x20 DUP1 DUP4 KECCAK256 SWAP2 SWAP1 SWAP2 ADD DUP1 SLOAD PUSH1 0x1 PUSH1 0x1 PUSH1 0xA0 SHL SUB NOT AND PUSH1 0x1 PUSH1 0x1 PUSH1 0xA0 SHL SUB SWAP5 DUP6 AND OR SWAP1 SSTORE SWAP2 DUP5 AND DUP2 MSTORE PUSH1 0xF DUP3 MSTORE PUSH1 0x40 DUP1 DUP3 KECCAK256 DUP3 SWAP1 SSTORE PUSH1 0x12 SWAP1 SWAP3 MSTORE KECCAK256 DUP1 SLOAD PUSH1 0xFF NOT AND SWAP1 SSTORE PUSH1 0x13 DUP1 SLOAD DUP1 PUSH2 0xA5C JUMPI PUSH4 0x4E487B71 PUSH1 0xE0 SHL PUSH1 0x0 MSTORE PUSH1 0x31 PUSH1 0x4 MSTORE PUSH1 0x24 PUSH1 0x0 REVERT JUMPDEST PUSH1 0x0 DUP3 DUP2 MSTORE PUSH1 0x20 SWAP1 KECCAK256 DUP2 ADD PUSH1 0x0 NOT SWAP1 DUP2 ADD DUP1 SLOAD PUSH1 0x1 PUSH1 0x1 PUSH1 0xA0 SHL SUB NOT AND SWAP1 SSTORE ADD SWAP1 SSTORE POP POP JUMP JUMPDEST DUP1 PUSH2 0xA8C DUP2 PUSH2 0x329E JUMP JUMPDEST SWAP2 POP POP PUSH2 0x93E JUMP JUMPDEST POP POP JUMP JUMPDEST CALLER PUSH1 0x0 DUP2 DUP2 MSTORE PUSH1 0x10 PUSH1 0x20 SWAP1 DUP2 MSTORE PUSH1 0x40 DUP1 DUP4 KECCAK256 PUSH1 0x1 PUSH1 0x1 PUSH1 0xA0 SHL SUB DUP8 AND DUP5 MSTORE SWAP1 SWAP2 MSTORE DUP2 KECCAK256 SLOAD SWAP1 SWAP2 PUSH2 0x7B1 SWAP2 DUP6 SWAP1 PUSH2 0x854 SWAP1 DUP7 PUSH2 0x1C14 JUMP JUMPDEST PUSH1 0x3 SLOAD PUSH1 0x1 PUSH1 0x1 PUSH1 0xA0 SHL SUB AND CALLER EQ PUSH2 0xAF8 JUMPI PUSH1 0x40 MLOAD PUSH3 0x461BCD PUSH1 0xE5 SHL DUP2 MSTORE PUSH1 0x4 ADD PUSH2 0x88D SWAP1 PUSH2 0x308D JUMP JUMPDEST PUSH1 0x8 SSTORE JUMP JUMPDEST PUSH1 0x3 SLOAD PUSH1 0x1 PUSH1 0x1 PUSH1 0xA0 SHL SUB AND CALLER EQ PUSH2 0xB27 JUMPI PUSH1 0x40 MLOAD PUSH3 0x461BCD PUSH1 0xE5 SHL DUP2 MSTORE PUSH1 0x4 ADD PUSH2 0x88D SWAP1 PUSH2 0x308D JUMP JUMPDEST PUSH2 0xB30 DUP2 PUSH2 0x1C20 JUMP JUMPDEST POP JUMP JUMPDEST CALLER DUP1 PUSH2 0xB92 JUMPI PUSH1 0x40 MLOAD PUSH3 0x461BCD PUSH1 0xE5 SHL DUP2 MSTORE PUSH1 0x20 PUSH1 0x4 DUP3 ADD MSTORE PUSH1 0x28 PUSH1 0x24 DUP3 ADD MSTORE PUSH32 0x42617365526669546F6B656E3A206275726E2066726F6D20746865207A65726F PUSH1 0x44 DUP3 ADD MSTORE PUSH8 0x2061646472657373 PUSH1 0xC0 SHL PUSH1 0x64 DUP3 ADD MSTORE PUSH1 0x84 ADD PUSH2 0x88D JUMP JUMPDEST PUSH1 0xA SLOAD PUSH1 0x1 PUSH1 0x1 PUSH1 0xA0 SHL SUB DUP3 DUP2 AND SWAP2 AND EQ ISZERO PUSH2 0xC01 JUMPI PUSH1 0x40 MLOAD PUSH3 0x461BCD PUSH1 0xE5 SHL DUP2 MSTORE PUSH1 0x20 PUSH1 0x4 DUP3 ADD MSTORE PUSH1 0x28 PUSH1 0x24 DUP3 ADD MSTORE PUSH32 0x42617365526669546F6B656E3A206275726E2066726F6D20746865206275726E PUSH1 0x44 DUP3 ADD MSTORE PUSH8 0x2061646472657373 PUSH1 0xC0 SHL PUSH1 0x64 DUP3 ADD MSTORE PUSH1 0x84 ADD PUSH2 0x88D JUMP JUMPDEST PUSH1 0x0 PUSH2 0xC0C DUP3 PUSH2 0xEF3 JUMP JUMPDEST SWAP1 POP DUP3 DUP2 LT ISZERO PUSH2 0xC70 JUMPI PUSH1 0x40 MLOAD PUSH3 0x461BCD PUSH1 0xE5 SHL DUP2 MSTORE PUSH1 0x20 PUSH1 0x4 DUP3 ADD MSTORE PUSH1 0x29 PUSH1 0x24 DUP3 ADD MSTORE PUSH32 0x42617365526669546F6B656E3A206275726E20616D6F756E7420657863656564 PUSH1 0x44 DUP3 ADD MSTORE PUSH9 0x732062616C616E6365 PUSH1 0xB8 SHL PUSH1 0x64 DUP3 ADD MSTORE PUSH1 0x84 ADD PUSH2 0x88D JUMP JUMPDEST PUSH1 0x0 PUSH2 0xC84 PUSH2 0xC7D PUSH2 0x1DF3 JUMP JUMPDEST DUP6 SWAP1 PUSH2 0x1E16 JUMP JUMPDEST PUSH1 0x1 PUSH1 0x1 PUSH1 0xA0 SHL SUB DUP5 AND PUSH1 0x0 SWAP1 DUP2 MSTORE PUSH1 0xE PUSH1 0x20 MSTORE PUSH1 0x40 SWAP1 KECCAK256 SLOAD SWAP1 SWAP2 POP PUSH2 0xCAA SWAP1 DUP3 PUSH2 0x1572 JUMP JUMPDEST PUSH1 0x1 PUSH1 0x1 PUSH1 0xA0 SHL SUB DUP5 AND PUSH1 0x0 SWAP1 DUP2 MSTORE PUSH1 0xE PUSH1 0x20 SWAP1 DUP2 MSTORE PUSH1 0x40 DUP1 DUP4 KECCAK256 SWAP4 SWAP1 SWAP4 SSTORE PUSH1 0x12 SWAP1 MSTORE KECCAK256 SLOAD PUSH1 0xFF AND ISZERO PUSH2 0xD14 JUMPI PUSH1 0x1 PUSH1 0x1 PUSH1 0xA0 SHL SUB DUP4 AND PUSH1 0x0 SWAP1 DUP2 MSTORE PUSH1 0xF PUSH1 0x20 MSTORE PUSH1 0x40 SWAP1 KECCAK256 SLOAD PUSH2 0xCFA SWAP1 DUP6 PUSH2 0x1572 JUMP JUMPDEST PUSH1 0x1 PUSH1 0x1 PUSH1 0xA0 SHL SUB DUP5 AND PUSH1 0x0 SWAP1 DUP2 MSTORE PUSH1 0xF PUSH1 0x20 MSTORE PUSH1 0x40 SWAP1 KECCAK256 SSTORE JUMPDEST PUSH2 0xD1F DUP4 DUP6 DUP4 PUSH2 0x1E22 JUMP JUMPDEST POP POP POP POP JUMP JUMPDEST PUSH1 0x0 PUSH2 0xD33 PUSH1 0x9 PUSH1 0xA PUSH2 0x31BD JUMP JUMPDEST PUSH2 0xD41 SWAP1 PUSH4 0x1C9C380 PUSH2 0x3268 JUMP JUMPDEST DUP4 GT ISZERO PUSH2 0xD90 JUMPI PUSH1 0x40 MLOAD PUSH3 0x461BCD PUSH1 0xE5 SHL DUP2 MSTORE PUSH1 0x20 PUSH1 0x4 DUP3 ADD MSTORE PUSH1 0x1F PUSH1 0x24 DUP3 ADD MSTORE PUSH32 0x416D6F756E74206D757374206265206C657373207468616E20737570706C7900 PUSH1 0x44 DUP3 ADD MSTORE PUSH1 0x64 ADD PUSH2 0x88D JUMP JUMPDEST DUP2 PUSH2 0xDB0 JUMPI PUSH1 0x0 PUSH2 0xDA2 DUP5 PUSH1 0x0 PUSH2 0x1F04 JUMP JUMPDEST POP SWAP3 SWAP5 POP PUSH2 0x7B5 SWAP4 POP POP POP POP JUMP JUMPDEST PUSH1 0x0 PUSH2 0xDC5 DUP5 PUSH2 0xDC0 CALLER DUP8 PUSH2 0x1F7A JUMP JUMPDEST PUSH2 0x1F04 JUMP JUMPDEST POP SWAP2 SWAP5 POP PUSH2 0x7B5 SWAP4 POP POP POP POP JUMP JUMPDEST PUSH1 0x0 SLOAD PUSH1 0x1 PUSH1 0x1 PUSH1 0xA0 SHL SUB AND CALLER EQ PUSH2 0xDFD JUMPI PUSH1 0x40 MLOAD PUSH3 0x461BCD PUSH1 0xE5 SHL DUP2 MSTORE PUSH1 0x4 ADD PUSH2 0x88D SWAP1 PUSH2 0x3058 JUMP JUMPDEST PUSH1 0x1 PUSH1 0x1 PUSH1 0xA0 SHL SUB DUP2 AND PUSH1 0x0 SWAP1 DUP2 MSTORE PUSH1 0x12 PUSH1 0x20 MSTORE PUSH1 0x40 SWAP1 KECCAK256 SLOAD PUSH1 0xFF AND ISZERO PUSH2 0xE66 JUMPI PUSH1 0x40 MLOAD PUSH3 0x461BCD PUSH1 0xE5 SHL DUP2 MSTORE PUSH1 0x20 PUSH1 0x4 DUP3 ADD MSTORE PUSH1 0x17 PUSH1 0x24 DUP3 ADD MSTORE PUSH32 0x4163636F756E74206973206E6F7420696E636C75646564000000000000000000 PUSH1 0x44 DUP3 ADD MSTORE PUSH1 0x64 ADD PUSH2 0x88D JUMP JUMPDEST PUSH2 0xB30 DUP2 PUSH2 0x1F8F JUMP JUMPDEST PUSH1 0x3 SLOAD PUSH1 0x1 PUSH1 0x1 PUSH1 0xA0 SHL SUB AND CALLER EQ PUSH2 0xE99 JUMPI PUSH1 0x40 MLOAD PUSH3 0x461BCD PUSH1 0xE5 SHL DUP2 MSTORE PUSH1 0x4 ADD PUSH2 0x88D SWAP1 PUSH2 0x308D JUMP JUMPDEST PUSH1 0x5 SSTORE JUMP JUMPDEST PUSH1 0x0 SLOAD PUSH1 0x1 PUSH1 0x1 PUSH1 0xA0 SHL SUB AND CALLER EQ PUSH2 0xEC8 JUMPI PUSH1 0x40 MLOAD PUSH3 0x461BCD PUSH1 0xE5 SHL DUP2 MSTORE PUSH1 0x4 ADD PUSH2 0x88D SWAP1 PUSH2 0x3058 JUMP JUMPDEST PUSH1 0x1 PUSH1 0x1 PUSH1 0xA0 SHL SUB SWAP2 SWAP1 SWAP2 AND PUSH1 0x0 SWAP1 DUP2 MSTORE PUSH1 0x11 PUSH1 0x20 MSTORE PUSH1 0x40 SWAP1 KECCAK256 DUP1 SLOAD PUSH1 0xFF NOT AND SWAP2 ISZERO ISZERO SWAP2 SWAP1 SWAP2 OR SWAP1 SSTORE JUMP JUMPDEST PUSH1 0x1 PUSH1 0x1 PUSH1 0xA0 SHL SUB DUP2 AND PUSH1 0x0 SWAP1 DUP2 MSTORE PUSH1 0x12 PUSH1 0x20 MSTORE PUSH1 0x40 DUP2 KECCAK256 SLOAD PUSH1 0xFF AND ISZERO PUSH2 0xF30 JUMPI POP PUSH1 0x1 PUSH1 0x1 PUSH1 0xA0 SHL SUB AND PUSH1 0x0 SWAP1 DUP2 MSTORE PUSH1 0xF PUSH1 0x20 MSTORE PUSH1 0x40 SWAP1 KECCAK256 SLOAD SWAP1 JUMP JUMPDEST PUSH1 0x1 PUSH1 0x1 PUSH1 0xA0 SHL SUB DUP3 AND PUSH1 0x0 SWAP1 DUP2 MSTORE PUSH1 0xE PUSH1 0x20 MSTORE PUSH1 0x40 SWAP1 KECCAK256 SLOAD PUSH2 0x7B5 SWAP1 PUSH2 0x204F JUMP JUMPDEST PUSH1 0x0 SLOAD PUSH1 0x1 PUSH1 0x1 PUSH1 0xA0 SHL SUB AND CALLER EQ PUSH2 0xF7C JUMPI PUSH1 0x40 MLOAD PUSH3 0x461BCD PUSH1 0xE5 SHL DUP2 MSTORE PUSH1 0x4 ADD PUSH2 0x88D SWAP1 PUSH2 0x3058 JUMP JUMPDEST PUSH1 0x0 DUP1 SLOAD PUSH1 0x40 MLOAD PUSH1 0x1 PUSH1 0x1 PUSH1 0xA0 SHL SUB SWAP1 SWAP2 AND SWAP1 PUSH1 0x0 DUP1 MLOAD PUSH1 0x20 PUSH2 0x330D DUP4 CODECOPY DUP2 MLOAD SWAP2 MSTORE SWAP1 DUP4 SWAP1 LOG3 PUSH1 0x0 DUP1 SLOAD PUSH1 0x1 PUSH1 0x1 PUSH1 0xA0 SHL SUB NOT AND SWAP1 SSTORE JUMP JUMPDEST PUSH1 0x3 SLOAD PUSH1 0x1 PUSH1 0x1 PUSH1 0xA0 SHL SUB AND CALLER EQ PUSH2 0xFDE JUMPI PUSH1 0x40 MLOAD PUSH3 0x461BCD PUSH1 0xE5 SHL DUP2 MSTORE PUSH1 0x4 ADD PUSH2 0x88D SWAP1 PUSH2 0x308D JUMP JUMPDEST PUSH1 0x3 DUP1 SLOAD SWAP2 ISZERO ISZERO PUSH1 0x1 PUSH1 0xA0 SHL MUL PUSH1 0xFF PUSH1 0xA0 SHL NOT SWAP1 SWAP3 AND SWAP2 SWAP1 SWAP2 OR SWAP1 SSTORE JUMP JUMPDEST PUSH1 0x3 SLOAD PUSH1 0x1 PUSH1 0x1 PUSH1 0xA0 SHL SUB AND CALLER EQ PUSH2 0x1026 JUMPI PUSH1 0x40 MLOAD PUSH3 0x461BCD PUSH1 0xE5 SHL DUP2 MSTORE PUSH1 0x4 ADD PUSH2 0x88D SWAP1 PUSH2 0x308D JUMP JUMPDEST PUSH1 0x9 SSTORE JUMP JUMPDEST PUSH1 0x0 PUSH2 0x7B1 CALLER DUP5 PUSH2 0x854 DUP6 PUSH1 0x40 MLOAD DUP1 PUSH1 0x60 ADD PUSH1 0x40 MSTORE DUP1 PUSH1 0x25 DUP2 MSTORE PUSH1 0x20 ADD PUSH2 0x332D PUSH1 0x25 SWAP2 CODECOPY CALLER PUSH1 0x0 SWAP1 DUP2 MSTORE PUSH1 0x10 PUSH1 0x20 SWAP1 DUP2 MSTORE PUSH1 0x40 DUP1 DUP4 KECCAK256 PUSH1 0x1 PUSH1 0x1 PUSH1 0xA0 SHL SUB DUP14 AND DUP5 MSTORE SWAP1 SWAP2 MSTORE SWAP1 KECCAK256 SLOAD SWAP2 SWAP1 PUSH2 0x1BE8 JUMP JUMPDEST PUSH1 0x1 SLOAD PUSH1 0x1 PUSH1 0x1 PUSH1 0xA0 SHL SUB AND CALLER EQ PUSH2 0x10E9 JUMPI PUSH1 0x40 MLOAD PUSH3 0x461BCD PUSH1 0xE5 SHL DUP2 MSTORE PUSH1 0x20 PUSH1 0x4 DUP3 ADD MSTORE PUSH1 0x2C PUSH1 0x24 DUP3 ADD MSTORE PUSH32 0x4F6E6C79207468652070726576696F7573206F776E65722063616E20756E6C6F PUSH1 0x44 DUP3 ADD MSTORE PUSH12 0x636B206F6E7765727368697 PUSH1 0xA4 SHL PUSH1 0x64 DUP3 ADD MSTORE PUSH1 0x84 ADD PUSH2 0x88D JUMP JUMPDEST PUSH1 0x2 SLOAD TIMESTAMP GT PUSH2 0x113A JUMPI PUSH1 0x40 MLOAD PUSH3 0x461BCD PUSH1 0xE5 SHL DUP2 MSTORE PUSH1 0x20 PUSH1 0x4 DUP3 ADD MSTORE PUSH1 0x1C PUSH1 0x24 DUP3 ADD MSTORE PUSH32 0x54686520636F6E7472616374206973207374696C6C206C6F636B656400000000 PUSH1 0x44 DUP3 ADD MSTORE PUSH1 0x64 ADD PUSH2 0x88D JUMP JUMPDEST PUSH1 0x1 SLOAD PUSH1 0x0 DUP1 SLOAD PUSH1 0x40 MLOAD PUSH1 0x1 PUSH1 0x1 PUSH1 0xA0 SHL SUB SWAP4 DUP5 AND SWAP4 SWAP1 SWAP2 AND SWAP2 PUSH1 0x0 DUP1 MLOAD PUSH1 0x20 PUSH2 0x330D DUP4 CODECOPY DUP2 MLOAD SWAP2 MSTORE SWAP2 LOG3 PUSH1 0x1 SLOAD PUSH1 0x0 DUP1 SLOAD PUSH1 0x1 PUSH1 0x1 PUSH1 0xA0 SHL SUB NOT AND PUSH1 0x1 PUSH1 0x1 PUSH1 0xA0 SHL SUB SWAP1 SWAP3 AND SWAP2 SWAP1 SWAP2 OR SWAP1 SSTORE JUMP JUMPDEST PUSH1 0x0 PUSH2 0x7B1 CALLER DUP5 DUP5 PUSH2 0x16B2 JUMP JUMPDEST PUSH1 0x3 SLOAD PUSH1 0x1 PUSH1 0x1 PUSH1 0xA0 SHL SUB AND CALLER EQ PUSH2 0x11C0 JUMPI PUSH1 0x40 MLOAD PUSH3 0x461BCD PUSH1 0xE5 SHL DUP2 MSTORE PUSH1 0x4 ADD PUSH2 0x88D SWAP1 PUSH2 0x308D JUMP JUMPDEST PUSH1 0x1 PUSH1 0x1 PUSH1 0xA0 SHL SUB DUP2 AND PUSH2 0x1232 JUMPI PUSH1 0x40 MLOAD PUSH3 0x461BCD PUSH1 0xE5 SHL DUP2 MSTORE PUSH1 0x20 PUSH1 0x4 DUP3 ADD MSTORE PUSH1 0x33 PUSH1 0x24 DUP3 ADD MSTORE PUSH32 0x43616E6E6F7420776974686472617720746865204554482062616C616E636520 PUSH1 0x44 DUP3 ADD MSTORE PUSH19 0x746F20746865207A65726F2061646472657373 PUSH1 0x68 SHL PUSH1 0x64 DUP3 ADD MSTORE PUSH1 0x84 ADD PUSH2 0x88D JUMP JUMPDEST PUSH1 0x0 PUSH1 0x14 SLOAD GT PUSH2 0x1293 JUMPI PUSH1 0x40 MLOAD PUSH3 0x461BCD PUSH1 0xE5 SHL DUP2 MSTORE PUSH1 0x20 PUSH1 0x4 DUP3 ADD MSTORE PUSH1 0x26 PUSH1 0x24 DUP3 ADD MSTORE PUSH32 0x546865204554482062616C616E6365206D757374206265206772656174657220 PUSH1 0x44 DUP3 ADD MSTORE PUSH6 0x7468616E203 PUSH1 0xD4 SHL PUSH1 0x64 DUP3 ADD MSTORE PUSH1 0x84 ADD PUSH2 0x88D JUMP JUMPDEST PUSH1 0x14 DUP1 SLOAD PUSH1 0x0 SWAP2 DUP3 SWAP1 SSTORE PUSH1 0x40 MLOAD SWAP1 SWAP2 PUSH1 0x1 PUSH1 0x1 PUSH1 0xA0 SHL SUB DUP5 AND SWAP2 DUP4 ISZERO PUSH2 0x8FC MUL SWAP2 DUP5 SWAP2 SWAP1 DUP2 DUP2 DUP2 DUP6 DUP9 DUP9 CALL SWAP4 POP POP POP POP ISZERO DUP1 ISZERO PUSH2 0x12D4 JUMPI RETURNDATASIZE PUSH1 0x0 DUP1 RETURNDATACOPY RETURNDATASIZE PUSH1 0x0 REVERT JUMPDEST POP POP POP JUMP JUMPDEST PUSH1 0x3 SLOAD PUSH1 0x1 PUSH1 0x1 PUSH1 0xA0 SHL SUB AND CALLER EQ PUSH2 0x1303 JUMPI PUSH1 0x40 MLOAD PUSH3 0x461BCD PUSH1 0xE5 SHL DUP2 MSTORE PUSH1 0x4 ADD PUSH2 0x88D SWAP1 PUSH2 0x308D JUMP JUMPDEST PUSH1 0x19 DUP1 SLOAD PUSH1 0xFF PUSH1 0xA8 SHL NOT AND PUSH1 0x1 PUSH1 0xA8 SHL DUP4 ISZERO ISZERO DUP2 MUL SWAP2 SWAP1 SWAP2 OR SWAP2 DUP3 SWAP1 SSTORE PUSH1 0x40 MLOAD PUSH1 0xFF SWAP2 SWAP1 SWAP3 DIV AND ISZERO ISZERO DUP2 MSTORE PUSH32 0x53726DFCAF90650AA7EB35524F4D3220F07413C8D6CB404CC8C18BF5591BC159 SWAP1 PUSH1 0x20 ADD PUSH1 0x40 MLOAD DUP1 SWAP2 SUB SWAP1 LOG1 POP JUMP JUMPDEST PUSH1 0x1 PUSH1 0x1 PUSH1 0xA0 SHL SUB DUP2 AND PUSH1 0x0 SWAP1 DUP2 MSTORE PUSH1 0x1D PUSH1 0x20 MSTORE PUSH1 0x40 DUP2 KECCAK256 SLOAD PUSH2 0x7B5 JUMP JUMPDEST PUSH1 0x0 SLOAD PUSH1 0x1 PUSH1 0x1 PUSH1 0xA0 SHL SUB AND CALLER EQ PUSH2 0x13A6 JUMPI PUSH1 0x40 MLOAD PUSH3 0x461BCD PUSH1 0xE5 SHL DUP2 MSTORE PUSH1 0x4 ADD PUSH2 0x88D SWAP1 PUSH2 0x3058 JUMP JUMPDEST PUSH1 0x0 DUP1 SLOAD PUSH1 0x1 DUP1 SLOAD PUSH1 0x1 PUSH1 0x1 PUSH1 0xA0 SHL SUB NOT SWAP1 DUP2 AND PUSH1 0x1 PUSH1 0x1 PUSH1 0xA0 SHL SUB DUP5 AND OR SWAP1 SWAP2 SSTORE AND SWAP1 SSTORE PUSH2 0x13D5 DUP2 TIMESTAMP PUSH2 0x3142 JUMP JUMPDEST PUSH1 0x2 SSTORE PUSH1 0x0 DUP1 SLOAD PUSH1 0x40 MLOAD PUSH1 0x1 PUSH1 0x1 PUSH1 0xA0 SHL SUB SWAP1 SWAP2 AND SWAP1 PUSH1 0x0 DUP1 MLOAD PUSH1 0x20 PUSH2 0x330D DUP4 CODECOPY DUP2 MLOAD SWAP2 MSTORE SWAP1 DUP4 SWAP1 LOG3 POP JUMP JUMPDEST PUSH1 0x3 SLOAD PUSH1 0x1 PUSH1 0x1 PUSH1 0xA0 SHL SUB AND CALLER EQ PUSH2 0x142B JUMPI PUSH1 0x40 MLOAD PUSH3 0x461BCD PUSH1 0xE5 SHL DUP2 MSTORE PUSH1 0x4 ADD PUSH2 0x88D SWAP1 PUSH2 0x308D JUMP JUMPDEST PUSH1 0x3 SLOAD PUSH1 0x40 MLOAD PUSH1 0x1 PUSH1 0x1 PUSH1 0xA0 SHL SUB DUP1 DUP5 AND SWAP3 AND SWAP1 PUSH32 0x80F15E9DBC60884FDB59FB8ED4FC48A9A689E028F055E893ED45CA5BE67C5C85 SWAP1 PUSH1 0x0 SWAP1 LOG3 PUSH1 0x3 DUP1 SLOAD PUSH1 0x1 PUSH1 0x1 PUSH1 0xA0 SHL SUB NOT AND PUSH1 0x1 PUSH1 0x1 PUSH1 0xA0 SHL SUB SWAP3 SWAP1 SWAP3 AND SWAP2 SWAP1 SWAP2 OR SWAP1 SSTORE JUMP JUMPDEST PUSH1 0x0 SLOAD PUSH1 0x1 PUSH1 0x1 PUSH1 0xA0 SHL SUB AND CALLER EQ PUSH2 0x14B1 JUMPI PUSH1 0x40 MLOAD PUSH3 0x461BCD PUSH1 0xE5 SHL DUP2 MSTORE PUSH1 0x4 ADD PUSH2 0x88D SWAP1 PUSH2 0x3058 JUMP JUMPDEST PUSH1 0x1 PUSH1 0x1 PUSH1 0xA0 SHL SUB DUP2 AND PUSH2 0x1516 JUMPI PUSH1 0x40 MLOAD PUSH3 0x461BCD PUSH1 0xE5 SHL DUP2 MSTORE PUSH1 0x20 PUSH1 0x4 DUP3 ADD MSTORE PUSH1 0x26 PUSH1 0x24 DUP3 ADD MSTORE PUSH32 0x4F776E61626C653A206E6577206F776E657220697320746865207A65726F2061 PUSH1 0x44 DUP3 ADD MSTORE PUSH6 0x646472657373 PUSH1 0xD0 SHL PUSH1 0x64 DUP3 ADD MSTORE PUSH1 0x84 ADD PUSH2 0x88D JUMP JUMPDEST PUSH1 0x0 DUP1 SLOAD PUSH1 0x40 MLOAD PUSH1 0x1 PUSH1 0x1 PUSH1 0xA0 SHL SUB DUP1 DUP6 AND SWAP4 SWAP3 AND SWAP2 PUSH1 0x0 DUP1 MLOAD PUSH1 0x20 PUSH2 0x330D DUP4 CODECOPY DUP2 MLOAD SWAP2 MSTORE SWAP2 LOG3 PUSH1 0x0 DUP1 SLOAD PUSH1 0x1 PUSH1 0x1 PUSH1 0xA0 SHL SUB NOT AND PUSH1 0x1 PUSH1 0x1 PUSH1 0xA0 SHL SUB SWAP3 SWAP1 SWAP3 AND SWAP2 SWAP1 SWAP2 OR SWAP1 SSTORE JUMP JUMPDEST PUSH1 0x0 PUSH2 0x156B DUP3 DUP5 PUSH2 0x315A JUMP JUMPDEST SWAP4 SWAP3 POP POP POP JUMP JUMPDEST PUSH1 0x0 PUSH2 0x156B DUP3 DUP5 PUSH2 0x3287 JUMP JUMPDEST PUSH1 0x1 PUSH1 0x1 PUSH1 0xA0 SHL SUB DUP4 AND PUSH2 0x15E8 JUMPI PUSH1 0x40 MLOAD PUSH3 0x461BCD PUSH1 0xE5 SHL DUP2 MSTORE PUSH1 0x20 PUSH1 0x4 DUP3 ADD MSTORE PUSH1 0x2B PUSH1 0x24 DUP3 ADD MSTORE PUSH32 0x42617365526669546F6B656E3A20617070726F76652066726F6D20746865207A PUSH1 0x44 DUP3 ADD MSTORE PUSH11 0x65726F2061646472657373 PUSH1 0xA8 SHL PUSH1 0x64 DUP3 ADD MSTORE PUSH1 0x84 ADD PUSH2 0x88D JUMP JUMPDEST PUSH1 0x1 PUSH1 0x1 PUSH1 0xA0 SHL SUB DUP3 AND PUSH2 0x1650 JUMPI PUSH1 0x40 MLOAD PUSH3 0x461BCD PUSH1 0xE5 SHL DUP2 MSTORE PUSH1 0x20 PUSH1 0x4 DUP3 ADD MSTORE PUSH1 0x29 PUSH1 0x24 DUP3 ADD MSTORE PUSH32 0x42617365526669546F6B656E3A20617070726F766520746F20746865207A6572 PUSH1 0x44 DUP3 ADD MSTORE PUSH9 0x6F2061646472657373 PUSH1 0xB8 SHL PUSH1 0x64 DUP3 ADD MSTORE PUSH1 0x84 ADD PUSH2 0x88D JUMP JUMPDEST PUSH1 0x1 PUSH1 0x1 PUSH1 0xA0 SHL SUB DUP4 DUP2 AND PUSH1 0x0 DUP2 DUP2 MSTORE PUSH1 0x10 PUSH1 0x20 SWAP1 DUP2 MSTORE PUSH1 0x40 DUP1 DUP4 KECCAK256 SWAP5 DUP8 AND DUP1 DUP5 MSTORE SWAP5 DUP3 MSTORE SWAP2 DUP3 SWAP1 KECCAK256 DUP6 SWAP1 SSTORE SWAP1 MLOAD DUP5 DUP2 MSTORE PUSH32 0x8C5BE1E5EBEC7D5BD14F71427D1E84F3DD0314C0F7B2291E5B200AC8C7C3B925 SWAP2 ADD JUMPDEST PUSH1 0x40 MLOAD DUP1 SWAP2 SUB SWAP1 LOG3 POP POP POP JUMP JUMPDEST PUSH1 0x1 PUSH1 0x1 PUSH1 0xA0 SHL SUB DUP4 AND PUSH2 0x171D JUMPI PUSH1 0x40 MLOAD PUSH3 0x461BCD PUSH1 0xE5 SHL DUP2 MSTORE PUSH1 0x20 PUSH1 0x4 DUP3 ADD MSTORE PUSH1 0x2C PUSH1 0x24 DUP3 ADD MSTORE PUSH32 0x42617365526669546F6B656E3A207472616E736665722066726F6D2074686520 PUSH1 0x44 DUP3 ADD MSTORE PUSH12 0x7A65726F2061646472657373 PUSH1 0xA0 SHL PUSH1 0x64 DUP3 ADD MSTORE PUSH1 0x84 ADD PUSH2 0x88D JUMP JUMPDEST PUSH1 0x1 PUSH1 0x1 PUSH1 0xA0 SHL SUB DUP3 AND PUSH2 0x1786 JUMPI PUSH1 0x40 MLOAD PUSH3 0x461BCD PUSH1 0xE5 SHL DUP2 MSTORE PUSH1 0x20 PUSH1 0x4 DUP3 ADD MSTORE PUSH1 0x2A PUSH1 0x24 DUP3 ADD MSTORE PUSH32 0x42617365526669546F6B656E3A207472616E7366657220746F20746865207A65 PUSH1 0x44 DUP3 ADD MSTORE PUSH10 0x726F2061646472657373 PUSH1 0xB0 SHL PUSH1 0x64 DUP3 ADD MSTORE PUSH1 0x84 ADD PUSH2 0x88D JUMP JUMPDEST PUSH1 0xA SLOAD PUSH1 0x1 PUSH1 0x1 PUSH1 0xA0 SHL SUB DUP5 DUP2 AND SWAP2 AND EQ ISZERO PUSH2 0x17F9 JUMPI PUSH1 0x40 MLOAD PUSH3 0x461BCD PUSH1 0xE5 SHL DUP2 MSTORE PUSH1 0x20 PUSH1 0x4 DUP3 ADD MSTORE PUSH1 0x2C PUSH1 0x24 DUP3 ADD MSTORE PUSH32 0x42617365526669546F6B656E3A207472616E736665722066726F6D2074686520 PUSH1 0x44 DUP3 ADD MSTORE PUSH12 0x6275726E2061646472657373 PUSH1 0xA0 SHL PUSH1 0x64 DUP3 ADD MSTORE PUSH1 0x84 ADD PUSH2 0x88D JUMP JUMPDEST PUSH1 0x0 DUP2 GT PUSH2 0x185B JUMPI PUSH1 0x40 MLOAD PUSH3 0x461BCD PUSH1 0xE5 SHL DUP2 MSTORE PUSH1 0x20 PUSH1 0x4 DUP3 ADD MSTORE PUSH1 0x29 PUSH1 0x24 DUP3 ADD MSTORE PUSH32 0x5472616E7366657220616D6F756E74206D757374206265206772656174657220 PUSH1 0x44 DUP3 ADD MSTORE PUSH9 0x7468616E207A65726F PUSH1 0xB8 SHL PUSH1 0x64 DUP3 ADD MSTORE PUSH1 0x84 ADD PUSH2 0x88D JUMP JUMPDEST PUSH1 0x3 SLOAD PUSH1 0x1 SWAP1 PUSH1 0x1 PUSH1 0xA0 SHL SWAP1 DIV PUSH1 0xFF AND ISZERO PUSH2 0x1878 JUMPI POP PUSH1 0x0 PUSH2 0x1B88 JUMP JUMPDEST PUSH1 0x64 PUSH2 0x1886 PUSH1 0x9 PUSH1 0xA PUSH2 0x31BD JUMP JUMPDEST PUSH2 0x1894 SWAP1 PUSH4 0x1C9C380 PUSH2 0x3268 JUMP JUMPDEST PUSH2 0x189E SWAP2 SWAP1 PUSH2 0x315A JUMP JUMPDEST DUP3 GT DUP1 ISZERO PUSH2 0x18BA JUMPI POP PUSH1 0x0 SLOAD PUSH1 0x1 PUSH1 0x1 PUSH1 0xA0 SHL SUB DUP6 DUP2 AND SWAP2 AND EQ ISZERO JUMPDEST DUP1 ISZERO PUSH2 0x18CC JUMPI POP PUSH2 0x18CA DUP4 PUSH2 0x20CC JUMP JUMPDEST ISZERO JUMPDEST ISZERO PUSH2 0x192A JUMPI PUSH1 0x40 MLOAD PUSH3 0x461BCD PUSH1 0xE5 SHL DUP2 MSTORE PUSH1 0x20 PUSH1 0x4 DUP3 ADD MSTORE PUSH1 0x28 PUSH1 0x24 DUP3 ADD MSTORE PUSH32 0x5472616E7366657220616D6F756E74206578636565647320746865206D617854 PUSH1 0x44 DUP3 ADD MSTORE PUSH8 0x3C20B6B7BAB73A17 PUSH1 0xC1 SHL PUSH1 0x64 DUP3 ADD MSTORE PUSH1 0x84 ADD PUSH2 0x88D JUMP JUMPDEST PUSH1 0x0 PUSH1 0x8 SLOAD GT DUP1 ISZERO PUSH2 0x194A JUMPI POP PUSH1 0x0 SLOAD PUSH1 0x1 PUSH1 0x1 PUSH1 0xA0 SHL SUB DUP6 DUP2 AND SWAP2 AND EQ ISZERO JUMPDEST DUP1 ISZERO PUSH2 0x195C JUMPI POP PUSH2 0x195A DUP4 PUSH2 0x20CC JUMP JUMPDEST ISZERO JUMPDEST DUP1 ISZERO PUSH2 0x1976 JUMPI POP PUSH1 0x19 SLOAD PUSH1 0x1 PUSH1 0x1 PUSH1 0xA0 SHL SUB DUP5 DUP2 AND SWAP2 AND EQ ISZERO JUMPDEST ISZERO PUSH2 0x19FC JUMPI PUSH1 0x0 PUSH2 0x1986 DUP5 PUSH2 0xEF3 JUMP JUMPDEST PUSH1 0x8 SLOAD SWAP1 SWAP2 POP PUSH2 0x1996 DUP5 DUP4 PUSH2 0x3142 JUMP JUMPDEST GT ISZERO PUSH2 0x19FA JUMPI PUSH1 0x40 MLOAD PUSH3 0x461BCD PUSH1 0xE5 SHL DUP2 MSTORE PUSH1 0x20 PUSH1 0x4 DUP3 ADD MSTORE PUSH1 0x2D PUSH1 0x24 DUP3 ADD MSTORE PUSH32 0x4E65772062616C616E636520776F756C642065786365656420746865206D6178 PUSH1 0x44 DUP3 ADD MSTORE PUSH13 0x57616C6C657442616C616E6365 PUSH1 0x98 SHL PUSH1 0x64 DUP3 ADD MSTORE PUSH1 0x84 ADD PUSH2 0x88D JUMP JUMPDEST POP JUMPDEST PUSH1 0x0 PUSH1 0x5 SLOAD GT DUP1 ISZERO PUSH2 0x1A1C JUMPI POP PUSH1 0x0 SLOAD PUSH1 0x1 PUSH1 0x1 PUSH1 0xA0 SHL SUB DUP6 DUP2 AND SWAP2 AND EQ ISZERO JUMPDEST DUP1 ISZERO PUSH2 0x1A2E JUMPI POP PUSH2 0x1A2C DUP4 PUSH2 0x20CC JUMP JUMPDEST ISZERO JUMPDEST DUP1 ISZERO PUSH2 0x1A43 JUMPI POP PUSH1 0x1 PUSH1 0x1 PUSH1 0xA0 SHL SUB DUP5 AND ADDRESS EQ ISZERO JUMPDEST ISZERO PUSH2 0x1B88 JUMPI ORIGIN PUSH1 0x0 SWAP1 DUP2 MSTORE PUSH1 0x1D PUSH1 0x20 MSTORE PUSH1 0x40 SWAP1 KECCAK256 SLOAD NUMBER GT PUSH2 0x1AC4 JUMPI PUSH1 0x40 MLOAD PUSH3 0x461BCD PUSH1 0xE5 SHL DUP2 MSTORE PUSH1 0x20 PUSH1 0x4 DUP3 ADD MSTORE PUSH1 0x35 PUSH1 0x24 DUP3 ADD MSTORE PUSH32 0x596F752063616E742073656E64206D6F7265207468616E206F6E65207472616E PUSH1 0x44 DUP3 ADD MSTORE PUSH21 0x39B0B1BA34B7B71034B71037B73290313637B1B597 PUSH1 0x59 SHL PUSH1 0x64 DUP3 ADD MSTORE PUSH1 0x84 ADD PUSH2 0x88D JUMP JUMPDEST ORIGIN PUSH1 0x0 SWAP1 DUP2 MSTORE PUSH1 0x1D PUSH1 0x20 SWAP1 DUP2 MSTORE PUSH1 0x40 DUP1 DUP4 KECCAK256 NUMBER SWAP1 SSTORE PUSH1 0x1C SWAP1 SWAP2 MSTORE SWAP1 KECCAK256 SLOAD ISZERO PUSH2 0x1B7F JUMPI ORIGIN PUSH1 0x0 SWAP1 DUP2 MSTORE PUSH1 0x1C PUSH1 0x20 MSTORE PUSH1 0x40 SWAP1 KECCAK256 SLOAD TIMESTAMP LT ISZERO PUSH2 0x1B7F JUMPI PUSH1 0x40 MLOAD PUSH3 0x461BCD PUSH1 0xE5 SHL DUP2 MSTORE PUSH1 0x20 PUSH1 0x4 DUP3 ADD MSTORE PUSH1 0x4B PUSH1 0x24 DUP3 ADD MSTORE PUSH32 0x596F75206E65656420746F20776169742054494D455F4C494D49545F5452414E PUSH1 0x44 DUP3 ADD MSTORE PUSH32 0x53414354494F4E206265666F726520706572666F726D20616E6F746865722074 PUSH1 0x64 DUP3 ADD MSTORE PUSH11 0x3930B739B0B1BA34B7B717 PUSH1 0xA9 SHL PUSH1 0x84 DUP3 ADD MSTORE PUSH1 0xA4 ADD PUSH2 0x88D JUMP JUMPDEST PUSH2 0x1B88 ORIGIN PUSH2 0x20F9 JUMP JUMPDEST PUSH1 0x1 PUSH1 0x1 PUSH1 0xA0 SHL SUB DUP5 AND PUSH1 0x0 SWAP1 DUP2 MSTORE PUSH1 0x11 PUSH1 0x20 MSTORE PUSH1 0x40 SWAP1 KECCAK256 SLOAD PUSH1 0xFF AND DUP1 PUSH2 0x1BC7 JUMPI POP PUSH1 0x1 PUSH1 0x1 PUSH1 0xA0 SHL SUB DUP4 AND PUSH1 0x0 SWAP1 DUP2 MSTORE PUSH1 0x11 PUSH1 0x20 MSTORE PUSH1 0x40 SWAP1 KECCAK256 SLOAD PUSH1 0xFF AND JUMPDEST ISZERO PUSH2 0x1BD0 JUMPI POP PUSH1 0x0 JUMPDEST PUSH2 0x1BDC DUP5 DUP5 DUP5 DUP5 PUSH2 0x2122 JUMP JUMPDEST PUSH2 0xD1F DUP5 DUP5 DUP5 DUP5 PUSH2 0x2151 JUMP JUMPDEST PUSH1 0x0 DUP2 DUP5 DUP5 GT ISZERO PUSH2 0x1C0C JUMPI PUSH1 0x40 MLOAD PUSH3 0x461BCD PUSH1 0xE5 SHL DUP2 MSTORE PUSH1 0x4 ADD PUSH2 0x88D SWAP2 SWAP1 PUSH2 0x3005 JUMP JUMPDEST POP POP POP SWAP1 SUB SWAP1 JUMP JUMPDEST PUSH1 0x0 PUSH2 0x156B DUP3 DUP5 PUSH2 0x3142 JUMP JUMPDEST PUSH1 0x0 DUP2 SWAP1 POP DUP1 PUSH1 0x1 PUSH1 0x1 PUSH1 0xA0 SHL SUB AND PUSH4 0xC45A0155 PUSH1 0x40 MLOAD DUP2 PUSH4 0xFFFFFFFF AND PUSH1 0xE0 SHL DUP2 MSTORE PUSH1 0x4 ADD PUSH1 0x20 PUSH1 0x40 MLOAD DUP1 DUP4 SUB DUP2 DUP7 DUP1 EXTCODESIZE ISZERO DUP1 ISZERO PUSH2 0x1C5E JUMPI PUSH1 0x0 DUP1 REVERT JUMPDEST POP GAS STATICCALL ISZERO DUP1 ISZERO PUSH2 0x1C72 JUMPI RETURNDATASIZE PUSH1 0x0 DUP1 RETURNDATACOPY RETURNDATASIZE PUSH1 0x0 REVERT JUMPDEST POP POP POP POP PUSH1 0x40 MLOAD RETURNDATASIZE PUSH1 0x1F NOT PUSH1 0x1F DUP3 ADD AND DUP3 ADD DUP1 PUSH1 0x40 MSTORE POP DUP2 ADD SWAP1 PUSH2 0x1C96 SWAP2 SWAP1 PUSH2 0x2E91 JUMP JUMPDEST PUSH1 0x1 PUSH1 0x1 PUSH1 0xA0 SHL SUB AND PUSH4 0xC9C65396 ADDRESS DUP4 PUSH1 0x1 PUSH1 0x1 PUSH1 0xA0 SHL SUB AND PUSH4 0xAD5C4648 PUSH1 0x40 MLOAD DUP2 PUSH4 0xFFFFFFFF AND PUSH1 0xE0 SHL DUP2 MSTORE PUSH1 0x4 ADD PUSH1 0x20 PUSH1 0x40 MLOAD DUP1 DUP4 SUB DUP2 DUP7 DUP1 EXTCODESIZE ISZERO DUP1 ISZERO PUSH2 0x1CDE JUMPI PUSH1 0x0 DUP1 REVERT JUMPDEST POP GAS STATICCALL ISZERO DUP1 ISZERO PUSH2 0x1CF2 JUMPI RETURNDATASIZE PUSH1 0x0 DUP1 RETURNDATACOPY RETURNDATASIZE PUSH1 0x0 REVERT JUMPDEST POP POP POP POP PUSH1 0x40 MLOAD RETURNDATASIZE PUSH1 0x1F NOT PUSH1 0x1F DUP3 ADD AND DUP3 ADD DUP1 PUSH1 0x40 MSTORE POP DUP2 ADD SWAP1 PUSH2 0x1D16 SWAP2 SWAP1 PUSH2 0x2E91 JUMP JUMPDEST PUSH1 0x40 MLOAD PUSH1 0x1 PUSH1 0x1 PUSH1 0xE0 SHL SUB NOT PUSH1 0xE0 DUP6 SWAP1 SHL AND DUP2 MSTORE PUSH1 0x1 PUSH1 0x1 PUSH1 0xA0 SHL SUB SWAP3 DUP4 AND PUSH1 0x4 DUP3 ADD MSTORE SWAP2 AND PUSH1 0x24 DUP3 ADD MSTORE PUSH1 0x44 ADD PUSH1 0x20 PUSH1 0x40 MLOAD DUP1 DUP4 SUB DUP2 PUSH1 0x0 DUP8 DUP1 EXTCODESIZE ISZERO DUP1 ISZERO PUSH2 0x1D5E JUMPI PUSH1 0x0 DUP1 REVERT JUMPDEST POP GAS CALL ISZERO DUP1 ISZERO PUSH2 0x1D72 JUMPI RETURNDATASIZE PUSH1 0x0 DUP1 RETURNDATACOPY RETURNDATASIZE PUSH1 0x0 REVERT JUMPDEST POP POP POP POP PUSH1 0x40 MLOAD RETURNDATASIZE PUSH1 0x1F NOT PUSH1 0x1F DUP3 ADD AND DUP3 ADD DUP1 PUSH1 0x40 MSTORE POP DUP2 ADD SWAP1 PUSH2 0x1D96 SWAP2 SWAP1 PUSH2 0x2E91 JUMP JUMPDEST PUSH1 0x19 DUP1 SLOAD PUSH1 0x1 PUSH1 0x1 PUSH1 0xA0 SHL SUB NOT SWAP1 DUP2 AND PUSH1 0x1 PUSH1 0x1 PUSH1 0xA0 SHL SUB SWAP4 DUP5 AND OR SWAP1 SWAP2 SSTORE PUSH1 0x18 DUP1 SLOAD SWAP1 SWAP2 AND DUP4 DUP4 AND OR SWAP1 SSTORE PUSH1 0x40 MLOAD SWAP1 DUP4 AND SWAP1 PUSH32 0xC6B438E6A8A59579CE6A4406CBD203B740E0D47B458AAE6596339BCD40C40D15 SWAP1 PUSH1 0x0 SWAP1 LOG2 POP POP JUMP JUMPDEST PUSH1 0x0 DUP1 PUSH1 0x0 PUSH2 0x1E00 PUSH2 0x23C4 JUMP JUMPDEST SWAP1 SWAP3 POP SWAP1 POP PUSH2 0x1E0F DUP3 DUP3 PUSH2 0x155F JUMP JUMPDEST SWAP3 POP POP POP SWAP1 JUMP JUMPDEST PUSH1 0x0 PUSH2 0x156B DUP3 DUP5 PUSH2 0x3268 JUMP JUMPDEST PUSH1 0xA SLOAD PUSH1 0x1 PUSH1 0x1 PUSH1 0xA0 SHL SUB AND PUSH1 0x0 SWAP1 DUP2 MSTORE PUSH1 0xE PUSH1 0x20 MSTORE PUSH1 0x40 SWAP1 KECCAK256 SLOAD PUSH2 0x1E47 SWAP1 DUP3 PUSH2 0x1C14 JUMP JUMPDEST PUSH1 0xA DUP1 SLOAD PUSH1 0x1 PUSH1 0x1 PUSH1 0xA0 SHL SUB SWAP1 DUP2 AND PUSH1 0x0 SWAP1 DUP2 MSTORE PUSH1 0xE PUSH1 0x20 SWAP1 DUP2 MSTORE PUSH1 0x40 DUP1 DUP4 KECCAK256 SWAP6 SWAP1 SWAP6 SSTORE SWAP3 SLOAD SWAP1 SWAP2 AND DUP2 MSTORE PUSH1 0x12 SWAP1 SWAP2 MSTORE KECCAK256 SLOAD PUSH1 0xFF AND ISZERO PUSH2 0x1EC2 JUMPI PUSH1 0xA SLOAD PUSH1 0x1 PUSH1 0x1 PUSH1 0xA0 SHL SUB AND PUSH1 0x0 SWAP1 DUP2 MSTORE PUSH1 0xF PUSH1 0x20 MSTORE PUSH1 0x40 SWAP1 KECCAK256 SLOAD PUSH2 0x1EA6 SWAP1 DUP4 PUSH2 0x1C14 JUMP JUMPDEST PUSH1 0xA SLOAD PUSH1 0x1 PUSH1 0x1 PUSH1 0xA0 SHL SUB AND PUSH1 0x0 SWAP1 DUP2 MSTORE PUSH1 0xF PUSH1 0x20 MSTORE PUSH1 0x40 SWAP1 KECCAK256 SSTORE JUMPDEST PUSH1 0xA SLOAD PUSH1 0x40 MLOAD DUP4 DUP2 MSTORE PUSH1 0x1 PUSH1 0x1 PUSH1 0xA0 SHL SUB SWAP2 DUP3 AND SWAP2 DUP6 AND SWAP1 PUSH32 0xDDF252AD1BE2C89B69C2B068FC378DAA952BA7F163C4A11628F55A4DF523B3EF SWAP1 PUSH1 0x20 ADD PUSH2 0x16A5 JUMP JUMPDEST PUSH1 0x0 DUP1 DUP1 DUP1 DUP1 DUP1 PUSH2 0x1F21 PUSH2 0x3E8 PUSH2 0x1F1B DUP11 DUP11 PUSH2 0x1E16 JUMP JUMPDEST SWAP1 PUSH2 0x155F JUMP JUMPDEST SWAP1 POP PUSH1 0x0 PUSH2 0x1F2F DUP10 DUP4 PUSH2 0x1572 JUMP JUMPDEST SWAP1 POP PUSH1 0x0 PUSH2 0x1F3B PUSH2 0x1DF3 JUMP JUMPDEST SWAP1 POP PUSH1 0x0 PUSH2 0x1F49 DUP12 DUP4 PUSH2 0x1E16 JUMP JUMPDEST SWAP1 POP PUSH1 0x0 PUSH2 0x1F57 DUP6 DUP5 PUSH2 0x1E16 JUMP JUMPDEST SWAP1 POP PUSH1 0x0 PUSH2 0x1F65 DUP4 DUP4 PUSH2 0x1572 JUMP JUMPDEST SWAP3 SWAP14 SWAP3 SWAP13 SWAP12 POP SWAP4 SWAP10 POP SWAP2 SWAP8 POP SWAP6 POP POP POP POP POP POP JUMP JUMPDEST PUSH1 0x0 PUSH2 0x156B PUSH2 0x1F88 DUP5 PUSH2 0xEF3 JUMP JUMPDEST POP PUSH1 0xD SLOAD SWAP1 JUMP JUMPDEST PUSH1 0x1 PUSH1 0x1 PUSH1 0xA0 SHL SUB DUP2 AND PUSH1 0x0 SWAP1 DUP2 MSTORE PUSH1 0xE PUSH1 0x20 MSTORE PUSH1 0x40 SWAP1 KECCAK256 SLOAD ISZERO PUSH2 0x1FE9 JUMPI PUSH1 0x1 PUSH1 0x1 PUSH1 0xA0 SHL SUB DUP2 AND PUSH1 0x0 SWAP1 DUP2 MSTORE PUSH1 0xE PUSH1 0x20 MSTORE PUSH1 0x40 SWAP1 KECCAK256 SLOAD PUSH2 0x1FCF SWAP1 PUSH2 0x204F JUMP JUMPDEST PUSH1 0x1 PUSH1 0x1 PUSH1 0xA0 SHL SUB DUP3 AND PUSH1 0x0 SWAP1 DUP2 MSTORE PUSH1 0xF PUSH1 0x20 MSTORE PUSH1 0x40 SWAP1 KECCAK256 SSTORE JUMPDEST PUSH1 0x1 PUSH1 0x1 PUSH1 0xA0 SHL SUB AND PUSH1 0x0 DUP2 DUP2 MSTORE PUSH1 0x12 PUSH1 0x20 MSTORE PUSH1 0x40 DUP2 KECCAK256 DUP1 SLOAD PUSH1 0xFF NOT AND PUSH1 0x1 SWAP1 DUP2 OR SWAP1 SWAP2 SSTORE PUSH1 0x13 DUP1 SLOAD SWAP2 DUP3 ADD DUP2 SSTORE SWAP1 SWAP2 MSTORE PUSH32 0x66DE8FFDA797E3DE9C05E8FC57B3BF0EC28A930D40B0D285D93C06501CF6A090 ADD DUP1 SLOAD PUSH1 0x1 PUSH1 0x1 PUSH1 0xA0 SHL SUB NOT AND SWAP1 SWAP2 OR SWAP1 SSTORE JUMP JUMPDEST PUSH1 0x0 PUSH1 0x4 SLOAD DUP3 GT ISZERO PUSH2 0x20B6 JUMPI PUSH1 0x40 MLOAD PUSH3 0x461BCD PUSH1 0xE5 SHL DUP2 MSTORE PUSH1 0x20 PUSH1 0x4 DUP3 ADD MSTORE PUSH1 0x2A PUSH1 0x24 DUP3 ADD MSTORE PUSH32 0x416D6F756E74206D757374206265206C657373207468616E20746F74616C2072 PUSH1 0x44 DUP3 ADD MSTORE PUSH10 0x65666C656374696F6E73 PUSH1 0xB0 SHL PUSH1 0x64 DUP3 ADD MSTORE PUSH1 0x84 ADD PUSH2 0x88D JUMP JUMPDEST PUSH1 0x0 PUSH2 0x20C0 PUSH2 0x1DF3 JUMP JUMPDEST SWAP1 POP PUSH2 0x156B DUP4 DUP3 PUSH2 0x155F JUMP JUMPDEST PUSH1 0x0 DUP1 SLOAD PUSH1 0x1 PUSH1 0x1 PUSH1 0xA0 SHL SUB DUP4 DUP2 AND SWAP2 AND EQ DUP1 PUSH2 0x7B5 JUMPI POP POP PUSH1 0xA SLOAD PUSH1 0x1 PUSH1 0x1 PUSH1 0xA0 SHL SUB SWAP1 DUP2 AND SWAP2 AND EQ SWAP1 JUMP JUMPDEST PUSH1 0x5 SLOAD PUSH2 0x2106 SWAP1 TIMESTAMP PUSH2 0x3142 JUMP JUMPDEST PUSH1 0x1 PUSH1 0x1 PUSH1 0xA0 SHL SUB SWAP1 SWAP2 AND PUSH1 0x0 SWAP1 DUP2 MSTORE PUSH1 0x1C PUSH1 0x20 MSTORE PUSH1 0x40 SWAP1 KECCAK256 SSTORE JUMP JUMPDEST PUSH1 0x3 SLOAD PUSH1 0x1 PUSH1 0xA0 SHL SWAP1 DIV PUSH1 0xFF AND PUSH2 0xD1F JUMPI PUSH1 0x0 PUSH2 0x213E ADDRESS PUSH2 0xEF3 JUMP JUMPDEST SWAP1 POP PUSH2 0x214A DUP2 DUP7 PUSH2 0x25E7 JUMP JUMPDEST POP POP POP POP POP JUMP JUMPDEST PUSH1 0x0 PUSH2 0x215D DUP6 DUP5 PUSH2 0x1F7A JUMP JUMPDEST PUSH1 0x9 SLOAD SWAP1 SWAP2 POP PUSH1 0x1 SWAP1 ISZERO PUSH2 0x21A3 JUMPI PUSH1 0x9 SLOAD PUSH2 0x2177 DUP8 PUSH2 0xEF3 JUMP JUMPDEST LT DUP1 PUSH2 0x218C JUMPI POP PUSH1 0x9 SLOAD PUSH2 0x218A DUP7 PUSH2 0xEF3 JUMP JUMPDEST LT JUMPDEST ISZERO PUSH2 0x21A3 JUMPI PUSH2 0x219C PUSH1 0x32 DUP4 PUSH2 0x3287 JUMP JUMPDEST SWAP2 POP PUSH1 0x0 SWAP1 POP JUMPDEST PUSH1 0x1 PUSH2 0x21BD DUP7 PUSH1 0x19 SLOAD PUSH1 0x1 PUSH1 0x1 PUSH1 0xA0 SHL SUB SWAP2 DUP3 AND SWAP2 AND EQ SWAP1 JUMP JUMPDEST ISZERO PUSH2 0x21D9 JUMPI PUSH2 0x21CA PUSH2 0x2651 JUMP JUMPDEST SWAP1 POP PUSH2 0x21D6 DUP4 DUP3 PUSH2 0x1E16 JUMP JUMPDEST SWAP3 POP JUMPDEST DUP4 PUSH2 0x21E3 JUMPI PUSH1 0x0 SWAP3 POP JUMPDEST PUSH1 0x0 DUP1 PUSH1 0x0 DUP1 PUSH1 0x0 PUSH2 0x21F5 DUP11 DUP10 PUSH2 0x1F04 JUMP JUMPDEST SWAP5 POP SWAP5 POP SWAP5 POP SWAP5 POP SWAP5 POP PUSH2 0x2237 DUP6 PUSH1 0xE PUSH1 0x0 DUP16 PUSH1 0x1 PUSH1 0x1 PUSH1 0xA0 SHL SUB AND PUSH1 0x1 PUSH1 0x1 PUSH1 0xA0 SHL SUB AND DUP2 MSTORE PUSH1 0x20 ADD SWAP1 DUP2 MSTORE PUSH1 0x20 ADD PUSH1 0x0 KECCAK256 SLOAD PUSH2 0x1572 SWAP1 SWAP2 SWAP1 PUSH4 0xFFFFFFFF AND JUMP JUMPDEST PUSH1 0x1 PUSH1 0x1 PUSH1 0xA0 SHL SUB DUP1 DUP15 AND PUSH1 0x0 SWAP1 DUP2 MSTORE PUSH1 0xE PUSH1 0x20 MSTORE PUSH1 0x40 DUP1 DUP3 KECCAK256 SWAP4 SWAP1 SWAP4 SSTORE SWAP1 DUP14 AND DUP2 MSTORE KECCAK256 SLOAD PUSH2 0x2266 SWAP1 DUP6 PUSH2 0x1C14 JUMP JUMPDEST PUSH1 0x1 PUSH1 0x1 PUSH1 0xA0 SHL SUB DUP1 DUP14 AND PUSH1 0x0 SWAP1 DUP2 MSTORE PUSH1 0xE PUSH1 0x20 SWAP1 DUP2 MSTORE PUSH1 0x40 DUP1 DUP4 KECCAK256 SWAP5 SWAP1 SWAP5 SSTORE SWAP2 DUP16 AND DUP2 MSTORE PUSH1 0x12 SWAP1 SWAP2 MSTORE KECCAK256 SLOAD PUSH1 0xFF AND ISZERO PUSH2 0x22D7 JUMPI PUSH1 0x1 PUSH1 0x1 PUSH1 0xA0 SHL SUB DUP13 AND PUSH1 0x0 SWAP1 DUP2 MSTORE PUSH1 0xF PUSH1 0x20 MSTORE PUSH1 0x40 SWAP1 KECCAK256 SLOAD PUSH2 0x22BD SWAP1 DUP5 PUSH2 0x1572 JUMP JUMPDEST PUSH1 0x1 PUSH1 0x1 PUSH1 0xA0 SHL SUB DUP14 AND PUSH1 0x0 SWAP1 DUP2 MSTORE PUSH1 0xF PUSH1 0x20 MSTORE PUSH1 0x40 SWAP1 KECCAK256 SSTORE JUMPDEST PUSH1 0x1 PUSH1 0x1 PUSH1 0xA0 SHL SUB DUP12 AND PUSH1 0x0 SWAP1 DUP2 MSTORE PUSH1 0x12 PUSH1 0x20 MSTORE PUSH1 0x40 SWAP1 KECCAK256 SLOAD PUSH1 0xFF AND ISZERO PUSH2 0x2335 JUMPI PUSH1 0x1 PUSH1 0x1 PUSH1 0xA0 SHL SUB DUP12 AND PUSH1 0x0 SWAP1 DUP2 MSTORE PUSH1 0xF PUSH1 0x20 MSTORE PUSH1 0x40 SWAP1 KECCAK256 SLOAD PUSH2 0x231B SWAP1 DUP4 PUSH2 0x1C14 JUMP JUMPDEST PUSH1 0x1 PUSH1 0x1 PUSH1 0xA0 SHL SUB DUP13 AND PUSH1 0x0 SWAP1 DUP2 MSTORE PUSH1 0xF PUSH1 0x20 MSTORE PUSH1 0x40 SWAP1 KECCAK256 SSTORE JUMPDEST PUSH1 0x9 SLOAD PUSH1 0x1 PUSH1 0x1 PUSH1 0xA0 SHL SUB DUP14 AND PUSH1 0x0 SWAP1 DUP2 MSTORE PUSH1 0xE PUSH1 0x20 MSTORE PUSH1 0x40 SWAP1 KECCAK256 SLOAD PUSH2 0x235A SWAP1 PUSH2 0x204F JUMP JUMPDEST POP POP PUSH2 0x2369 DUP11 DUP3 DUP11 DUP11 DUP11 PUSH2 0x265B JUMP JUMPDEST DUP11 PUSH1 0x1 PUSH1 0x1 PUSH1 0xA0 SHL SUB AND DUP13 PUSH1 0x1 PUSH1 0x1 PUSH1 0xA0 SHL SUB AND PUSH32 0xDDF252AD1BE2C89B69C2B068FC378DAA952BA7F163C4A11628F55A4DF523B3EF DUP5 PUSH1 0x40 MLOAD PUSH2 0x23AE SWAP2 DUP2 MSTORE PUSH1 0x20 ADD SWAP1 JUMP JUMPDEST PUSH1 0x40 MLOAD DUP1 SWAP2 SUB SWAP1 LOG3 POP POP POP POP POP POP POP POP POP POP POP POP JUMP JUMPDEST PUSH1 0x4 SLOAD PUSH1 0x0 SWAP1 DUP2 SWAP1 DUP2 PUSH2 0x23D9 PUSH1 0x9 PUSH1 0xA PUSH2 0x31BD JUMP JUMPDEST PUSH2 0x23E7 SWAP1 PUSH4 0x1C9C380 PUSH2 0x3268 JUMP JUMPDEST SWAP1 POP PUSH1 0x0 JUMPDEST PUSH1 0x13 SLOAD DUP2 LT ISZERO PUSH2 0x2580 JUMPI DUP3 PUSH1 0xE PUSH1 0x0 PUSH1 0x13 DUP5 DUP2 SLOAD DUP2 LT PUSH2 0x241C JUMPI PUSH4 0x4E487B71 PUSH1 0xE0 SHL PUSH1 0x0 MSTORE PUSH1 0x32 PUSH1 0x4 MSTORE PUSH1 0x24 PUSH1 0x0 REVERT JUMPDEST PUSH1 0x0 SWAP2 DUP3 MSTORE PUSH1 0x20 DUP1 DUP4 KECCAK256 SWAP1 SWAP2 ADD SLOAD PUSH1 0x1 PUSH1 0x1 PUSH1 0xA0 SHL SUB AND DUP4 MSTORE DUP3 ADD SWAP3 SWAP1 SWAP3 MSTORE PUSH1 0x40 ADD SWAP1 KECCAK256 SLOAD GT DUP1 PUSH2 0x2495 JUMPI POP DUP2 PUSH1 0xF PUSH1 0x0 PUSH1 0x13 DUP5 DUP2 SLOAD DUP2 LT PUSH2 0x246E JUMPI PUSH4 0x4E487B71 PUSH1 0xE0 SHL PUSH1 0x0 MSTORE PUSH1 0x32 PUSH1 0x4 MSTORE PUSH1 0x24 PUSH1 0x0 REVERT JUMPDEST PUSH1 0x0 SWAP2 DUP3 MSTORE PUSH1 0x20 DUP1 DUP4 KECCAK256 SWAP1 SWAP2 ADD SLOAD PUSH1 0x1 PUSH1 0x1 PUSH1 0xA0 SHL SUB AND DUP4 MSTORE DUP3 ADD SWAP3 SWAP1 SWAP3 MSTORE PUSH1 0x40 ADD SWAP1 KECCAK256 SLOAD GT JUMPDEST ISZERO PUSH2 0x24C2 JUMPI PUSH1 0x4 SLOAD PUSH2 0x24A9 PUSH1 0x9 PUSH1 0xA PUSH2 0x31BD JUMP JUMPDEST PUSH2 0x24B7 SWAP1 PUSH4 0x1C9C380 PUSH2 0x3268 JUMP JUMPDEST SWAP5 POP SWAP5 POP POP POP POP SWAP1 SWAP2 JUMP JUMPDEST PUSH2 0x2516 PUSH1 0xE PUSH1 0x0 PUSH1 0x13 DUP5 DUP2 SLOAD DUP2 LT PUSH2 0x24EA JUMPI PUSH4 0x4E487B71 PUSH1 0xE0 SHL PUSH1 0x0 MSTORE PUSH1 0x32 PUSH1 0x4 MSTORE PUSH1 0x24 PUSH1 0x0 REVERT JUMPDEST PUSH1 0x0 SWAP2 DUP3 MSTORE PUSH1 0x20 DUP1 DUP4 KECCAK256 SWAP1 SWAP2 ADD SLOAD PUSH1 0x1 PUSH1 0x1 PUSH1 0xA0 SHL SUB AND DUP4 MSTORE DUP3 ADD SWAP3 SWAP1 SWAP3 MSTORE PUSH1 0x40 ADD SWAP1 KECCAK256 SLOAD DUP5 SWAP1 PUSH2 0x1572 JUMP JUMPDEST SWAP3 POP PUSH2 0x256C PUSH1 0xF PUSH1 0x0 PUSH1 0x13 DUP5 DUP2 SLOAD DUP2 LT PUSH2 0x2540 JUMPI PUSH4 0x4E487B71 PUSH1 0xE0 SHL PUSH1 0x0 MSTORE PUSH1 0x32 PUSH1 0x4 MSTORE PUSH1 0x24 PUSH1 0x0 REVERT JUMPDEST PUSH1 0x0 SWAP2 DUP3 MSTORE PUSH1 0x20 DUP1 DUP4 KECCAK256 SWAP1 SWAP2 ADD SLOAD PUSH1 0x1 PUSH1 0x1 PUSH1 0xA0 SHL SUB AND DUP4 MSTORE DUP3 ADD SWAP3 SWAP1 SWAP3 MSTORE PUSH1 0x40 ADD SWAP1 KECCAK256 SLOAD DUP4 SWAP1 PUSH2 0x1572 JUMP JUMPDEST SWAP2 POP DUP1 PUSH2 0x2578 DUP2 PUSH2 0x329E JUMP JUMPDEST SWAP2 POP POP PUSH2 0x23EC JUMP JUMPDEST POP DUP1 ISZERO DUP1 PUSH2 0x25B2 JUMPI POP PUSH2 0x25AF PUSH2 0x2598 PUSH1 0x9 PUSH1 0xA PUSH2 0x31BD JUMP JUMPDEST PUSH2 0x25A6 SWAP1 PUSH4 0x1C9C380 PUSH2 0x3268 JUMP JUMPDEST PUSH1 0x4 SLOAD SWAP1 PUSH2 0x155F JUMP JUMPDEST DUP3 LT JUMPDEST ISZERO PUSH2 0x25DE JUMPI PUSH1 0x4 SLOAD PUSH2 0x25C6 PUSH1 0x9 PUSH1 0xA PUSH2 0x31BD JUMP JUMPDEST PUSH2 0x25D4 SWAP1 PUSH4 0x1C9C380 PUSH2 0x3268 JUMP JUMPDEST SWAP4 POP SWAP4 POP POP POP SWAP1 SWAP2 JUMP JUMPDEST SWAP1 SWAP4 SWAP1 SWAP3 POP SWAP1 POP JUMP JUMPDEST PUSH1 0x1A SLOAD DUP3 LT PUSH2 0x25F6 JUMPI PUSH1 0x1A SLOAD SWAP2 POP JUMPDEST PUSH1 0x1B SLOAD DUP3 LT DUP1 ISZERO SWAP1 DUP2 SWAP1 PUSH2 0x2613 JUMPI POP PUSH1 0x19 SLOAD PUSH1 0x1 PUSH1 0xA8 SHL SWAP1 DIV PUSH1 0xFF AND JUMPDEST DUP1 ISZERO PUSH2 0x2629 JUMPI POP PUSH1 0x19 SLOAD PUSH1 0x1 PUSH1 0xA0 SHL SWAP1 DIV PUSH1 0xFF AND ISZERO JUMPDEST DUP1 ISZERO PUSH2 0x2643 JUMPI POP PUSH1 0x19 SLOAD PUSH1 0x1 PUSH1 0x1 PUSH1 0xA0 SHL SUB DUP4 DUP2 AND SWAP2 AND EQ ISZERO JUMPDEST ISZERO PUSH2 0x12D4 JUMPI PUSH2 0x12D4 DUP4 PUSH2 0x2686 JUMP JUMPDEST PUSH1 0x0 PUSH2 0x7F5 PUSH2 0x272D JUMP JUMPDEST PUSH1 0x0 DUP4 GT DUP1 ISZERO PUSH2 0x2675 JUMPI POP PUSH1 0x3 SLOAD PUSH1 0x1 PUSH1 0xA0 SHL SWAP1 DIV PUSH1 0xFF AND ISZERO JUMPDEST ISZERO PUSH2 0x214A JUMPI PUSH2 0x214A DUP6 DUP6 DUP5 DUP5 PUSH2 0x2762 JUMP JUMPDEST PUSH1 0x19 DUP1 SLOAD PUSH1 0xFF PUSH1 0xA0 SHL NOT AND PUSH1 0x1 PUSH1 0xA0 SHL OR SWAP1 SSTORE PUSH1 0x0 PUSH2 0x26A6 DUP3 PUSH1 0x2 PUSH2 0x155F JUMP JUMPDEST SWAP1 POP PUSH1 0x0 PUSH2 0x26B4 DUP4 DUP4 PUSH2 0x1572 JUMP JUMPDEST SWAP1 POP SELFBALANCE PUSH2 0x26C0 DUP4 PUSH2 0x28E3 JUMP JUMPDEST PUSH1 0x0 PUSH2 0x26CC SELFBALANCE DUP4 PUSH2 0x1572 JUMP JUMPDEST SWAP1 POP PUSH2 0x26D8 DUP4 DUP3 PUSH2 0x2A60 JUMP JUMPDEST PUSH1 0x40 DUP1 MLOAD DUP6 DUP2 MSTORE PUSH1 0x20 DUP2 ADD DUP4 SWAP1 MSTORE SWAP1 DUP2 ADD DUP5 SWAP1 MSTORE PUSH32 0x17BBFB9A6069321B6DED73BD96327C9E6B7212A5CD51FF219CD61370ACAFB561 SWAP1 PUSH1 0x60 ADD PUSH1 0x40 MLOAD DUP1 SWAP2 SUB SWAP1 LOG1 POP POP PUSH1 0x19 DUP1 SLOAD PUSH1 0xFF PUSH1 0xA0 SHL NOT AND SWAP1 SSTORE POP POP POP JUMP JUMPDEST PUSH1 0x7 SLOAD PUSH1 0x0 SWAP1 PUSH1 0x1 SWAP1 PUSH1 0xFF AND ISZERO ISZERO DUP2 EQ ISZERO PUSH2 0x275D JUMPI PUSH1 0x6 SLOAD PUSH2 0x2752 SWAP1 PUSH3 0x15180 PUSH2 0x3142 JUMP JUMPDEST TIMESTAMP LT ISZERO PUSH2 0x275D JUMPI POP PUSH1 0x2 JUMPDEST SWAP2 SWAP1 POP JUMP JUMPDEST PUSH1 0x3 SLOAD PUSH1 0x1 PUSH1 0xA0 SHL SWAP1 DIV PUSH1 0xFF AND ISZERO PUSH2 0x2779 JUMPI PUSH2 0xD1F JUMP JUMPDEST PUSH1 0x0 PUSH2 0x2784 PUSH1 0xC SLOAD SWAP1 JUMP JUMPDEST SWAP1 POP PUSH1 0x0 JUMPDEST DUP2 DUP2 LT ISZERO PUSH2 0x28DB JUMPI PUSH1 0x0 DUP1 PUSH1 0x0 PUSH2 0x279F DUP5 PUSH2 0x2B97 JUMP JUMPDEST POP SWAP3 POP SWAP3 POP SWAP3 POP DUP2 PUSH1 0x0 EQ ISZERO PUSH2 0x27B7 JUMPI POP POP POP PUSH2 0x28C9 JUMP JUMPDEST PUSH1 0x3 DUP4 PUSH1 0x5 DUP2 GT ISZERO PUSH2 0x27D9 JUMPI PUSH4 0x4E487B71 PUSH1 0xE0 SHL PUSH1 0x0 MSTORE PUSH1 0x21 PUSH1 0x4 MSTORE PUSH1 0x24 PUSH1 0x0 REVERT JUMPDEST EQ ISZERO PUSH2 0x27F9 JUMPI PUSH2 0x27F4 PUSH2 0x27EC DUP11 DUP9 PUSH2 0x1E16 JUMP JUMPDEST DUP10 DUP5 DUP8 PUSH2 0x2C4E JUMP JUMPDEST PUSH2 0x28C5 JUMP JUMPDEST PUSH1 0x1 DUP4 PUSH1 0x5 DUP2 GT ISZERO PUSH2 0x281B JUMPI PUSH4 0x4E487B71 PUSH1 0xE0 SHL PUSH1 0x0 MSTORE PUSH1 0x21 PUSH1 0x4 MSTORE PUSH1 0x24 PUSH1 0x0 REVERT JUMPDEST EQ ISZERO PUSH2 0x2836 JUMPI PUSH2 0x27F4 PUSH2 0x282E DUP11 DUP9 PUSH2 0x1E16 JUMP JUMPDEST DUP10 DUP5 DUP8 PUSH2 0x2C8B JUMP JUMPDEST PUSH1 0x0 DUP4 PUSH1 0x5 DUP2 GT ISZERO PUSH2 0x2858 JUMPI PUSH4 0x4E487B71 PUSH1 0xE0 SHL PUSH1 0x0 MSTORE PUSH1 0x21 PUSH1 0x4 MSTORE PUSH1 0x24 PUSH1 0x0 REVERT JUMPDEST EQ ISZERO PUSH2 0x287A JUMPI DUP7 ISZERO PUSH2 0x27F4 JUMPI PUSH2 0x27F4 PUSH2 0x2871 DUP11 DUP9 PUSH2 0x1E16 JUMP JUMPDEST DUP10 DUP5 DUP5 DUP9 PUSH2 0x2CC2 JUMP JUMPDEST PUSH1 0x5 DUP4 PUSH1 0x5 DUP2 GT ISZERO PUSH2 0x289C JUMPI PUSH4 0x4E487B71 PUSH1 0xE0 SHL PUSH1 0x0 MSTORE PUSH1 0x21 PUSH1 0x4 MSTORE PUSH1 0x24 PUSH1 0x0 REVERT JUMPDEST EQ ISZERO PUSH2 0x28AF JUMPI PUSH2 0x27F4 PUSH2 0x2871 DUP11 DUP9 PUSH2 0x1E16 JUMP JUMPDEST PUSH2 0x28C5 PUSH2 0x28BC DUP11 DUP9 PUSH2 0x1E16 JUMP JUMPDEST DUP10 DUP5 DUP5 DUP9 PUSH2 0x2CCB JUMP JUMPDEST POP POP POP JUMPDEST DUP1 PUSH2 0x28D3 DUP2 PUSH2 0x329E JUMP JUMPDEST SWAP2 POP POP PUSH2 0x2789 JUMP JUMPDEST POP POP POP POP POP POP JUMP JUMPDEST PUSH1 0x40 DUP1 MLOAD PUSH1 0x2 DUP1 DUP3 MSTORE PUSH1 0x60 DUP3 ADD DUP4 MSTORE PUSH1 0x0 SWAP3 PUSH1 0x20 DUP4 ADD SWAP1 DUP1 CALLDATASIZE DUP4 CALLDATACOPY ADD SWAP1 POP POP SWAP1 POP ADDRESS DUP2 PUSH1 0x0 DUP2 MLOAD DUP2 LT PUSH2 0x2926 JUMPI PUSH4 0x4E487B71 PUSH1 0xE0 SHL PUSH1 0x0 MSTORE PUSH1 0x32 PUSH1 0x4 MSTORE PUSH1 0x24 PUSH1 0x0 REVERT JUMPDEST PUSH1 0x1 PUSH1 0x1 PUSH1 0xA0 SHL SUB SWAP3 DUP4 AND PUSH1 0x20 SWAP2 DUP3 MUL SWAP3 SWAP1 SWAP3 ADD DUP2 ADD SWAP2 SWAP1 SWAP2 MSTORE PUSH1 0x18 SLOAD PUSH1 0x40 DUP1 MLOAD PUSH4 0x15AB88C9 PUSH1 0xE3 SHL DUP2 MSTORE SWAP1 MLOAD SWAP2 SWAP1 SWAP4 AND SWAP3 PUSH4 0xAD5C4648 SWAP3 PUSH1 0x4 DUP1 DUP4 ADD SWAP4 SWAP2 SWAP3 DUP3 SWAP1 SUB ADD DUP2 DUP7 DUP1 EXTCODESIZE ISZERO DUP1 ISZERO PUSH2 0x297A JUMPI PUSH1 0x0 DUP1 REVERT JUMPDEST POP GAS STATICCALL ISZERO DUP1 ISZERO PUSH2 0x298E JUMPI RETURNDATASIZE PUSH1 0x0 DUP1 RETURNDATACOPY RETURNDATASIZE PUSH1 0x0 REVERT JUMPDEST POP POP POP POP PUSH1 0x40 MLOAD RETURNDATASIZE PUSH1 0x1F NOT PUSH1 0x1F DUP3 ADD AND DUP3 ADD DUP1 PUSH1 0x40 MSTORE POP DUP2 ADD SWAP1 PUSH2 0x29B2 SWAP2 SWAP1 PUSH2 0x2E91 JUMP JUMPDEST DUP2 PUSH1 0x1 DUP2 MLOAD DUP2 LT PUSH2 0x29D3 JUMPI PUSH4 0x4E487B71 PUSH1 0xE0 SHL PUSH1 0x0 MSTORE PUSH1 0x32 PUSH1 0x4 MSTORE PUSH1 0x24 PUSH1 0x0 REVERT JUMPDEST PUSH1 0x1 PUSH1 0x1 PUSH1 0xA0 SHL SUB SWAP3 DUP4 AND PUSH1 0x20 SWAP2 DUP3 MUL SWAP3 SWAP1 SWAP3 ADD ADD MSTORE PUSH1 0x18 SLOAD PUSH2 0x29F9 SWAP2 ADDRESS SWAP2 AND DUP5 PUSH2 0x2D8E JUMP JUMPDEST PUSH1 0x18 SLOAD PUSH1 0x40 MLOAD PUSH4 0x791AC947 PUSH1 0xE0 SHL DUP2 MSTORE PUSH1 0x1 PUSH1 0x1 PUSH1 0xA0 SHL SUB SWAP1 SWAP2 AND SWAP1 PUSH4 0x791AC947 SWAP1 PUSH2 0x2A32 SWAP1 DUP6 SWAP1 PUSH1 0x0 SWAP1 DUP7 SWAP1 ADDRESS SWAP1 TIMESTAMP SWAP1 PUSH1 0x4 ADD PUSH2 0x30D2 JUMP JUMPDEST PUSH1 0x0 PUSH1 0x40 MLOAD DUP1 DUP4 SUB DUP2 PUSH1 0x0 DUP8 DUP1 EXTCODESIZE ISZERO DUP1 ISZERO PUSH2 0x2A4C JUMPI PUSH1 0x0 DUP1 REVERT JUMPDEST POP GAS CALL ISZERO DUP1 ISZERO PUSH2 0x28DB JUMPI RETURNDATASIZE PUSH1 0x0 DUP1 RETURNDATACOPY RETURNDATASIZE PUSH1 0x0 REVERT JUMPDEST PUSH1 0x18 SLOAD PUSH2 0x2A78 SWAP1 ADDRESS SWAP1 PUSH1 0x1 PUSH1 0x1 PUSH1 0xA0 SHL SUB AND DUP5 PUSH2 0x2D8E JUMP JUMPDEST PUSH1 0x18 SLOAD PUSH1 0x0 SWAP1 DUP2 SWAP1 DUP2 SWAP1 PUSH1 0x1 PUSH1 0x1 PUSH1 0xA0 SHL SUB AND PUSH4 0xF305D719 DUP6 ADDRESS DUP9 DUP6 DUP1 PUSH2 0x2AA7 PUSH1 0x0 SLOAD PUSH1 0x1 PUSH1 0x1 PUSH1 0xA0 SHL SUB AND SWAP1 JUMP JUMPDEST PUSH1 0x40 MLOAD PUSH1 0xE0 DUP9 SWAP1 SHL PUSH1 0x1 PUSH1 0x1 PUSH1 0xE0 SHL SUB NOT AND DUP2 MSTORE PUSH1 0x1 PUSH1 0x1 PUSH1 0xA0 SHL SUB SWAP6 DUP7 AND PUSH1 0x4 DUP3 ADD MSTORE PUSH1 0x24 DUP2 ADD SWAP5 SWAP1 SWAP5 MSTORE PUSH1 0x44 DUP5 ADD SWAP3 SWAP1 SWAP3 MSTORE PUSH1 0x64 DUP4 ADD MSTORE SWAP1 SWAP2 AND PUSH1 0x84 DUP3 ADD MSTORE TIMESTAMP PUSH1 0xA4 DUP3 ADD MSTORE PUSH1 0xC4 ADD PUSH1 0x60 PUSH1 0x40 MLOAD DUP1 DUP4 SUB DUP2 DUP6 DUP9 DUP1 EXTCODESIZE ISZERO DUP1 ISZERO PUSH2 0x2B0A JUMPI PUSH1 0x0 DUP1 REVERT JUMPDEST POP GAS CALL ISZERO DUP1 ISZERO PUSH2 0x2B1E JUMPI RETURNDATASIZE PUSH1 0x0 DUP1 RETURNDATACOPY RETURNDATASIZE PUSH1 0x0 REVERT JUMPDEST POP POP POP POP POP PUSH1 0x40 MLOAD RETURNDATASIZE PUSH1 0x1F NOT PUSH1 0x1F DUP3 ADD AND DUP3 ADD DUP1 PUSH1 0x40 MSTORE POP DUP2 ADD SWAP1 PUSH2 0x2B43 SWAP2 SWAP1 PUSH2 0x2FD8 JUMP JUMPDEST SELFBALANCE PUSH1 0x14 SSTORE PUSH1 0x40 DUP1 MLOAD DUP5 DUP2 MSTORE PUSH1 0x20 DUP2 ADD DUP5 SWAP1 MSTORE SWAP1 DUP2 ADD DUP3 SWAP1 MSTORE SWAP3 SWAP6 POP SWAP1 SWAP4 POP SWAP2 POP PUSH32 0xD7F28048575EEAD8851D024EAD087913957DFB4FD1A02B4D1573F5352A5A2BE3 SWAP1 PUSH1 0x60 ADD PUSH1 0x40 MLOAD DUP1 SWAP2 SUB SWAP1 LOG1 POP POP POP POP POP JUMP JUMPDEST PUSH1 0x0 DUP1 PUSH1 0x0 DUP1 PUSH1 0x0 PUSH2 0x2BA8 DUP7 PUSH2 0x2D99 JUMP JUMPDEST PUSH1 0x40 DUP1 MLOAD PUSH1 0x80 DUP2 ADD SWAP1 SWAP2 MSTORE DUP2 SLOAD SWAP1 SWAP2 SWAP1 DUP3 SWAP1 PUSH1 0xFF AND PUSH1 0x5 DUP2 GT ISZERO PUSH2 0x2BDC JUMPI PUSH4 0x4E487B71 PUSH1 0xE0 SHL PUSH1 0x0 MSTORE PUSH1 0x21 PUSH1 0x4 MSTORE PUSH1 0x24 PUSH1 0x0 REVERT JUMPDEST PUSH1 0x5 DUP2 GT ISZERO PUSH2 0x2BFB JUMPI PUSH4 0x4E487B71 PUSH1 0xE0 SHL PUSH1 0x0 MSTORE PUSH1 0x21 PUSH1 0x4 MSTORE PUSH1 0x24 PUSH1 0x0 REVERT JUMPDEST DUP2 MSTORE PUSH1 0x1 DUP3 ADD SLOAD PUSH1 0x20 DUP1 DUP4 ADD SWAP2 SWAP1 SWAP2 MSTORE PUSH1 0x2 DUP4 ADD SLOAD PUSH1 0x1 PUSH1 0x1 PUSH1 0xA0 SHL SUB AND PUSH1 0x40 DUP1 DUP5 ADD SWAP2 SWAP1 SWAP2 MSTORE PUSH1 0x3 SWAP1 SWAP4 ADD SLOAD PUSH1 0x60 SWAP3 DUP4 ADD MSTORE DUP4 MLOAD SWAP1 DUP5 ADD MLOAD SWAP3 DUP5 ADD MLOAD SWAP4 SWAP1 SWAP2 ADD MLOAD SWAP1 SWAP10 SWAP2 SWAP9 POP SWAP2 SWAP7 POP SWAP1 SWAP5 POP SWAP3 POP POP POP JUMP JUMPDEST PUSH1 0x0 PUSH2 0x2C60 PUSH2 0x3E8 PUSH2 0x1F1B DUP8 DUP7 PUSH2 0x1E16 JUMP JUMPDEST SWAP1 POP PUSH1 0x0 PUSH2 0x2C6E DUP3 DUP7 PUSH2 0x1E16 JUMP JUMPDEST PUSH1 0x4 SLOAD SWAP1 SWAP2 POP PUSH2 0x2C7E SWAP1 DUP3 PUSH2 0x1572 JUMP JUMPDEST PUSH1 0x4 SSTORE PUSH2 0x28DB DUP4 DUP4 PUSH2 0x2E3E JUMP JUMPDEST PUSH1 0x0 PUSH2 0x2C9D PUSH2 0x3E8 PUSH2 0x1F1B DUP8 DUP7 PUSH2 0x1E16 JUMP JUMPDEST SWAP1 POP PUSH1 0x0 PUSH2 0x2CAB DUP3 DUP7 PUSH2 0x1E16 JUMP JUMPDEST SWAP1 POP PUSH2 0x2CB8 ADDRESS DUP4 DUP4 PUSH2 0x1E22 JUMP JUMPDEST PUSH2 0x28DB DUP4 DUP4 PUSH2 0x2E3E JUMP JUMPDEST PUSH2 0x214A DUP6 DUP6 DUP6 DUP6 DUP6 JUMPDEST PUSH1 0x0 PUSH2 0x2CDD PUSH2 0x3E8 PUSH2 0x1F1B DUP9 DUP8 PUSH2 0x1E16 JUMP JUMPDEST SWAP1 POP PUSH1 0x0 PUSH2 0x2CEB DUP3 DUP8 PUSH2 0x1E16 JUMP JUMPDEST PUSH1 0x1 PUSH1 0x1 PUSH1 0xA0 SHL SUB DUP6 AND PUSH1 0x0 SWAP1 DUP2 MSTORE PUSH1 0xE PUSH1 0x20 MSTORE PUSH1 0x40 SWAP1 KECCAK256 SLOAD SWAP1 SWAP2 POP PUSH2 0x2D11 SWAP1 DUP3 PUSH2 0x1C14 JUMP JUMPDEST PUSH1 0x1 PUSH1 0x1 PUSH1 0xA0 SHL SUB DUP6 AND PUSH1 0x0 SWAP1 DUP2 MSTORE PUSH1 0xE PUSH1 0x20 SWAP1 DUP2 MSTORE PUSH1 0x40 DUP1 DUP4 KECCAK256 SWAP4 SWAP1 SWAP4 SSTORE PUSH1 0x12 SWAP1 MSTORE KECCAK256 SLOAD PUSH1 0xFF AND ISZERO PUSH2 0x2D7B JUMPI PUSH1 0x1 PUSH1 0x1 PUSH1 0xA0 SHL SUB DUP5 AND PUSH1 0x0 SWAP1 DUP2 MSTORE PUSH1 0xF PUSH1 0x20 MSTORE PUSH1 0x40 SWAP1 KECCAK256 SLOAD PUSH2 0x2D61 SWAP1 DUP4 PUSH2 0x1C14 JUMP JUMPDEST PUSH1 0x1 PUSH1 0x1 PUSH1 0xA0 SHL SUB DUP6 AND PUSH1 0x0 SWAP1 DUP2 MSTORE PUSH1 0xF PUSH1 0x20 MSTORE PUSH1 0x40 SWAP1 KECCAK256 SSTORE JUMPDEST PUSH2 0x2D85 DUP4 DUP4 PUSH2 0x2E3E JUMP JUMPDEST POP POP POP POP POP POP POP JUMP JUMPDEST PUSH2 0x12D4 DUP4 DUP4 DUP4 PUSH2 0x157E JUMP JUMPDEST PUSH1 0x0 PUSH1 0xC SLOAD DUP3 LT PUSH2 0x2E08 JUMPI PUSH1 0x40 MLOAD PUSH3 0x461BCD PUSH1 0xE5 SHL DUP2 MSTORE PUSH1 0x20 PUSH1 0x4 DUP3 ADD MSTORE PUSH1 0x33 PUSH1 0x24 DUP3 ADD MSTORE PUSH32 0x4665657353657474696E67732E5F6765744665655374727563743A2046656520 PUSH1 0x44 DUP3 ADD MSTORE PUSH19 0x696E646578206F7574206F6620626F756E6473 PUSH1 0x68 SHL PUSH1 0x64 DUP3 ADD MSTORE PUSH1 0x84 ADD PUSH2 0x88D JUMP JUMPDEST PUSH1 0xC DUP3 DUP2 SLOAD DUP2 LT PUSH2 0x2E29 JUMPI PUSH4 0x4E487B71 PUSH1 0xE0 SHL PUSH1 0x0 MSTORE PUSH1 0x32 PUSH1 0x4 MSTORE PUSH1 0x24 PUSH1 0x0 REVERT JUMPDEST SWAP1 PUSH1 0x0 MSTORE PUSH1 0x20 PUSH1 0x0 KECCAK256 SWAP1 PUSH1 0x4 MUL ADD SWAP1 POP SWAP2 SWAP1 POP JUMP JUMPDEST PUSH1 0x0 PUSH2 0x2E49 DUP4 PUSH2 0x2D99 JUMP JUMPDEST PUSH1 0x3 DUP2 ADD SLOAD SWAP1 SWAP2 POP PUSH2 0x2E5B SWAP1 DUP4 PUSH2 0x1C14 JUMP JUMPDEST PUSH1 0x3 SWAP1 SWAP2 ADD SSTORE POP POP JUMP JUMPDEST DUP1 CALLDATALOAD DUP1 ISZERO ISZERO DUP2 EQ PUSH2 0x275D JUMPI PUSH1 0x0 DUP1 REVERT JUMPDEST PUSH1 0x0 PUSH1 0x20 DUP3 DUP5 SUB SLT ISZERO PUSH2 0x2E86 JUMPI DUP1 DUP2 REVERT JUMPDEST DUP2 CALLDATALOAD PUSH2 0x156B DUP2 PUSH2 0x32CF JUMP JUMPDEST PUSH1 0x0 PUSH1 0x20 DUP3 DUP5 SUB SLT ISZERO PUSH2 0x2EA2 JUMPI DUP1 DUP2 REVERT JUMPDEST DUP2 MLOAD PUSH2 0x156B DUP2 PUSH2 0x32CF JUMP JUMPDEST PUSH1 0x0 DUP1 PUSH1 0x40 DUP4 DUP6 SUB SLT ISZERO PUSH2 0x2EBF JUMPI DUP1 DUP2 REVERT JUMPDEST DUP3 CALLDATALOAD PUSH2 0x2ECA DUP2 PUSH2 0x32CF JUMP JUMPDEST SWAP2 POP PUSH1 0x20 DUP4 ADD CALLDATALOAD PUSH2 0x2EDA DUP2 PUSH2 0x32CF JUMP JUMPDEST DUP1 SWAP2 POP POP SWAP3 POP SWAP3 SWAP1 POP JUMP JUMPDEST PUSH1 0x0 DUP1 PUSH1 0x0 PUSH1 0x60 DUP5 DUP7 SUB SLT ISZERO PUSH2 0x2EF9 JUMPI DUP1 DUP2 REVERT JUMPDEST DUP4 CALLDATALOAD PUSH2 0x2F04 DUP2 PUSH2 0x32CF JUMP JUMPDEST SWAP3 POP PUSH1 0x20 DUP5 ADD CALLDATALOAD PUSH2 0x2F14 DUP2 PUSH2 0x32CF JUMP JUMPDEST SWAP3 SWAP6 SWAP3 SWAP5 POP POP POP PUSH1 0x40 SWAP2 SWAP1 SWAP2 ADD CALLDATALOAD SWAP1 JUMP JUMPDEST PUSH1 0x0 DUP1 PUSH1 0x40 DUP4 DUP6 SUB SLT ISZERO PUSH2 0x2F37 JUMPI DUP2 DUP3 REVERT JUMPDEST DUP3 CALLDATALOAD PUSH2 0x2F42 DUP2 PUSH2 0x32CF JUMP JUMPDEST SWAP2 POP PUSH2 0x2F50 PUSH1 0x20 DUP5 ADD PUSH2 0x2E65 JUMP JUMPDEST SWAP1 POP SWAP3 POP SWAP3 SWAP1 POP JUMP JUMPDEST PUSH1 0x0 DUP1 PUSH1 0x40 DUP4 DUP6 SUB SLT ISZERO PUSH2 0x2F6B JUMPI DUP2 DUP3 REVERT JUMPDEST DUP3 CALLDATALOAD PUSH2 0x2F76 DUP2 PUSH2 0x32CF JUMP JUMPDEST SWAP5 PUSH1 0x20 SWAP4 SWAP1 SWAP4 ADD CALLDATALOAD SWAP4 POP POP POP JUMP JUMPDEST PUSH1 0x0 PUSH1 0x20 DUP3 DUP5 SUB SLT ISZERO PUSH2 0x2F95 JUMPI DUP1 DUP2 REVERT JUMPDEST PUSH2 0x156B DUP3 PUSH2 0x2E65 JUMP JUMPDEST PUSH1 0x0 PUSH1 0x20 DUP3 DUP5 SUB SLT ISZERO PUSH2 0x2FAF JUMPI DUP1 DUP2 REVERT JUMPDEST POP CALLDATALOAD SWAP2 SWAP1 POP JUMP JUMPDEST PUSH1 0x0 DUP1 PUSH1 0x40 DUP4 DUP6 SUB SLT ISZERO PUSH2 0x2FC8 JUMPI DUP2 DUP3 REVERT JUMPDEST DUP3 CALLDATALOAD SWAP2 POP PUSH2 0x2F50 PUSH1 0x20 DUP5 ADD PUSH2 0x2E65 JUMP JUMPDEST PUSH1 0x0 DUP1 PUSH1 0x0 PUSH1 0x60 DUP5 DUP7 SUB SLT ISZERO PUSH2 0x2FEC JUMPI DUP3 DUP4 REVERT JUMPDEST DUP4 MLOAD SWAP3 POP PUSH1 0x20 DUP5 ADD MLOAD SWAP2 POP PUSH1 0x40 DUP5 ADD MLOAD SWAP1 POP SWAP3 POP SWAP3 POP SWAP3 JUMP JUMPDEST PUSH1 0x0 PUSH1 0x20 DUP1 DUP4 MSTORE DUP4 MLOAD DUP1 DUP3 DUP6 ADD MSTORE DUP3 JUMPDEST DUP2 DUP2 LT ISZERO PUSH2 0x3031 JUMPI DUP6 DUP2 ADD DUP4 ADD MLOAD DUP6 DUP3 ADD PUSH1 0x40 ADD MSTORE DUP3 ADD PUSH2 0x3015 JUMP JUMPDEST DUP2 DUP2 GT ISZERO PUSH2 0x3042 JUMPI DUP4 PUSH1 0x40 DUP4 DUP8 ADD ADD MSTORE JUMPDEST POP PUSH1 0x1F ADD PUSH1 0x1F NOT AND SWAP3 SWAP1 SWAP3 ADD PUSH1 0x40 ADD SWAP4 SWAP3 POP POP POP JUMP JUMPDEST PUSH1 0x20 DUP1 DUP3 MSTORE DUP2 DUP2 ADD MSTORE PUSH32 0x4F776E61626C653A2063616C6C6572206973206E6F7420746865206F776E6572 PUSH1 0x40 DUP3 ADD MSTORE PUSH1 0x60 ADD SWAP1 JUMP JUMPDEST PUSH1 0x20 DUP1 DUP3 MSTORE PUSH1 0x25 SWAP1 DUP3 ADD MSTORE PUSH32 0x4D616E61676561626C653A2063616C6C6572206973206E6F7420746865206D61 PUSH1 0x40 DUP3 ADD MSTORE PUSH5 0x3730B3B2B9 PUSH1 0xD9 SHL PUSH1 0x60 DUP3 ADD MSTORE PUSH1 0x80 ADD SWAP1 JUMP JUMPDEST PUSH1 0x0 PUSH1 0xA0 DUP3 ADD DUP8 DUP4 MSTORE PUSH1 0x20 DUP8 DUP2 DUP6 ADD MSTORE PUSH1 0xA0 PUSH1 0x40 DUP6 ADD MSTORE DUP2 DUP8 MLOAD DUP1 DUP5 MSTORE PUSH1 0xC0 DUP7 ADD SWAP2 POP DUP3 DUP10 ADD SWAP4 POP DUP5 JUMPDEST DUP2 DUP2 LT ISZERO PUSH2 0x3121 JUMPI DUP5 MLOAD PUSH1 0x1 PUSH1 0x1 PUSH1 0xA0 SHL SUB AND DUP4 MSTORE SWAP4 DUP4 ADD SWAP4 SWAP2 DUP4 ADD SWAP2 PUSH1 0x1 ADD PUSH2 0x30FC JUMP JUMPDEST POP POP PUSH1 0x1 PUSH1 0x1 PUSH1 0xA0 SHL SUB SWAP7 SWAP1 SWAP7 AND PUSH1 0x60 DUP6 ADD MSTORE POP POP POP PUSH1 0x80 ADD MSTORE SWAP4 SWAP3 POP POP POP JUMP JUMPDEST PUSH1 0x0 DUP3 NOT DUP3 GT ISZERO PUSH2 0x3155 JUMPI PUSH2 0x3155 PUSH2 0x32B9 JUMP JUMPDEST POP ADD SWAP1 JUMP JUMPDEST PUSH1 0x0 DUP3 PUSH2 0x3175 JUMPI PUSH4 0x4E487B71 PUSH1 0xE0 SHL DUP2 MSTORE PUSH1 0x12 PUSH1 0x4 MSTORE PUSH1 0x24 DUP2 REVERT JUMPDEST POP DIV SWAP1 JUMP JUMPDEST PUSH1 0x1 DUP2 DUP2 JUMPDEST DUP1 DUP6 GT ISZERO PUSH2 0x31B5 JUMPI DUP2 PUSH1 0x0 NOT DIV DUP3 GT ISZERO PUSH2 0x319B JUMPI PUSH2 0x319B PUSH2 0x32B9 JUMP JUMPDEST DUP1 DUP6 AND ISZERO PUSH2 0x31A8 JUMPI SWAP2 DUP2 MUL SWAP2 JUMPDEST SWAP4 DUP5 SHR SWAP4 SWAP1 DUP1 MUL SWAP1 PUSH2 0x317F JUMP JUMPDEST POP SWAP3 POP SWAP3 SWAP1 POP JUMP JUMPDEST PUSH1 0x0 PUSH2 0x156B PUSH1 0xFF DUP5 AND DUP4 PUSH1 0x0 DUP3 PUSH2 0x31D6 JUMPI POP PUSH1 0x1 PUSH2 0x7B5 JUMP JUMPDEST DUP2 PUSH2 0x31E3 JUMPI POP PUSH1 0x0 PUSH2 0x7B5 JUMP JUMPDEST DUP2 PUSH1 0x1 DUP2 EQ PUSH2 0x31F9 JUMPI PUSH1 0x2 DUP2 EQ PUSH2 0x3203 JUMPI PUSH2 0x321F JUMP JUMPDEST PUSH1 0x1 SWAP2 POP POP PUSH2 0x7B5 JUMP JUMPDEST PUSH1 0xFF DUP5 GT ISZERO PUSH2 0x3214 JUMPI PUSH2 0x3214 PUSH2 0x32B9 JUMP JUMPDEST POP POP PUSH1 0x1 DUP3 SHL PUSH2 0x7B5 JUMP JUMPDEST POP PUSH1 0x20 DUP4 LT PUSH2 0x133 DUP4 LT AND PUSH1 0x4E DUP5 LT PUSH1 0xB DUP5 LT AND OR ISZERO PUSH2 0x3242 JUMPI POP DUP2 DUP2 EXP PUSH2 0x7B5 JUMP JUMPDEST PUSH2 0x324C DUP4 DUP4 PUSH2 0x317A JUMP JUMPDEST DUP1 PUSH1 0x0 NOT DIV DUP3 GT ISZERO PUSH2 0x3260 JUMPI PUSH2 0x3260 PUSH2 0x32B9 JUMP JUMPDEST MUL SWAP4 SWAP3 POP POP POP JUMP JUMPDEST PUSH1 0x0 DUP2 PUSH1 0x0 NOT DIV DUP4 GT DUP3 ISZERO ISZERO AND ISZERO PUSH2 0x3282 JUMPI PUSH2 0x3282 PUSH2 0x32B9 JUMP JUMPDEST POP MUL SWAP1 JUMP JUMPDEST PUSH1 0x0 DUP3 DUP3 LT ISZERO PUSH2 0x3299 JUMPI PUSH2 0x3299 PUSH2 0x32B9 JUMP JUMPDEST POP SUB SWAP1 JUMP JUMPDEST PUSH1 0x0 PUSH1 0x0 NOT DUP3 EQ ISZERO PUSH2 0x32B2 JUMPI PUSH2 0x32B2 PUSH2 0x32B9 JUMP JUMPDEST POP PUSH1 0x1 ADD SWAP1 JUMP JUMPDEST PUSH4 0x4E487B71 PUSH1 0xE0 SHL PUSH1 0x0 MSTORE PUSH1 0x11 PUSH1 0x4 MSTORE PUSH1 0x24 PUSH1 0x0 REVERT JUMPDEST PUSH1 0x1 PUSH1 0x1 PUSH1 0xA0 SHL SUB DUP2 AND DUP2 EQ PUSH2 0xB30 JUMPI PUSH1 0x0 DUP1 REVERT INVALID GASLIMIT MSTORE NUMBER ORIGIN ADDRESS GASPRICE KECCAK256 PUSH21 0x72616E7366657220616D6F756E7420657863656564 PUSH20 0x20616C6C6F77616E63658BE0079C531659141344 0xCD 0x1F 0xD0 LOG4 CALLCODE DUP5 NOT 0x49 PUSH32 0x9722A3DAAFE3B4186F6B6457E045524332303A2064656372656173656420616C PUSH13 0x6F77616E63652062656C6F7720 PUSH27 0x65726FA26469706673582212205ABAFC1B6F023044C01C9CF6A511 SWAP9 SHR MSIZE 0xC DUP14 MUL 0xE2 EQ 0xEB 0xB8 PUSH14 0x3E6C49517CAABD64736F6C634300 ADDMOD DIV STOP CALLER "
		},
		"gasEstimates": {
			"creation": {
				"codeDepositCost": "2638200",
				"executionCost": "infinite",
				"totalCost": "infinite"
			},
			"external": {
				"allowance(address,address)": "infinite",
				"approve(address,uint256)": "22561",
				"balanceOf(address)": "infinite",
				"burn(uint256)": "infinite",
				"checkAddress(address)": "1356",
				"checkAddress2(address)": "1309",
				"decimals()": "267",
				"decreaseAllowance(address,uint256)": "infinite",
				"excludeFromReward(address)": "infinite",
				"getAddressLastTransaction(address)": "1400",
				"getAntiDump()": "1116",
				"getCapWhaleWalletBalance()": "1059",
				"getContractStartTime()": "1124",
				"getMaxWalletBalance()": "1037",
				"getTimeLimitTransaction()": "1104",
				"getUnlockTime()": "1147",
				"includeInReward(address)": "infinite",
				"increaseAllowance(address,uint256)": "23618",
				"isExcludedFromFee(address)": "1354",
				"isExcludedFromReward(address)": "1310",
				"lock(uint256)": "65260",
				"manager()": "1065",
				"name()": "infinite",
				"owner()": "1120",
				"reflectionFromToken(uint256,bool)": "infinite",
				"renounceOwnership()": "24288",
				"setCapWhaleWalletBalance(uint256)": "21109",
				"setExcludedFromFee(address,bool)": "22204",
				"setIsAntiDump(bool)": "22037",
				"setMaxWalletBalance(uint256)": "21132",
				"setPreseableEnabled(bool)": "22129",
				"setRouterAddress(address)": "infinite",
				"setSwapAndLiquifyEnabled(bool)": "23213",
				"setTimeLimitTransaction(uint256)": "21197",
				"symbol()": "infinite",
				"totalSupply()": "735",
				"transfer(address,uint256)": "infinite",
				"transferFrom(address,address,uint256)": "infinite",
				"transferManagement(address)": "24469",
				"transferOwnership(address)": "24581",
				"unlock()": "26735",
				"withdrawLockedEth(address)": "infinite"
			}
		},
		"methodIdentifiers": {
			"allowance(address,address)": "dd62ed3e",
			"approve(address,uint256)": "095ea7b3",
			"balanceOf(address)": "70a08231",
			"burn(uint256)": "42966c68",
			"checkAddress(address)": "0ddcfe8e",
			"checkAddress2(address)": "d5633204",
			"decimals()": "313ce567",
			"decreaseAllowance(address,uint256)": "a457c2d7",
			"excludeFromReward(address)": "52390c02",
			"getAddressLastTransaction(address)": "2181432f",
			"getAntiDump()": "31f0a03c",
			"getCapWhaleWalletBalance()": "51fc9f7a",
			"getContractStartTime()": "e7bc1eed",
			"getMaxWalletBalance()": "a5727e78",
			"getTimeLimitTransaction()": "737c0dd2",
			"getUnlockTime()": "602bc62b",
			"includeInReward(address)": "3685d419",
			"increaseAllowance(address,uint256)": "39509351",
			"isExcludedFromFee(address)": "5342acb4",
			"isExcludedFromReward(address)": "88f82020",
			"lock(uint256)": "dd467064",
			"manager()": "481c6a75",
			"name()": "06fdde03",
			"owner()": "8da5cb5b",
			"reflectionFromToken(uint256,bool)": "4549b039",
			"renounceOwnership()": "715018a6",
			"setCapWhaleWalletBalance(uint256)": "79053441",
			"setExcludedFromFee(address,bool)": "6612e66f",
			"setIsAntiDump(bool)": "306d0ab3",
			"setMaxWalletBalance(uint256)": "3a9e00de",
			"setPreseableEnabled(bool)": "74778cdc",
			"setRouterAddress(address)": "41cb87fc",
			"setSwapAndLiquifyEnabled(bool)": "c49b9a80",
			"setTimeLimitTransaction(uint256)": "5b23748d",
			"symbol()": "95d89b41",
			"totalSupply()": "18160ddd",
			"transfer(address,uint256)": "a9059cbb",
			"transferFrom(address,address,uint256)": "23b872dd",
			"transferManagement(address)": "e4edf852",
			"transferOwnership(address)": "f2fde38b",
			"unlock()": "a69df4b5",
			"withdrawLockedEth(address)": "b7671a0d"
		}
	},
	"abi": [
		{
			"inputs": [],
			"stateMutability": "nonpayable",
			"type": "constructor"
		},
		{
			"anonymous": false,
			"inputs": [
				{
					"indexed": true,
					"internalType": "address",
					"name": "owner",
					"type": "address"
				},
				{
					"indexed": true,
					"internalType": "address",
					"name": "spender",
					"type": "address"
				},
				{
					"indexed": false,
					"internalType": "uint256",
					"name": "value",
					"type": "uint256"
				}
			],
			"name": "Approval",
			"type": "event"
		},
		{
			"anonymous": false,
			"inputs": [
				{
					"indexed": false,
					"internalType": "uint256",
					"name": "tokenAmountSent",
					"type": "uint256"
				},
				{
					"indexed": false,
					"internalType": "uint256",
					"name": "ethAmountSent",
					"type": "uint256"
				},
				{
					"indexed": false,
					"internalType": "uint256",
					"name": "liquidity",
					"type": "uint256"
				}
			],
			"name": "LiquidityAdded",
			"type": "event"
		},
		{
			"anonymous": false,
			"inputs": [
				{
					"indexed": true,
					"internalType": "address",
					"name": "previousManager",
					"type": "address"
				},
				{
					"indexed": true,
					"internalType": "address",
					"name": "newManager",
					"type": "address"
				}
			],
			"name": "ManagementTransferred",
			"type": "event"
		},
		{
			"anonymous": false,
			"inputs": [
				{
					"indexed": true,
					"internalType": "address",
					"name": "previousOwner",
					"type": "address"
				},
				{
					"indexed": true,
					"internalType": "address",
					"name": "newOwner",
					"type": "address"
				}
			],
			"name": "OwnershipTransferred",
			"type": "event"
		},
		{
			"anonymous": false,
			"inputs": [
				{
					"indexed": true,
					"internalType": "address",
					"name": "router",
					"type": "address"
				}
			],
			"name": "RouterSet",
			"type": "event"
		},
		{
			"anonymous": false,
			"inputs": [
				{
					"indexed": false,
					"internalType": "uint256",
					"name": "tokensSwapped",
					"type": "uint256"
				},
				{
					"indexed": false,
					"internalType": "uint256",
					"name": "ethReceived",
					"type": "uint256"
				},
				{
					"indexed": false,
					"internalType": "uint256",
					"name": "tokensIntoLiquidity",
					"type": "uint256"
				}
			],
			"name": "SwapAndLiquify",
			"type": "event"
		},
		{
			"anonymous": false,
			"inputs": [
				{
					"indexed": false,
					"internalType": "bool",
					"name": "enabled",
					"type": "bool"
				}
			],
			"name": "SwapAndLiquifyEnabledUpdated",
			"type": "event"
		},
		{
			"anonymous": false,
			"inputs": [
				{
					"indexed": true,
					"internalType": "address",
					"name": "from",
					"type": "address"
				},
				{
					"indexed": true,
					"internalType": "address",
					"name": "to",
					"type": "address"
				},
				{
					"indexed": false,
					"internalType": "uint256",
					"name": "value",
					"type": "uint256"
				}
			],
			"name": "Transfer",
			"type": "event"
		},
		{
			"inputs": [
				{
					"internalType": "address",
					"name": "owner",
					"type": "address"
				},
				{
					"internalType": "address",
					"name": "spender",
					"type": "address"
				}
			],
			"name": "allowance",
			"outputs": [
				{
					"internalType": "uint256",
					"name": "",
					"type": "uint256"
				}
			],
			"stateMutability": "view",
			"type": "function"
		},
		{
			"inputs": [
				{
					"internalType": "address",
					"name": "spender",
					"type": "address"
				},
				{
					"internalType": "uint256",
					"name": "amount",
					"type": "uint256"
				}
			],
			"name": "approve",
			"outputs": [
				{
					"internalType": "bool",
					"name": "",
					"type": "bool"
				}
			],
			"stateMutability": "nonpayable",
			"type": "function"
		},
		{
			"inputs": [
				{
					"internalType": "address",
					"name": "account",
					"type": "address"
				}
			],
			"name": "balanceOf",
			"outputs": [
				{
					"internalType": "uint256",
					"name": "",
					"type": "uint256"
				}
			],
			"stateMutability": "view",
			"type": "function"
		},
		{
			"inputs": [
				{
					"internalType": "uint256",
					"name": "amount",
					"type": "uint256"
				}
			],
			"name": "burn",
			"outputs": [],
			"stateMutability": "nonpayable",
			"type": "function"
		},
		{
			"inputs": [
				{
					"internalType": "address",
					"name": "checkAdd",
					"type": "address"
				}
			],
			"name": "checkAddress",
			"outputs": [
				{
					"internalType": "uint256",
					"name": "",
					"type": "uint256"
				}
			],
			"stateMutability": "view",
			"type": "function"
		},
		{
			"inputs": [
				{
					"internalType": "address",
					"name": "checkAdd",
					"type": "address"
				}
			],
			"name": "checkAddress2",
			"outputs": [
				{
					"internalType": "uint256",
					"name": "",
					"type": "uint256"
				}
			],
			"stateMutability": "view",
			"type": "function"
		},
		{
			"inputs": [],
			"name": "decimals",
			"outputs": [
				{
					"internalType": "uint8",
					"name": "",
					"type": "uint8"
				}
			],
			"stateMutability": "pure",
			"type": "function"
		},
		{
			"inputs": [
				{
					"internalType": "address",
					"name": "spender",
					"type": "address"
				},
				{
					"internalType": "uint256",
					"name": "subtractedValue",
					"type": "uint256"
				}
			],
			"name": "decreaseAllowance",
			"outputs": [
				{
					"internalType": "bool",
					"name": "",
					"type": "bool"
				}
			],
			"stateMutability": "nonpayable",
			"type": "function"
		},
		{
			"inputs": [
				{
					"internalType": "address",
					"name": "account",
					"type": "address"
				}
			],
			"name": "excludeFromReward",
			"outputs": [],
			"stateMutability": "nonpayable",
			"type": "function"
		},
		{
			"inputs": [
				{
					"internalType": "address",
					"name": "owner",
					"type": "address"
				}
			],
			"name": "getAddressLastTransaction",
			"outputs": [
				{
					"internalType": "uint256",
					"name": "",
					"type": "uint256"
				}
			],
			"stateMutability": "view",
			"type": "function"
		},
		{
			"inputs": [],
			"name": "getAntiDump",
			"outputs": [
				{
					"internalType": "bool",
					"name": "",
					"type": "bool"
				}
			],
			"stateMutability": "view",
			"type": "function"
		},
		{
			"inputs": [],
			"name": "getCapWhaleWalletBalance",
			"outputs": [
				{
					"internalType": "uint256",
					"name": "",
					"type": "uint256"
				}
			],
			"stateMutability": "view",
			"type": "function"
		},
		{
			"inputs": [],
			"name": "getContractStartTime",
			"outputs": [
				{
					"internalType": "uint256",
					"name": "",
					"type": "uint256"
				}
			],
			"stateMutability": "view",
			"type": "function"
		},
		{
			"inputs": [],
			"name": "getMaxWalletBalance",
			"outputs": [
				{
					"internalType": "uint256",
					"name": "",
					"type": "uint256"
				}
			],
			"stateMutability": "view",
			"type": "function"
		},
		{
			"inputs": [],
			"name": "getTimeLimitTransaction",
			"outputs": [
				{
					"internalType": "uint256",
					"name": "",
					"type": "uint256"
				}
			],
			"stateMutability": "view",
			"type": "function"
		},
		{
			"inputs": [],
			"name": "getUnlockTime",
			"outputs": [
				{
					"internalType": "uint256",
					"name": "",
					"type": "uint256"
				}
			],
			"stateMutability": "view",
			"type": "function"
		},
		{
			"inputs": [
				{
					"internalType": "address",
					"name": "account",
					"type": "address"
				}
			],
			"name": "includeInReward",
			"outputs": [],
			"stateMutability": "nonpayable",
			"type": "function"
		},
		{
			"inputs": [
				{
					"internalType": "address",
					"name": "spender",
					"type": "address"
				},
				{
					"internalType": "uint256",
					"name": "addedValue",
					"type": "uint256"
				}
			],
			"name": "increaseAllowance",
			"outputs": [
				{
					"internalType": "bool",
					"name": "",
					"type": "bool"
				}
			],
			"stateMutability": "nonpayable",
			"type": "function"
		},
		{
			"inputs": [
				{
					"internalType": "address",
					"name": "account",
					"type": "address"
				}
			],
			"name": "isExcludedFromFee",
			"outputs": [
				{
					"internalType": "bool",
					"name": "",
					"type": "bool"
				}
			],
			"stateMutability": "view",
			"type": "function"
		},
		{
			"inputs": [
				{
					"internalType": "address",
					"name": "account",
					"type": "address"
				}
			],
			"name": "isExcludedFromReward",
			"outputs": [
				{
					"internalType": "bool",
					"name": "",
					"type": "bool"
				}
			],
			"stateMutability": "view",
			"type": "function"
		},
		{
			"inputs": [
				{
					"internalType": "uint256",
					"name": "time",
					"type": "uint256"
				}
			],
			"name": "lock",
			"outputs": [],
			"stateMutability": "nonpayable",
			"type": "function"
		},
		{
			"inputs": [],
			"name": "manager",
			"outputs": [
				{
					"internalType": "address",
					"name": "",
					"type": "address"
				}
			],
			"stateMutability": "view",
			"type": "function"
		},
		{
			"inputs": [],
			"name": "name",
			"outputs": [
				{
					"internalType": "string",
					"name": "",
					"type": "string"
				}
			],
			"stateMutability": "pure",
			"type": "function"
		},
		{
			"inputs": [],
			"name": "owner",
			"outputs": [
				{
					"internalType": "address",
					"name": "",
					"type": "address"
				}
			],
			"stateMutability": "view",
			"type": "function"
		},
		{
			"inputs": [
				{
					"internalType": "uint256",
					"name": "tAmount",
					"type": "uint256"
				},
				{
					"internalType": "bool",
					"name": "deductTransferFee",
					"type": "bool"
				}
			],
			"name": "reflectionFromToken",
			"outputs": [
				{
					"internalType": "uint256",
					"name": "",
					"type": "uint256"
				}
			],
			"stateMutability": "view",
			"type": "function"
		},
		{
			"inputs": [],
			"name": "renounceOwnership",
			"outputs": [],
			"stateMutability": "nonpayable",
			"type": "function"
		},
		{
			"inputs": [
				{
					"internalType": "uint256",
					"name": "amount",
					"type": "uint256"
				}
			],
			"name": "setCapWhaleWalletBalance",
			"outputs": [],
			"stateMutability": "nonpayable",
			"type": "function"
		},
		{
			"inputs": [
				{
					"internalType": "address",
					"name": "account",
					"type": "address"
				},
				{
					"internalType": "bool",
					"name": "value",
					"type": "bool"
				}
			],
			"name": "setExcludedFromFee",
			"outputs": [],
			"stateMutability": "nonpayable",
			"type": "function"
		},
		{
			"inputs": [
				{
					"internalType": "bool",
					"name": "isActive",
					"type": "bool"
				}
			],
			"name": "setIsAntiDump",
			"outputs": [],
			"stateMutability": "nonpayable",
			"type": "function"
		},
		{
			"inputs": [
				{
					"internalType": "uint256",
					"name": "amount",
					"type": "uint256"
				}
			],
			"name": "setMaxWalletBalance",
			"outputs": [],
			"stateMutability": "nonpayable",
			"type": "function"
		},
		{
			"inputs": [
				{
					"internalType": "bool",
					"name": "value",
					"type": "bool"
				}
			],
			"name": "setPreseableEnabled",
			"outputs": [],
			"stateMutability": "nonpayable",
			"type": "function"
		},
		{
			"inputs": [
				{
					"internalType": "address",
					"name": "router",
					"type": "address"
				}
			],
			"name": "setRouterAddress",
			"outputs": [],
			"stateMutability": "nonpayable",
			"type": "function"
		},
		{
			"inputs": [
				{
					"internalType": "bool",
					"name": "enabled",
					"type": "bool"
				}
			],
			"name": "setSwapAndLiquifyEnabled",
			"outputs": [],
			"stateMutability": "nonpayable",
			"type": "function"
		},
		{
			"inputs": [
				{
					"internalType": "uint256",
					"name": "inSecond",
					"type": "uint256"
				}
			],
			"name": "setTimeLimitTransaction",
			"outputs": [],
			"stateMutability": "nonpayable",
			"type": "function"
		},
		{
			"inputs": [],
			"name": "symbol",
			"outputs": [
				{
					"internalType": "string",
					"name": "",
					"type": "string"
				}
			],
			"stateMutability": "pure",
			"type": "function"
		},
		{
			"inputs": [],
			"name": "totalSupply",
			"outputs": [
				{
					"internalType": "uint256",
					"name": "",
					"type": "uint256"
				}
			],
			"stateMutability": "pure",
			"type": "function"
		},
		{
			"inputs": [
				{
					"internalType": "address",
					"name": "recipient",
					"type": "address"
				},
				{
					"internalType": "uint256",
					"name": "amount",
					"type": "uint256"
				}
			],
			"name": "transfer",
			"outputs": [
				{
					"internalType": "bool",
					"name": "",
					"type": "bool"
				}
			],
			"stateMutability": "nonpayable",
			"type": "function"
		},
		{
			"inputs": [
				{
					"internalType": "address",
					"name": "sender",
					"type": "address"
				},
				{
					"internalType": "address",
					"name": "recipient",
					"type": "address"
				},
				{
					"internalType": "uint256",
					"name": "amount",
					"type": "uint256"
				}
			],
			"name": "transferFrom",
			"outputs": [
				{
					"internalType": "bool",
					"name": "",
					"type": "bool"
				}
			],
			"stateMutability": "nonpayable",
			"type": "function"
		},
		{
			"inputs": [
				{
					"internalType": "address",
					"name": "newManager",
					"type": "address"
				}
			],
			"name": "transferManagement",
			"outputs": [],
			"stateMutability": "nonpayable",
			"type": "function"
		},
		{
			"inputs": [
				{
					"internalType": "address",
					"name": "newOwner",
					"type": "address"
				}
			],
			"name": "transferOwnership",
			"outputs": [],
			"stateMutability": "nonpayable",
			"type": "function"
		},
		{
			"inputs": [],
			"name": "unlock",
			"outputs": [],
			"stateMutability": "nonpayable",
			"type": "function"
		},
		{
			"inputs": [
				{
					"internalType": "address payable",
					"name": "recipient",
					"type": "address"
				}
			],
			"name": "withdrawLockedEth",
			"outputs": [],
			"stateMutability": "nonpayable",
			"type": "function"
		},
		{
			"stateMutability": "payable",
			"type": "receive"
		}
	]
}